:020000040800F2
:20000000F0FF01205569040811320208C9B20008C9690408C9690408C9690408000000007C
:200020000000000000000000000000001D320208193202080000000015320208C5AB000849
:20004000C9690408C9690408C9690408C9690408C9690408C9690408E1B4000821B60008B0
:20006000E1B50008A1B5000861B50008751401086514010855140108451401083114010830
:200080001D14010809140108C96904080000000000000000000000000000000021B50008E4
:2000A0004D9B0008699E0008C9690408299F0008A99D0008C9690408E99C0008C9690408DC
:2000C000C9690408C9690408C9690408C9690408C9690408A1AC000805AC000800000000DC
:2000E000A1B40008C9690408C579020800000000000000000000000000000000F51301080C
:2001000000000000C96904081D9C0008C969040800000000000000000000000000000000A2
:20012000E1130108CD130108B9130108A51301089113010800000000000000000000000096
:20014000000000000000000000000000054002087D1301086913010855130108C969040883
:20016000C9690408C969040800000000000000000000000000000000000000000000000003
:2001800000000000C96904080000000000000000C9690408C9690408EC6404000100000050
:2001A00010020100783000207430002000000000F00600080B123800442A00207C300020F3
:2001C00000000000F20600081A023C00842A0020B430002000000000B58E0008270004007F
:2001E000802A0020F0300020000000002A0700080312330018380020A03F00200000000005
:200200003007000825009600543E0020EA3E00200000000000000000F6210C00203C00204B
:20022000D03D00200000000064070008150070002C3C0020603D0020000000000000000054
:200240002A0060009C3C0020003D00200000000069EB02082C001000803F0020903F002057
:2002600000000000612F01082B002400F73F0020D33F002000000000312F010819020C007E
:20028000803600206040002000000000CD86000829107800303B0020DC3D002000000000F8
:2002A00000000000140003002C3A0020FC3C0020000000007007000810100200B43800209C
:2002C0006C400020000000007407000828101000A438002070400020000000002917010872
:2002E0002300100038350020804000200000000041170108F8210600963600209040002002
:20030000000000007607000816000800A840002010440020000000007C0700080510060018
:20032000F05900201C5F00200000000084070008F531700050590020245F00200000000024
:20034000758B020826000E00A45F0020945F002000000000392502080B20100050570020BF
:20036000D85F0020000000008A0700081F201C00984E0020E85F0020000000009A0700081C
:2003800005020400185900200460002000000000B607000803010A00045700200860002067
:2003A00000000000BA07000813020300444D00201460002000000000C40700080C106C00BC
:2003C000667200204078002000000000B59403080E5020011C710020AC7800200000000089
:2003E00091EB020813000400E8750020CC79002000000000C807000801010400967000207B
:20040000D07900200000000000000000000104008E700020D479002000000000CC07000808
:200420000201030089700020D879002000000000DD94030809020100F4770020DC790020A4
:2004400000000000D0070008010205009E700020E07900200000000031810208000205004B
:2004600098750020E879002000000000000000001B0208008C750020F079002000000000FF
:20048000F186000801200800CC760020F879002000000000D2070008190005007C770020AF
:2004A000007A002000000000DA07000837001E0054770020087A002000000000E0070008E8
:2004C0001E0005006C730020287A002000000000FE0700081B00F40028600020307A0020AA
:2004E00000000000099202080E02020064760020247B002000000000040800082F00110038
:2005000020780020287B002000000000060800081A000E00207F002064810020000000005E
:200520001808000818020200B087002000880020000000000000000017020B00A587002008
:2005400004880020000000005186000802000C00B4870020108800200000000000000000EF
:20056000081209009C8700201C8800200000000095860008F7010600968700202888002023
:2005800000000000260800080A020A005882002030880020000000002C08000803000100FD
:2005A000988300203C88002000000000000000000400800070BF002004C000200000000065
:2005C000000000000D002400F4BD002084C00020000000002D950308F901040050B50020C5
:2005E000A8C0002000000000DD81000818202C0020B50020ACC00020000000006990000827
:20060000061018006CA80020D8C0002000000000EDEB0208FB010100A4A70020F0C00020A6
:20062000000000005DA30008FC01090070A60020F4C00020000000006DA300083400100046
:200640009CA5002000C1002000000000C1EB02081102080074A5002010C10020000000005D
:2006600036080008121204006CA5002018C10020000000003E08000812200D005CA5002034
:200680001CC100200000000042080008FD012100A09C00202CC10020000000006581000895
:2006A0000A4020009C8A002050C100200000000050080008020203009088002070C1002069
:2006C00000000000000000000C0203004C88002074C100200000000041860008FE010900E9
:2006E000348A002078C1002000000000DD8600080000000000000000000000000000000058
:200700000000000000000000000000000000000000000000000000000000000000000000D9
:20072000000000000000000000002003000000000000000000000000000000000000000096
:20074000000000000000000000000000000000000000000000000000000000000000000099
:20076000000001000000000001000000020200000300000000050401F4011900C40900008B
:20078000190128282000030100002B21231E64010100000001000A012900000000000001A2
:2007A0000000000500000102030000000000000000000000000000000000040101006C16A6
:2007C000000000000000000000040432B30000000000E8036400040A0001000028010000A5
:2007E00020003200C800D0079600140032002800B00440060005500014000F000801000089
:200800000100000000000000000000000000000000000000000000007E05EA05B40532007A
:20082000E803D00700003F010000000000004A01B400D60100000000000001010101FFFFDE
:20084000FFFF0000000100000543344652000000003001000000000064002C0100000000C3
:20086000000000000000020000019E077D004632010101008001000008000000040000004B
:2008800000000000000000000102030406070809D6010100000101010001FFFFFFFFFFFF5A
:2008A000010102FFFF0000000403090412010002EF020140830456320002010203010000C3
:2008C000120100020202004083044057000201020301000009026400030100C03209040026
:2008E0000001030000000921110100012226000705830308000A080B0102020201000904A3
:20090000010001020201000524001001052401000204240202052406010207058203080073
:20092000FF09040200020A000000070501024000000705810240000009024300020100C06E
:20094000320904000001020201000524001001052401000104240202052406000107058203
:20096000030800FF09040100020A000000070501024000000705810240000000FF00000036
:2009800000FFFF0000000000AA5505010000010005010905A101A100050109300931093248
:2009A000093309350934094009381581257F750895088102C0C0000009022200010100E090
:2009C000320904000001030102000921110100012226000705830308000A000000000000A8
:2009E000010203040102030406070809B1330208793A0208F535020881190208891E020891
:200A000091190208AD190208591902084919020800000000000000002D202D2D202D2D2D1C
:200A20002D202D2D2D2D0000000000000000000000000000000000AA550B010000AA5507A4
:200A4000010000AA550902000000AA5503009F0001000000C0120000FF1FFF1F01000000DA
:200A6000B45F002000000000E406002004000000010000001CEF040878FB0408000000009E
:200A8000F1940308A08601000400000000000000000000000000000000000000000000009B
:200AA00000000000000000001CEF040880FB04080000000001800008E80300000400000020
:200AC000000000000000000000000000000000000000000000000000000000005C020508AB
:200AE0003CD104080000000091BC03087D0000000600000000000000000000000000000002
:200B00000000000000000000000000000000000074EE040800000000000000008DE20108EF
:200B2000E803000003000000000000000000000000000000000000000000000000000000C7
:200B40000000000088FB0408000000000000000009F00208102700000300000000000000C9
:200B600000000000000000000000000000000000000000000000000094FB040800000000DA
:200B8000392C0108010702085F7600000500000000000000000000000000000000000000FB
:200BA000000000000000000000000000DCF00408000000000000000045F0000810270000E9
:200BC000010000000000000000000000000000000000000000000000000000000000000014
:200BE00098FB0408000000000000000005800008E8030000050000000000000000000000D9
:200C00000000000000000000000000000000000000000000A4FB0408000000000000000029
:200C200019AA0308204E000003000000000000000000000000000000000000000000000075
:200C40000000000000000000B4FB0408000000000000000005A80308204E000003000000B0
:200C600000000000000000000000000000000000000000000000000000000000C4FB0408A9
:200C80000000000000000000FD8B0008400D03000300000000000000000000000000000071
:200CA00000000000000000000000000000000000E0EF04080000000000000000B5F70308A2
:200CC0001027000001000000000000000000000000000000000000000000000000000000DC
:200CE000000000008CEE0408000000000000000015C1020810270000030000000000000054
:200D0000000000000000000000000000000000000000000000000000D4FB040800000000F8
:200D200000000000B5A90108A8610000010000000000000000000000000000000000000042
:200D4000000000000000000000000000E4F004080000000000000000A9BC0108A00F000096
:200D6000010000000000000000000000000000000000000000000000000000000000000072
:200D8000E0FB04080000000000000000ED8D020810270000010000000000000000000000B0
:200DA0000000000000000000000000000000000000000000E8EF0408000000000000000050
:200DC000095602081A4100000100000000000000000000000000000000000000000000004E
:200DE000000000000000000044F1040800000000000000005D2102081027000001000000F2
:200E000000000000000000000000000000000000000000000000000000000000ECFB0408DF
:200E2000000000000000000029AD02081A4100000100000000000000000000000000000076
:200E400000000000000000000000000000000000F0FB0408000000000000000081510208BF
:200E6000400D03000000000000000000000000000000000000000000000000000000000022
:200E800000000000F8FB0408000000000000000071A90108400D03000000000000000000E0
:200EA00000000000000000000000000000000000000000000000000000FC0408000000002A
:200EC00000000000DDCE020850C30000030000000000000000000000000000000000000047
:200EE0000000000000000000000000000CFC0408000000000000000079A7030840420F0022
:200F00000000000000000000000000000000000000000000000000000000000000000000D1
:200F200018FC040800000000000000001DFA030850C300000000000000000000000000005C
:200F40000000000000000000000000000000000000000000000200051002700B00000100FC
:200F6000E00101010100000005850208000000006C080020B408050800000000000000009C
:200F800000000000000000002CFE0408000000000000000002090020040000006008050877
:200FA0000D000000B9A80208D822002000000000CC0105080D000000E1A80208CC22002017
:200FC00000000000340305080800000000000000C022002004000000380205080D0000006B
:200FE000B9850208B422002000000000E802050803000000B5AB0208A82200200000000065
:20100000C408050803000000B5AB02089C2200200000000074FE040801000000000000002D
:201020000000000000000000000000000E000000000000000000000000000000B4080508D9
:20104000000000000000000000000000000000002CFE04080000000000000000020900202F
:20106000040000000C08050803000000658C02089022002008000000380205080D0000001F
:20108000B9850208B422002000000000E802050803000000B5AB0208A822002000000000C4
:2010A000C408050803000000B5AB02089C2200200000000074FE040801000000000000008D
:2010C0000000000000000000000000000E000000000000000000000000000000CC08050821
:2010E000000000000000000000000000000000002CFE04080000000000000000020900208F
:20110000040000001408050803000000B5AB0208E42200200000000074FE04080100000090
:20112000000000000000000000000000000000000E000000000000000000000000000000A1
:2011400020700020702D7200FFFFFFFF010000000000803F0800000000000000000000000C
:201160004C1E0020FA0000000100000001000000FFFF2D202D2D202D2D2D2D202D2D2D00C9
:2011800000000000000000000000000000000000000000000000803F0000803FFFFFFFFFD5
:2011A00048FE040850FE04086CFE0408000000000000000000000000000000004BFC0408BA
:2011C0000400000083A60208000000000000000074FE040801000000000000000000000059
:2011E00000000000000000000E000000000000000000000000000000045A00200100C40995
:2012000000000000025A00200100C40900000000005A00200100C40900000000FE590020C5
:201220000100C40900000000FA5900200100C40900000000FC5900200100C409000000005C
:20124000F85900200100C40900000000F65900200100C40900000000B07000200100C80009
:2012600001000000AE7000203200307532000000AC700020055A0500A970002000FF01004D
:20128000AB7000200100000030090020A77000200200000020A80408A870002000FF010074
:2012A000AA7000200100000030090020A67000200200000020A804089C70002080C1803E63
:2012C000050000009A70002080C1803E050000009470002080C1803E050000009270002091
:2012E00080C1803E050000008C70002000FF0100887000200A32010087700020040000005E
:20130000DCAB04088670002002000000F0AB0408000000000000000038090020C4580020DE
:201320009CFF2C0100000000F20600200A000000FCAB04087C700020E0150C1700000000EC
:20134000F406002008000000F4A70408F30600200500000030AD04087E70002002000000AD
:2013600014AC0408EC7200200100FF7F01000000EB7200200200000020AC04080F710020AC
:201380000300000030AC04080E7100200300000030AC0408467200200000F401010000000A
:2013A000447200200000F40101000000427200200000F40101000000407200200000F401D0
:2013C000010000003E7200200000803E010000003C7200200000803E0100000062720020FC
:2013E000E803D0070A00000060720020006401000A0000005572002000640100547200208E
:20140000006401005C720020006401000A0000005B720020006401000A0000005A720020C2
:20142000006401000A0000005F720020006401000A0000005E720020006401000A0000007E
:201440005D720020006401000A0000005972002000FF01000A0000005872002000FF01004F
:201460000A0000005772002000FF01000A000000187100200000F401010000001671002029
:201480000000F40101000000147100200000F40101000000127100200000F4010100000022
:2014A000107100200000F401010000005272002000640100507200201400E803010000006A
:2014C0004E720020E80330750A0000004C72002000C801004B72002000C801004A72002069
:2014E00000C8010049720020006401000A000000E07200200000D00701000000DB72002022
:2015000000C80100DA72002000C80100D972002000C80100DE7200200000D0070100000051
:20152000D872002000C80100D772002000C80100D672002000C80100DC7200200000D007D0
:2015400001000000D572002000C80100D472002000C80100D372002000C801009CFE040857
:201560000000000000000000000000000000000020D104080900000000000000DC09002060
:201580000400000028D104080900000000000000D009002004000000EC0505080900000035
:2015A00000000000C40900200400000018FD04080900000000000000B8090020040000002B
:2015C000ACFE04080900000000000000AC09002004000000B4FE04080900000000000000AC
:2015E000A009002004000000BCFE040809000000000000009409002004000000C4FE0408C0
:201600000900000000000000880900200400000074FE04080100000000000000000000008D
:2016200000000000000000000E000000000000000000000000000000B800050800000000D7
:20164000000000000000000000000000D0EE04080700000000000000000A0020000000008F
:20166000C80005080800000000000000F409002000000000D4000508080000000000000087
:20168000E80900200000000074FE04080100000000000000000000000000000000000000BA
:2016A0000E000000000000000000000000000000DC00050800000000000000000000000033
:2016C00000000000EC0005080D000000000000003C0A002000000000F40005080D00000090
:2016E00000000000300A002000000000FC0005080700000000000000280A0020000000002E
:20170000040105080D000000000000001C0A0020000000000C0105080D000000000000003D
:20172000100A002000000000140105080700000000000000080A00200000000074FE040896
:2017400001000000000000000000000000000000000000000E00000000000000000000007A
:20176000000000001C01050800000000000000000000000000000000D0EE04080C00000069
:2017800000000000B270002000000000300105080C00000000000000B47000200000000079
:2017A000400105080C00000000000000EA70002000000000500105080C00000000000000EB
:2017C000DE70002000000000640105080C00000000000000B6700020000000007001050859
:2017E0000C00000000000000B870002000000000780105080C00000000000000BA700020B9
:20180000000000008C0105080C00000000000000BC70002000000000940105080C00000028
:2018200000000000BE700020000000009C0105080C00000000000000FC7000200000000018
:20184000B40105080C00000000000000C070002000000000C00105080C0000000000000090
:20186000C27000200000000030D104080C00000000000000C470002000000000C8010508D3
:201880000C00000000000000C670002000000000D40105080C00000000000000C8700020A0
:2018A00000000000E00105080C00000000000000CA70002000000000EC0105080C000000CE
:2018C00000000000CC70002000000000F80105080C00000000000000CE700020000000003C
:2018E000040205080C00000000000000E2700020000000000C0205080C0000000000000030
:20190000E070002000000000140205080C00000000000000EE70002000000000200205087B
:201920000C00000000000000F0700020000000002C0205080C00000000000000F67000204E
:2019400000000000D4FB04080C00000000000000D070002000000000380205080C000000ED
:2019600000000000D870002000000000400205080C00000000000000D27000200000000042
:201980004C0205080C00000000000000D470002000000000580205080C0000000000000009
:2019A000D670002000000000600205080C00000000000000DA70002000000000F0EE0408F2
:2019C0000C00000000000000E4700020000000006C0205080C00000000000000DC70002094
:2019E00000000000B7FD04080C00000000000000EC70002000000000780205080C0000000C
:201A000000000000E670002000000000800205080C00000000000000E8700020000000003D
:201A2000880205080C00000000000000F270002000000000900205080C00000000000000D6
:201A4000F470002000000000980205080C00000000000000067100200000000074FE04083A
:201A600001000000000000000000000000000000000000000E000000000000000000000057
:201A800000000000A002050800000000000000000000000000000000AC0205080D000000CF
:201AA00000000000940A002000000000B40205080D00000000000000880A002000000000E6
:201AC000BC0205080700000000000000800A002000000000C80205080700000000000000AC
:201AE000780A002000000000D402050809000000000000006C0A002000000000E0020508D3
:201B00000900000000000000600A002000000000EC0205080900000000000000540A0020B0
:201B200000000000FC0205080900000000000000480A00200000000074FE040801000000A0
:201B4000000000000000000000000000000000000E00000000000000000000000000000077
:201B6000100305080000000000000000000000000000000020030508050000000000000010
:201B80000D7100200000000074FE0408010000000000000000000000000000000000000028
:201BA0000E00000000000000000000000000000028030508000000000000000000000000DF
:201BC000000000002CFE04080000000000000000A80100200400000014FD04080D000000D8
:201BE000E5A60208E80A002000000000600805080D000000BD840208DC0A0020000000006B
:201C0000CC0105080D000000A1840208D00A00200000000034030508080000000000000068
:201C2000C40A002004000000380205080D000000E9830208B80A0020000000003C030508BA
:201C40000900000000000000AC0A002004000000E802050803000000B5AB0208A00A002073
:201C60000000000074FE040801000000000000000000000000000000000000000E000000D7
:201C80000000000000000000000000004403050800000000000000000000000000000000F0
:201CA000540305080D00000000000000000B0020000000005C0305080A0000000000000012
:201CC0001A73002000000000680305080A00000000000000227300200000000070030508A0
:201CE0000A000000000000002A73002000000000780305080800000000000000F40A00206F
:201D00000000000074FE040801000000000000000000000000000000000000000E00000036
:201D2000000000000000000000000000800305080000000000000000000000000000000013
:201D4000940305080D00000000000000180B002000000000A4030508040000005DA90208C7
:201D60000000000000000000AC0305080D000000000000000C0B002000000000C003050893
:201D80000400000039A90208000000000000000074FE0408010000000000000000000000D4
:201DA00000000000000000000E000000000000000000000000000000C8030508000000003D
:201DC000000000000000000000000000DC0305080800000000000000600B00200000000084
:201DE000E80305080800000000000000540B002000000000F4030508080000000000000058
:201E0000480B0020000000000004050808000000000000003C0B0020000000000C040508B2
:201E20000800000000000000300B002000000000180405080800000000000000240B0020BF
:201E40000000000074FE040801000000000000000000000000000000000000000E000000F5
:201E6000000000000000000000000000240405080000000000000000D30800200000000032
:201E8000300405080B00000000000000F40B0020000000003C0405080B000000000000007F
:201EA000E80B002000000000480405080B00000000000000DC0B002000000000540405083F
:201EC0000B00000000000000D00B002000000000600405080B00000000000000C40B002091
:201EE000000000006C0405080B00000000000000B80B002000000000780405080B000000E3
:201F000000000000AC0B002000000000840405080B00000000000000A00B0020000000007F
:201F2000900405080B00000000000000940B0020000000009C040508070000000000000082
:201F40008C0B002000000000A40405080700000000000000840B002000000000B00405089E
:201F60000B00000000000000780B002000000000BC04050808000000000000006C0B002047
:201F80000000000074FE040801000000000000000000000000000000000000000E000000B4
:201FA000000000000000000000000000C80405080000000000000000000000000000000048
:201FC000DC0405080800000000000000300C002000000000E80405080800000000000000AF
:201FE000240C002000000000F40405080800000000000000180C002000000000000505082E
:020000040800F2
:2020000008000000000000000C0C0020000000000C0505080800000000000000000C00202E
:202020000000000074FE040801000000000000000000000000000000000000000E00000013
:20204000000000000000000000000000140505080000000000000000D00800200000000062
:20206000240505080B00000000000000740C00200000000030050508070000000000000036
:202080006C0C0020000000003C0505080700000000000000640C0020000000004805050869
:2020A00007000000000000005C0C002000000000540505080800000000000000500C0020A7
:2020C000000000005C0505080800000000000000440C00200000000064050508070000009D
:2020E000000000003C0C00200000000074FE040801000000000000000000000000000000F9
:20210000000000000E0000000000000000000000000000007005050800000000000000002F
:20212000D0080020000000007C0505080700000000000000E40C002000000000840505086C
:202140000700000000000000DC0C0020000000008C0505080700000000000000D40C0020CB
:2021600000000000940505080800000000000000C80C0020000000009C0505080700000008
:2021800000000000C00C002000000000A40505080700000000000000B80C002000000000B2
:2021A000AC0505080700000000000000B00C002000000000B40505080800000000000000B0
:2021C000A40C002000000000BC05050807000000000000009C0C002000000000C4050508BC
:2021E0000700000000000000940C002000000000CC05050807000000000000008C0C00207B
:2022000000000000D40505080800000000000000800C00200000000074FE040801000000A5
:20222000000000000000000000000000000000000E00000000000000000000000000000090
:20224000000000002D880208EC0C00200B7100202B00000040AC04080A71002000C8010084
:2022600008710020E803D007010000004352415A594245454634465200000000A570002066
:2022800000030100A470002000030100758702084D870208C80D002009870208BD86020842
:2022A000400E0020B58702089D870208F40E002029860208DD8502081412002043880208DA
:2022C00009A90208F0120020298402080000000040130020A58C0208C58A02081C14002012
:2022E0006988020800000000BC14002011890208DD8802084815002099890208E5890208BF
:20230000FC1500205372002001060100AD8802087D8802083C1700204589020881A90208D2
:20232000DC170020158A0208D1A90208A41800204872002001030100DC05050800000000B4
:20234000000000000000000000000000E80505080800000000000000F01900200000000052
:20236000F00505080700000000000000E819002000000000000605080D0000000000000013
:20238000DC190020000000000C06050803000000B5AB0208D01900200000000074FE040815
:2023A00001000000000000000000000000000000000000000E00000000000000000000000E
:2023C000000000001406050800000000000000000000000000000000240605080A00000095
:2023E00000000000D4F90408000000002C0605080A00000000000000B4F904080000000002
:20240000340605080A00000000000000E2720020000000003C0605080A000000000000009E
:20242000FC1900200000000074FE04080100000000000000000000000000000000000000E8
:202440000E0000000000000000000000000000004406050800000000000000000000000017
:20246000000000005006050803000000B5AB0208341A0020000000005C06050803000000AC
:20248000B5AB0208281A0020000000006406050803000000B5AB02081C1A00200000000036
:2024A0006C0605080500000000000000A370002000000000740605080700000000000000D7
:2024C000141A0020000000008006050807000000000000000C1A00200000000074FE040850
:2024E00001000000000000000000000000000000000000000E0000000000000000000000CD
:20250000000000008C06050800000000000000000000000000000000A00605080300000066
:20252000B5AB0208641A002000000000AC06050803000000B5AB0208F80600200000000049
:20254000B406050803000000B5AB0208581A002000000000BC06050803000000B5AB020879
:202560004C1A0020000000003802050803000000B5AB0208401A00200000000074FE040829
:2025800001000000000000000000000000000000000000000E00000000000000000000002C
:2025A00000000000C806050800000000000000000000000000000000D8060508070000004E
:2025C0002DAA0208C01A0020000000005C02050803000000B5AB0208B41A0020000000005A
:2025E000E406050803000000B5AB0208A81A002000000000EC06050803000000B5AB020829
:202600009C1A002000000000F40605080700000011AA0208941A002000000000E40A050848
:2026200003000000B5AB0208881A0020000000000007050803000000B5AB02087C1A002034
:20264000000000000C07050803000000B5AB0208701A00200000000074FE040801000000C4
:20266000000000000000000000000000000000000E0000000000000000000000000000004C
:20268000FD870208CD870208C81A0020918A020800000000541B002099860208758602086A
:2026A000E01B00200000000000000000941C0020698A020849AA0208341D00201807050898
:2026C000000000000000000000000000000000002407050803000000B5AB0208401E0020D7
:2026E000000000002C07050803000000B5AB0208341E002000000000E8EF040803000000D5
:20270000B5AB0208281E0020000000003807050803000000B5AB02081C1E002000000000D6
:202720004407050803000000B5AB0208101E0020000000004C0705080200000065AA02080B
:202740000000000000000000540705080200000065AA020801000000000000006007050881
:202760000200000065AA02080200000000000000000000000E00000000000000000000002E
:20278000000000008270002088136F17010000008470002088136F17000000006C07050850
:2027A000000000000000000000000000000000007C0705080800000000000000201F002022
:2027C00004000000880705080800000000000000141F002000000000E80205080400000003
:2027E0000DA70208000000000000000074FE0408010000000000000000000000000000009C
:20280000000000000E0000000000000000000000000000008070002088136F170100000078
:202820000459002088136F17000000006D850208000000002C1F0020E67500200100000017
:20284000F0AC04080659002001000000FCAC0408FC5800200200000004AD0408EA4E002011
:202860000000000000000000E84E00200000000000000000E64E00200000000000000000AE
:20288000E44E00200000000000000000E24E00200000000000000000E04E00200000000048
:2028A00000000000E401002000000000000000007F7000200200000010AD0408C407050861
:2028C000000000000000000000000000000000007C0705080800000000000000B01F002071
:2028E00004000000880705080800000000000000A41F002000000000E80205080400000052
:202900003D850208000000000000000074FE0408010000000000000000000000000000006C
:20292000000000000E000000000000000000000000000000D40705080000000000000000A1
:202940000000000000000000E40705080D0000005DA80208E01F002004000000F00705083C
:202960000D00000095850208D41F002004000000FC0705080D00000021A80208C81F002018
:20298000000000000808050803000000858C0208BC1F0020080000001408050803000000CD
:2029A000B5AB0208E42200200000000074FE04080100000000000000000000000000000008
:2029C000000000000E0000000000000000000000000000006CFE0408000000000000000073
:2029E00000000000000000004BFC04080400000025A70208000000000000000074FE04082C
:202A000001000000000000000000000000000000000000000E0000000000000000000000A7
:202A200000000000680805080000000000000000000000000000000070D504080D000000BB
:202A40000000000040200020040000007808050808000000000000003420002004000000E5
:202A600084080508080000000000000028200020040000008C0805080800000000000000A0
:202A80001C2000200400000094080508080000000000000010200020040000009C08050820
:202AA00008000000000000000420002004000000A40805080800000000000000F81F0020CE
:202AC00004000000AC0805080800000000000000EC1F00200400000074FE0408010000007B
:202AE000000000000000000000000000000000000E000000000000000000000000000000C8
:202B000055850208000000004C2000200000000000000000C4200020000000000000000041
:202B20006421002002590020040000001CAD040800590020E0150C1700000000FF58002094
:202B400008000000F4A70408FE5800200500000030AD04080000000000000000B42100206D
:202B60000000803F0000000000000000000000000000803F000000000000000000000000D7
:202B8000000000000000000000000000000000000000000000000000010000000000803F75
:202BA0000000000000000000000000000000803F010000000000803F000000000000000096
:202BC00000000000FF00000000000000F08700200800000000000000E087002008000000C8
:202BE000551E0208491D0208D135020800000000451902080D3C0208C91C020809330208E8
:202C0000000000000000000001190208C51D0208091D0208113502080000000019190208E8
:202C20000D3302089D1C02086932020800000000000000000D190208F8B5040805080400E8
:202C40000000000030AD0408F4A704081CAD0408000000000000000024B6040805080A0012
:202C60000000000030AD0408F4A70408FCAB04080000000000000000080000006518020882
:202C8000611802085D180208511802084D1802085918020855180208D9180208CD18020874
:202CA000A5180208B9180208911802087D1802086918020801000000006002401060024040
:202CC0000000000000000000000B000000000000000000000000000000600240286002407D
:202CE0000100000000000000060C000000000000000000000000000000600240406002403D
:202D00000200000000000000100D00000000000000000000000000000060024058600240F8
:202D20000300000000000000160E00000000000000000000000000000060024070600240B8
:202D40000400000000000000200F0000000000000000000000000000006002408860024074
:202D600005000000000000002610000000000000000000000000000000600240A060024034
:202D800006000000000000003011000000000000000000000000000000600240B8600240F0
:202DA0000700000000000000362F000000000000000000000000000000640240106402404B
:202DC000000000000000000000380000000000000000000000000000006402402864024047
:202DE000010000000000000006390000000000000000000000000000006402404064024007
:202E00000200000000000000103A00000000000000000000000000000064024058640240C2
:202E20000300000000000000163B0000000000000000000000000000006402407064024082
:202E40000400000000000000203C000000000000000000000000000000640240886402403E
:202E600005000000000000002644000000000000000000000000000000640240A0640240F7
:202E800006000000000000003045000000000000000000000000000000640240B8640240B3
:202EA0000700000000000000364600000000000000000000000000004C26002000000000FD
:202EC0000000000000000000000000000000000000000000000000000000000000000000F2
:202EE0000000000000000000000000000000000000000000000000000000000000000000D2
:202F00000000000000000000000000000000000000000000000000000000000001000000B0
:202F2000FFFFFFFFFFFFFFFFFFFFFFFFFFFFFFFFFFFFFFFFFFFFFFFFFFFFFFFFFFFFFFFFB1
:202F4000FFFFFFFFFFFFFFFFFFFFFFFFFFFFFFFFFFFFFFFFFFFFFFFFFFFFFFFFFFFFFFFF91
:202F6000FFFFFFFFFFFFFFFFFFFFFFFFFFFFFFFFFFFFFFFFFFFFFFFFFFFFFFFFFFFFFFFF71
:202F8000FFFFFFFFFFFFFFFFFFFFFFFFFFFFFFFFFFFFFFFFFFFFFFFFFFFFFFFFFFFFFFFF51
:020000040800F2
:20400000ABBE070010020000003E000B02010000A310D5069031BD5EEA8B2CB859E5882722
:20402000B354E08122AE4FDB7C1DA94AD67718A445D172139F40CC6D0E9A3BC768099536F0
:20404000C263000000000042001A02000000000000000000000000000000000000000000DD
:204060000000000000000000000000000000000000004352415A59424545463446520000D9
:204080000000000000000001000A002700000020030000390003020100000000000000008C
:2040A000000000000000000000000000000000000000000000000000000000000000000000
:2040C0000000000000000000000000019C002500000001000C0C010000000000010C240CC7
:2040E0000101000000000124300C010200000000000000000000000000000000000000005A
:2041000000000000000000000000000000000000000000000000000000000000000000009F
:2041200000000000000000000000000000000000000000000000000000000000000000007F
:2041400000000000000000000000000000000000000000000000000000000000000000005F
:2041600000000000000000001200F6010200000000000100000000000000760015000000A8
:2041800000000000000000000000000000000000000000000000000000000000000000001F
:2041A0000000000000000000000000000000000000000000000000000000000000000000FF
:2041C0000000000000000000000000000000000000000000000000000000000000000000DF
:2041E0000000000000000000000000000000000066002A00000000000000E803D007DC058C
:2042000064FF00000000E803D007DC0564FF00000000E803D007DC0564FF00000000E80344
:20422000D007DC0564FF00000000E803D007DC0564FF00000000E803D007DC0564FF000057
:204240000000E803D007DC0564FF00000000E803D007DC0564FF16002C000000E803D0074E
:20426000E803D007E803D007E803D0072A002B000000001E001E001E0005011E011E011EE7
:20428000011E011E011E011E011E011E011E011E011E011E011E1200190200000800000094
:2042A00000000000001F03007E00290001000000243000000101000C00001E02243000005E
:2042C0000000000000000000000000000000000000000000000000000000000000000000DE
:2042E0000000000000000000000000000000000000000000000000000000000000000000BE
:2043000000000000000000000000000000000000000000000000000000000000000000009D
:204320000000000000000900140000000301000800100001000005160028000100000000FF
:20434000010000000000000000000000001600230000000A00000000000000000000000019
:204360000000000C00F80102000101F40119000E0016000000C4090000B40128280C00051F
:204380000001002000030100007600F50103003A09EA00CD004E00CE00EA00770999098ADD
:2043A000095809EA0020094009EA00EA00EA00EA00EA00EA00EA00EA0029096109EA00EA77
:2043C00000EA00EA00EA00EA000A09EA00EA00EA00EA00EA00EA00EA00EA00EA00EA00EA14
:2043E00000EA00EA00980864001401000A010A39011428A60700008000FFFFFFFF460014C2
:20440000002600000000000000000115005802D903C50316000B0002002D1D1E1E64010153
:2044200000000001000A01290022001F0002000000000000010000000500000102030000F8
:2044400000000000000000000000000A0005020000000000001000030100000301010049E9
:20446000160000000009001302000000000072000C00010032000064646400000046464659
:204480001E00B00400643200006464640000004646460A0072060064320000646464000072
:2044A000004646460A00720600643200006464640000004646460A00720600643200006498
:2044C00064640000004646460A00720600643200006464640000004646460A007206006446
:2044E00026010E0005000000640000000000556455008C00506455008C00786400008C0087
:2045000032324B0000002800000000000028F401900101374B000000FA008813640000009A
:20452000320090015E01F40100000A640015C8009600000000050F0100000B0214004B0002
:204540003200005A1400000064000000A0002E2D19003C0032321B003C00412D00003C00A2
:2045600032324B0000002800000000000028F401900101374B000000FA008813640000003A
:20458000320090015E01F40100000A640000C8009600C80000050F0100000B0014004B00F1
:2045A0003200005A1400000064000000A0002E2D19003C0032321B003C00412D00003C0042
:2045C00032324B0000002800000000000028F401900101374B000000FA00881364000000DA
:2045E000320090015E01F40100000A640000C8009600C80000050F0100000B0014004B0091
:204600003200005A14000A0013000000000044220A0001010000000000000A000001000060
:20462000970400000900020100006E0A01070009020000000B000102000000000000020B2D
:20464000000002000000000000000E001B02000006000000E80300000E0001000200E80340
:204660006400040A00010B0019000000010128010024003700000020003200C800D0079696
:2046800000140032002800B00440060005500014000F0008010B001E000000000001000007
:2046A000FA001B0000000000000000000000000000000000000000000000000000000000E5
:2046C0000000000000000000000000000000000000000000000000000000000000000000DA
:2046E0000000000000000000000000000000000000000000000000000000000000000000BA
:20470000000000000000000000000000000000000000000000000000000000000000000099
:20472000000000000000000000000000FFFF000000FF1E0000FF3C0000FF5A0000FF780053
:2047400000FF960000FFB40000FFD20000FFF00000FF0E0100FF2C0100FF4A0100FF0000CE
:20476000000000000000010B020D0A03050B030D0A030A0B040D0A03080B040D0A03070B6E
:20478000030D0A03090B020D0A03060A010000020306000000000310000008000E02000085
:2047A000000017002F0000004D6F62756C61203600000000000000000014001A0000007E51
:2047C00005EA05B4053200E803D00700000800180200000000110017020000141F2C00008D
:2047E0000000000000001200020000000000000000000000000000000F0008020100151660
:20480000172D2E2F2324250C00F70100003F010000000010000A02000000004A01B400D656
:204820000100000700030000000086000400000000000000000000000000000000000000E3
:20484000000000000000000000000000000000000000000000000000000000000000000058
:20486000000000000000000000000000000000000000000000000000000000000000000038
:20488000000000000000000000000000000000000000000000000000000000000000000018
:2048A000000000000000000000000000000000002A000D000000010014050405000000009E
:2048C000000504050000000801050405000000001E0504050000640052000A00F9010000CD
:2048E0003D000000320018000200010203000405060700000000220001006400DC051A048D
:204900006C07020213002000750343080E0000010000000102001E0006000100E00107000B
:2049200000002A26272800000000E8032E04D007E8030E000700FB010000130F00FC0100C9
:204940000012191A000000000000160034000000DC053200000000000000000000000104B0
:204960000E001102000000000000010101010A0012020100FFFFFFFF1300120002000002CE
:2049800000010000054334465200002700FD01000019120000000000000000001A13000085
:2049A00000000000000000000000000000000000000026000A000400003001000000000092
:2049C0006400000000000000000000000000020000019E077D0046320900020200000200C7
:2049E0000009000C020000012C020F00FE01000001200100012100000100001C19000000E9
:204A0000FFFFFFFFFFFFFFFFFFFFFFFFFFFFFFFFFFFFFFFFFFFFFFFFFFFFFFFFFFFFFFFFB6
:204A2000FFFFFFFFFFFFFFFFFFFFFFFFFFFFFFFFFFFFFFFFFFFFFFFFFFFFFFFFFFFFFFFF96
:204A4000FFFFFFFFFFFFFFFFFFFFFFFFFFFFFFFFFFFFFFFFFFFFFFFFFFFFFFFFFFFFFFFF76
:204A6000FFFFFFFFFFFFFFFFFFFFFFFFFFFFFFFFFFFFFFFFFFFFFFFFFFFFFFFFFFFFFFFF56
:020000040800F2
:020000040800F2
:20800000704700BF70B50C4C23689BB15A68821A002A0FDB0546002603E05A68AA1A002A20
:2080200008DB99681E731A682160184690472368002BF2D170BD00BFB0260020436A8269A0
:20804000D154436A0169C26B01338B4228BF00234362DAB1EFF31183502282F31288C26B58
:208060001168C9070ED470B45468FCB9D0E909518D4211D1012280F86020DBB283F31188C5
:2080800070BC7047DBB283F311887047C26DD36843F08003D360704786690E44D6600ED942
:2080A000691A51608562002180F86010116841F00101DBB2116083F3118870BC7047056992
:2080C000691A51608462EEE7034610B4846BD968406954B11A6D8C1A013A005D5DF8044B5D
:2080E00008BF0A46C0B21A6570471A6A805C01328A4228BF2246C0B21A625DF8044B7047CA
:20810000C36B13B190F860007047D0E90903181AB0FA80F040097047D0E9091203699142AA
:2081200038BFC9188A1AC16B013B19B149680A449A4201D2981A704700207047836B43B1C1
:20814000026D5B689A4291BF981AC0689B1AC0187047D0E907239A422FBFD01AC06880184C
:20816000C01A70470A4B30B503F10C0493F900205D78072AC8BF143A81180433CD7213F88F
:20818000025C855413F8012C8A759C42EED130BD3083040803682DE9F0415D6A1DB12B4670
:2081A000BDE8F0411847002A174611DD04460E460F4400E023689B68204698470028F9D080
:2081C000236816F8011B1B6820469847BE42F1D1BDE8F08103681B69184700BF00233D22BB
:2081E000027043708370C370704700BF90ED057A90ED004AD0ED066AD0ED014AD0ED047A8B
:2082000090ED035AD0ED025AA4EE007AB0EE406AB0EE470AB0EE667AA4EE867A67EEC07A89
:20822000A5EE407AE5EE867A80ED057AC0ED067A704700BFD0ED057A90ED013AD0ED003AA4
:20824000D0ED064A90ED024A90ED077A90ED035A90ED086AD0ED045AC0ED067AF0EE406AB1
:2082600027EE830AC0ED056AA3EEA60A80ED087AA4EE240AA5EE470AA5EEC60A80ED070A8B
:20828000704700BFD0ED007A90ED017A30EE670AE7EE007AB0EE670AC0ED007A704700BFAF
:2082A000704700BF2DE9F04714461D4606464FF47A720023204629463EF080F94D4BDFF8B5
:2082C00050814D4A4D4F034488FB03101844D91782FB032CC1EB601088FB002887FB032752
:2082E0009C44474AC1EBEC2CC0EB001E82FB0C29A3EB8E0E1F44434A86F806E0C1EB274736
:208300004FEAEC7E08EB000ACEEBA90E82FB07824FEAE0780EEB4E0EC8EB6A18ACEBCE0CBB
:20832000C8EB0818DFF8ECE086F804C0A0EB880070718EFB0303F817C0EBE21240F2B5501D
:2083400000FB1272C1EBE353B2F5896F4FEA83073FDA40F2DA239A4243DCB2F5B77FB4BFC7
:208360004FF0000E4FF0010E4FEA4E08264B08EB0E0103EBC1031FFA8EFC588C234908EBC8
:208380000E0301EBC30116310B2301E031F8020D90421BDD013BF9D11B4BC64403EBCE0E84
:2083A0000123BEF80C00B37007F5FA670132121ABC44F270A6F800C0204629464FF47A7234
:2083C00000233EF0FBF83281BDE8F0870133DBB2E9E74FF0030CE64640F296504FF006081A
:2083E000CCE74FF0020CE64640F229404FF00408C4E700BF80BC92C7C5B3A29107452EC285
:20840000ABAAAA2A73B06D16308304083C83040889888888792D031130B403888278174D5B
:20842000C478A3F5FA6303F0030101EB4101013A02EB810205EB4202611E9589027940F2BD
:20844000B5549B0804FB03132B4403EB430302EBC303427984790A490089C3EB031302EBC0
:2084600083032144C3EB031301EB83034FF47A720021C2FB030130BC704700BF30830408A9
:2084800080436D380028F0B403DA2D230B7040420131092804464FF0010307DD03EB830336
:2084A0005B00B0FBF3F2092AF8D883B10F48A0FB0326B4FBF3F2092A02F1570C02F1300738
:2084C00009DD03FB1244F30801F801CBEFD100230B70F0BC704703FB1244F30801F8017B1D
:2084E000E5D100230B70F0BC704700BFCDCCCCCC884270B44FF0010442D301FB04F4B0FBEF
:20850000F4F58D42F9D2ECB142BB092D04FB150005F1570605F130020EDDB4FBF1F403F8FF
:20852000016B7CB1B0FBF4F5092D04FB150005F1570605F13002F0DCB4FBF1F403F8012BC2
:20854000002CEFD100221A7070BC704703F8016BB4FBF1F4002CF5D0B0FBF4F5092D04FBEB
:20856000150005F1370605F13002EFDCB4FBF1F403F8012B002CEFD100221A7070BC70478A
:208580000546002AEAD1C0E70A44914215D030B40139551E41F2210211F8014F082380EA29
:2085A000042004044CBF82EA40004000013B80B2F7D18D42F0D130BC7047704703685A1C97
:2085C00002601970704700BF2DE9F047089C2578002B804689460CBF4FF0200A4FF0300A3F
:2085E000661C25B3002A26DD334601E0024698B113F8011B501E0029F8D1971E60B13D4639
:20860000013D51464046C8476B1C002BF8DC257827EAE770013045B1041B29464046C8471B
:20862000301916F8015B002DF7D1BDE8F087002A03DC2846F9E70020EEE7571EDFE700BF30
:2086400001212C220223017042708370704700BFF0B400250E4E00F1FF3C2F46142165B1E8
:2086600003788B420BD003460CEB050403E013F8012F8A4203D0A342F9D1C155013701359E
:208680000B2D02D016F8011FE9E7F0BC704700BF9C8304080C4AF0B4002302F10807172629
:2086A0001625152403EB4303C118BA42C4544D708E7006D092F9043054799579D679043275
:2086C000F0E7F0BC704700BFA883040809211F220323017042728372704700BF01232021E4
:2086E000212241704271037203700371704700BF06224FF47A730270436070470120704705
:20870000CB79002B66D1F0B48E7A4F7A4D7B0C7CCB7CDFED316A9FED317A320202F470620D
:208720003A43CF7A84B0360946EA07164FEA052C0CF47067ADF8026091F80CC08E7BADF868
:2087400000202D094CEA070C45EA0615260206F47067ADF804C0CE7B91F811C0ADF8065030
:2087600024093E438D7C0F7DADF8086044EA0C111C0204F470641B09254343EA07136FF042
:2087800001046F46ADF80C50ADF80E30ADF80A10C7F10E06E41B0DF1020304AD01E033F8F1
:2087A000022BC2F30A0107EE901AF8EEE77AB0EE476AA7EEA66A120504EB030148BFF118D8
:2087C000FCEEC67AAB4217EE902A4252E7D104B0F0BC7047704700BFABAA2A3F00804C441C
:2087E000F0B4174C2379591C01F03F01E5184B1C21447E2603F03F021B232E7222710B72A1
:20880000C61D7D2704E0A518B042DAB2297213D010F8011BA1F17D05531C012D03F03F032A
:20882000F1D82244E51881F020010133B042177203F03F022972EBD12271F0BC704700BF8B
:20884000B0260020F0B58F7A8D79CC7ACE790A7CDFED5F3A4B7C4FEA072E0EF4706E45EAB2
:208860000E053F0107F4706C04EE105A4FEA042E0D7A240104F470670EF4706E46EA0C046C
:2088800004EE904A45EA0E0405EE104A4C7AF8EEE44A3C4305EE904A16020C7B120102F4B0
:2088A000706506F470664A7BB8EEC55A64EEA34A34432A4306EE104AF8EEE55A25EE235A63
:2088C000FCEEE44A06EE902A1D028A7B1B0185B003F4706405F47065CB7BB8EEC66A14EEA6
:2088E000901A65EEA35ABCEEC55A2A4307EE102AB8EEC44AF8EEE66A26EE236AFCEEE55A65
:20890000ADF8021015EE101A234307EE903AB8EEC77A24EE234A66EEA36ABCEEC66AADF808
:20892000041015EE901AF8EEE77A27EE237ABCEEC44AFCEEE66AADF8061016EE101A67EE4D
:20894000A37A14EE103ABCEEC77AADF8081016EE901A9BB2FCEEE77AADF80A1017EE101AD2
:208960001A46ADF80C10A2F5487217EE901A0DF10204B2F5AF6FADF80E10ADF8003021460E
:2089800004AD08D8A9420CD031F8022BA2F54872B2F5AF6FF6D90F4B1B78122B0CD005B089
:2089A000F0BD821E0E3001E034F8023B22F8023F9042F9D105B0F0BD074A0849B2F84830C5
:2089C00001339BB2A2F848300B8005B0F0BD00BFABAA2A3F81880020B0260020848800204F
:2089E000054A92F84A303F2B05D8D118013381F84C0082F84A307047B0260020014BD3F843
:208A00008C301847B02600204FF4006383827047012380F854307047F0B4037C45690268D1
:208A20001F2B37D9203B2021546899400C4223D010249C40D160D4605168D940CE074ED42C
:208A4000EFF31183502282F31288EA6B1168C90709D45468002C52D1D5E909618E4243D18D
:208A6000012285F86020DBB283F31188037C02681F2B194614D9203B08215068994008425C
:208A800000D0D1600421506801FA03F3184223D1F0BC7047202416689C4026420FD1194611
:208AA000082310688B40184200D093600423106803FA01F10842EBD09160F0BC7047102113
:208AC0009940946091601168D940CC07B8D5012101FA03F39360B3E7D360F0BC704701218E
:208AE00001FA03F3D360ABE7AF690F44D7600ED82E69711A5160AC62002185F860101168D0
:208B000041F00101DBB2116083F31188AEE7711A5160AE62F0E700BF70B4037C01681F2B48
:208B200026D9A3F1200520224C68AA40224214BF01220022D2B142691B481C4C02EB4202F7
:208B400000EB4212257854682068CDB9E56856892C6824F001042C6082891F2B22EA0602A1
:208B600082811AD8202202FA03F38B6070BC704720220C689A40224214BF01220022D9E732
:208B8000A469226822F001022260828922F480721204120C1F2B8281E4D9A3F1200220235D
:208BA0009340CB6070BC704798A8002094A8002010B5027C01681F2A4FF020030ED94C6826
:208BC000203A93401C4208D00B4A406800241470026822F001020260CB6010BD0C6893406D
:208BE0001C42FAD0044A406800241470026822F0010202608B60F0E7B86300202DE9F04784
:208C00008C4A8D4B12781C78D207064648D58B4D012C00F091801ED3022C40F09B80884905
:208C2000884A09881288884F914201D901241C70EB7AFBB12B89EBB1844B1B78D3B131F09A
:208C4000B7FC002800F0E2802B7B83422CBF012300233B700FE0DFF8E8C17B4F7C4CBCF8EA
:208C600000002288697B521A8242DFDAEB7A0024002BDFD13B782A79632A07D87549022C6B
:208C8000087800F0B880002840F0A0807249AA7A9C4238BF1C460C70002A44D1BDE8F087C7
:208CA000DFF89CC1654DBCF80000BCF8021095F803E06A4F411A0029A4F10302B8BF49420B
:208CC000704597F80080D2B211D32F7887420ED3012A45D9B8F1020F9AD15C48604A0078E3
:208CE00090800229CCBF00210121D18090E7B0EB4E0FEDDC012A40F28C800229EADC032461
:208D0000514F524852494F4A1C70B8F1020F4FF000033C7003700B80138089D1504A01210A
:208D20009380D18084E7012C6BD0022CB6D10720BDE8F04732F004BC424A41491288687BCF
:208D40000988121A914207DD414A12888A423CBF00241C703C4F6BE702241C703A4F67E79D
:208D60000229B7DC95F800E090FBFEFE0EF1010EBEF1080FDFF8D4A0AA786978DFF8C490F4
:208D8000334C314FA8BF4FF0080E8AF800E01FFA8EFA11FB0AF112FB0AF2DFF8B8A0A9F835
:208DA000001092B200214FF06409B8F1020F228039701970CAF804108AF801907FF452AFA7
:208DC000274A0121A2F804E0D18048E74868301A244EB042C8BF4A703FF758AFC2F164020D
:208DE000214E00FB02F086FB0062C017A0EBA250643048704AE70028E8D101274E600F702D
:208E0000ECE70820BDE8F04732F09ABB02233B7031E7032C7FF471AFB8F1020F9AD10B4AE0
:208E20000F4B12789A800229CCBF00210121D980054FFDE60E5700209C8100205057002022
:208E400034570020A0810020FC8100203A5700209E810020A4810020285A00208188002089
:208E6000848800207F9698006BCA5F6B70B544880546C4F30B04224608460E4600213DF0C0
:208E80005BFE2B69094A934202D3094A934205D35BB121463046BDE870401847224630466D
:208EA0001946BDE870403DF0E1BD70BDF00600087008000838B51D4B1B78044600F125053B
:208EC00093B104221A4920303DF074FE2846142218493DF06FFE012384F83A30164B1B7839
:208EE00073B984F83B3038BD2846142213493DF061FE012384F83A300F4B1B78002BF0D0FC
:208F00000F4B186859689A68DD68E56020606160A260DD69186959699A69A2610123E561EE
:208F20002061616184F83B3038BD00BFFD370020FE37002003380020DC37002094BE0408BE
:208F4000DD37002030B50446C06D21718389A26823F400531B041B0C838185B06379009282
:208F600013F0040F4FEA03324FEA03230CBF00254FF4805503F4806302F40052ADF80450EB
:208F8000ADF80830002511F00103ADF80620ADF80C501CD1ADF80A3008238A07694648BFC0
:208FA000ADF80A301BF048FB637913F0080FE36D9A8A05BF22F00802120442F00802120CCA
:208FC0009A829A8942F400529A8105B030BD0423ADF80A300C23E0E730B50446C06DA160B4
:208FE000838923F400531B041B0C8381637985B013F0040F009108BF0025217918BF4FF459
:209000008055ADF804501A0300251B0203F48063ADF80A50ADF80C50CD07ADF8083002F4A2
:20902000005244BF0423ADF80A30ADF806204CBF0C2308238A07694648BFADF80A301BF074
:20904000FBFA637913F0080FE36D9A8A05BF22F00802120442F00802120C9A829A8942F4EC
:2090600000529A8105B030BD38B52C2200213DF063FD03466421222040F2DC521873197470
:2090800040F2022013215A82202240F21A4540F26C74188399760E2002211A7701229D82B9
:2090A000DC8240F2753540F6430483F8220083F82A109A7383F82920DD831C84194602482D
:2090C000BDE838400FF068B8A4BE040840F0800038F0AEBB30F0C6BF38B5224C94F8923057
:2090E00094F893201844C0B2904284F8920005D3801AC0B29042FBD284F89200362030F07C
:20910000C9FF94F892502544232095F8983303EB4303234493F89410FFF7DCFF95F8983322
:2091200003EB43032344242093F89510FFF7D2FF95F8983303EB43032344252093F89610F0
:20914000FFF7C8FF95F898130A20FFF7C3FF94F8CC33082B00D038BD3A20BDE8384030F01E
:2091600099BF00BFB0260020022810B504460BD8084B0949094A00EB400003EB4013184604
:209180000B60147028F038FF601CC0B2BDE8104036F0F2BB1C710020145C00205CA500207D
:2091A00038B53C4B3C481A785B783C493C4C3D4D02EB420203EBC30301EB430300EB421265
:2091C0002B6022602BF0F2FE0021302236483DF0B3FC206828F010FF344B03F1780102E02D
:2091E00006338B4253D01A78002AF9D19C78D878844202D358790028F2D02D492D4B0C7993
:209200002D492E480A70C822642111FB042100222B4CDA61C3E90112C3E90322C3E9052211
:2092200083F8202083F8212004600EF049F8254B9FED255AB3F8D02393F8D2339FED236A52
:2092400006EE902AF8EEE66A214AC5EE265A1188507907EE101A1F490B60538812791E496B
:2092600007EE903AB8EEC77AF8EEE77A1B4BC1ED005A27EE067A67EE867A18725A7283EDE3
:20928000017AC3ED007ABDE8384022F051BA0122B3E700BF5CA500201C71002066720020AD
:2092A000145C0020185C002000810020303B0020CC7600201057002040230020504300203F
:2092C0003E350020B0260020C0C9FB4817B7D138A8400020947B0020987B00206C7B0020F1
:2092E000074B1B7853B9074B00F1200250F8041B43F8041B9042F9D101207047002070470C
:20930000DC370020DD37002010B5154C94F80E34002B144B14BF012200221A700BD00422C5
:2093200004F57D7110483DF045FC142204F2F9310E483DF03FFC94F80F34002B0C4B14BF48
:20934000012200221A7009D00A4B0B4A03F1200153F8040B42F8040B8B42F9D110BD00BFE0
:20936000B0260020FD370020FE37002003380020DC370020842A0020DD3700200B4B1B78D5
:2093800010B58BB90A4B0B4A03F1200153F8040B42F8040B8B42F9D1074B012483F80F4486
:2093A000FFF7B2FF204610BD0020FCE7DC370020DD370020842A0020B026002038B50C4B61
:2093C0001B789BB90B4D0C49042205F57D703DF0F1FB01241422094905F2F9303DF0EAFBF4
:2093E00085F80E44FFF790FF204638BD0020FCE7FD370020B0260020FE37002003380020C1
:20940000F0B50C2934D8DFE801F08A3333335F333333343333330700048C9689B2F802C0A4
:209420001788744D24F480542404240C0484038C8488818B23F4005321F4E6411B04090487
:209440001B0C46EA0C06090C43EA063341EA0721A8429BB2A4B289B200F09E8005F5806520
:20946000A84200F0998092688480818302640384F0BD048C9589B2F802E017885D4E24F4C1
:2094800080742404240C0484038CB0F804C0818B23F400731B0421F0730145EA0E041B0C5B
:2094A000090443EA0423090CB0429BB21FFA8CF541EA07015BD0504CA04258D0926885805A
:2094C0008183C2630384F0BD048C9589B2F802E0B2F800C0474E24F010042404240C0484EE
:2094E000038C8788018B23F0200321F4E6411B0409041B0C45EA0E04090C43EA041341EAB8
:209500000C21B0429BB2BFB289B25BD03A4CA04258D092688780018382630384F0BD048C4A
:209520009589B2F802C01788324E24F001042404240C0484018C8488038B21F0020123F03B
:20954000730309041B04090C45EA0C051B0CB04241EA0501A4B243EA070324D0264DA842EC
:2095600021D092688480038342630184F0BDD489168A578A23F4006343EA04234FF6FF347B
:209580001C40938825F440553E4344EA032345EA06149BB2A5B291E7158A24F4804444EAC3
:2095A0008514A4B25FE7D689158A578A21F008013143968824F4407421F004013D43314315
:2095C0002C43CEE7D489168AB2F812C023F0800343EA04134FF6BF741C40938827F4406565
:2095E00046EA0C0644EA031345EA86049BB2A7B28FE700BF00000140000401402DE9F84F6E
:20960000C8220021DFF8108279487A4C7A4E7B4FDFF80892DFF808A23DF08EFA7849794894
:20962000DFF800C2DFF800E208F5A27245462B688B4200F0B280B3F1804F00F0B580A3423D
:2096400000F0B980B34200F0C480BB4200F0C380634500F0C280734500F0C1804B4500F045
:20966000C080534500F0C080DFF8C0B15B4508BF4FF4802300F092802435AA42D7D1624FAD
:20968000624E4FF0030A4FF0020998F80630002B7CD098F804301C09013C032C03F00F03ED
:2096A00074D837F8140040FA03F2D2076ED54FF0010B0BFA03F3013B18403CF0CFFF544B5D
:2096C0001B5D184416EBC00460D056F83030514898F8081003F13F4202F57E02920A825C6C
:2096E00002F01F005209032A0BFA00FB6BD0042A63D0022A04D14348426C4BEA020242641C
:20970000B4F804C0BCFA8CF2C2F11F0292B2D00803EB800002F00702046A92004FF00F0EF0
:209720000EFA02FE24EA0E040462046A01FA02F2224302624FF0010E00220EFA02F434EAE9
:209740000C0120D15000D3F800B00AFA00F1C9430BEA010BC3F800B0D3F800B009FA00F065
:2097600040EA0B00186098680840986098689860586820EA04045C6058685860D86801407D
:20978000D960D968D9600132102AD6D108F1240845457FF47AAFBDE8F88F0123D0F844B0AB
:2097A00043EA0B03436467E70123D0F840B043EA0B03036460E70223F7E71248026B4BEAB5
:2097C000020202639CE70F48026C4BEA0202026496E70423E9E70823E7E71023E5E720238A
:2097E000E3E74FF48033D9E74FF40033D6E700BF709900200004004000080040000C0040F6
:2098000000000140003802400CB804089888002014B8040850B60408C8B604080040014088
:209820000044014000100040001400400048014000B9704703682DE9F04F03F13F4404F5D6
:209840007E04534EA40A0125345D04F01F066409032C05FA06F500F09580042C00F08D809F
:20986000022C45D08588B5FA85F0C0F11F0080B2C40803EB840400F00700266A80000F27F3
:20988000874026EA07062662276A01F003068240701E3A4301282262C1F3810EC1F3001848
:2098A0004FF000024FEA51114FF0010C25D94FF0030E0CFA02F0A84315D150001F680EFA8A
:2098C00000F4E44327401F60D3F8008006FA00F747EA08071F60DF683C40DC60DC6801FA48
:2098E00000F02043D8600132102AE2D1BDE8F08F284C666C35436564B4E74FF003090CFA26
:2099000002F737EA050033D15000D3F800A009FA00F4E4430AEA040AC3F800A0D3F800B073
:2099200006FA00FA4AEA0B0AC3F800A0D3F808A004EA0A0AC3F808A0D3F808B00EFA00FA2C
:209940004AEA0B0AC3F808A0D3F804A02AEA07075F60D3F804A008FA02F747EA0A075F60A0
:20996000DF683C40DC60DC6801FA00F02043D8600132102AC3D1BDE8F08F064C266B35439E
:2099800025636FE7034C266C354325646AE700BF50B604080038024003682DE9F04F03F1B7
:2099A0003F4404F57E04534EA40A0125345D04F01F066409032C05FA06F500F09580042CBF
:2099C00000F08D80022C46D08588B5FA85F0C0F11F0080B2C40803EB840400F00700266A4A
:2099E00080000F27874026EA07062662276A01F0030602FA00F0721E3843012AC1F3810E55
:209A0000C1F3001820624FEA51114FF000024FF0010C25D94FF0030E0CFA02F0A84315D1B9
:209A200050001F680EFA00F4E44327401F60D3F8008006FA00F747EA08071F60DF683C4082
:209A4000DC60DC6801FA00F02043D8600132102AE2D1BDE8F08F284C666C35436564B3E79B
:209A60004FF003090CFA02F737EA050033D15000D3F800A009FA00F4E4430AEA040AC3F8DC
:209A800000A0D3F800B006FA00FA4AEA0B0AC3F800A0D3F808A004EA0A0AC3F808A0D3F86A
:209AA00008B00EFA00FA4AEA0B0AC3F808A0D3F804A02AEA07075F60D3F804A008FA02F786
:209AC00047EA0A075F60DF683C40DC60DC6801FA00F02043D8600132102AC3D1B9E7064CC9
:209AE000266B354325636FE7034C266C354325646AE700BF50B604080038024010B504092F
:209B0000013C032C17D80E4B33F8142000F00F0042FA00F313F001030FD0012303FA00F00D
:209B2000013810403CF09AFD064A074B125D104403EBC00010BD002010BD184610BD00BF22
:209B40000CB8040814B80408988800202DE9F843304D2B8AB5F80C8018EA030827D02E4EE1
:209B60004FF00047B8FA88F327FA03F2D24391B21B3B08EA02082982042B15D8DFE803F0F1
:209B8000372D23190300D6F8C430002B39D1EB6A1FFA83F9D6F8C04034B12368204649460E
:209BA00098476468002CF8D1B8F1000FDAD1BDE8F883D6F8A000696B036889B29847B8F112
:209BC000000FCFD1F3E7D6F8A400A96B036889B29847B8F1000FC5D1E9E7D6F8A800E96B09
:209BE000036889B29847B8F1000FBBD1DFE7D6F8AC00296C036889B29847B8F1000FB1D108
:209C0000D5E703F1FF3900231FFA89F9C6F8C430C0E700BF00400140709900202DE9F8438B
:209C20002F4D2B8AB5F80C8018EA030827D02D4E4FF00047B8FA88F327FA03F2D24391B21A
:209C40001B3B08EA02082982042B15D8DFE803F0352B22190300D6F89C30002B37D1EB6A71
:209C60001FFA83F9D6F8984034B123682046494698476468002CF8D1B8F1000FDAD1BDE89C
:209C8000F883B06F696B036889B29847B8F1000FD0D1F4E7F06FA96B036889B29847B8F1FC
:209CA000000FC7D1EBE7D6F88000E96B036889B29847B8F1000FBDD1E1E7D6F88400296C0F
:209CC000036889B29847B8F1000FB3D1D7E703F1FF3900231FFA89F9C6F89C30C2E700BF29
:209CE000000C0040709900202DE9F8432C4D2B8AB5F80C8018EA030825D02A4E4FF0004737
:209D0000B8FA88F327FA03F2D24391B21B3B08EA02082982042B13D8DFE803F03229201745
:209D20000300736F002B34D1EB6A1FFA83F9346F34B123682046494698476468002CF8D17C
:209D4000B8F1000FDCD1BDE8F883306D696B036889B29847B8F1000FD2D1F4E7706DA96B61
:209D6000036889B29847B8F1000FC9D1EBE7B06DE96B036889B29847B8F1000FC0D1E2E732
:209D8000F06D296C036889B29847B8F1000FB7D1D9E703F1FF3900231FFA89F97367C6E7DB
:209DA00000080040709900202DE9F8434FF080452B8AB5F80C8018EA030825D0294E4FF037
:209DC0000047B8FA88F327FA03F2D24391B21B3B08EA02082982042B13D8DFE803F0322975
:209DE00020170300F36C002B34D1EB6A1FFA83F9B46C34B123682046494698476468002C54
:209E0000F8D1B8F1000FDCD1BDE8F883B06A696B036889B29847B8F1000FD2D1F4E7F06AF1
:209E2000A96B036889B29847B8F1000FC9D1EBE7306BE96B036889B29847B8F1000FC0D1A8
:209E4000E2E7706B296C036889B29847B8F1000FB7D1D9E703F1FF3900231FFA89F9F36403
:209E6000C6E700BF709900202DE9F8432C4D2B8AB5F80C8018EA030825D02A4E4FF0004795
:209E8000B8FA88F327FA03F2D24391B21B3B08EA02082982042B13D8DFE803F032292017C4
:209EA0000300736A002B34D1EB6A1FFA83F9346A34B123682046494698476468002CF8D105
:209EC000B8F1000FDCD1BDE8F8833068696B036889B29847B8F1000FD2D1F4E77068A96BEA
:209EE000036889B29847B8F1000FC9D1EBE7B068E96B036889B29847B8F1000FC0D1E2E7B6
:209F0000F068296C036889B29847B8F1000FB7D1D9E703F1FF3900231FFA89F97362C6E763
:209F200000000140709900202DE9F8432C4D2B8AB5F80C8018EA030825D02A4E4FF00047FF
:209F4000B8FA88F327FA03F2D24391B21B3B08EA02082982042B13D8DFE803F03229201703
:209F60000300736A002B34D1EB6A1FFA83F9346A34B123682046494698476468002CF8D144
:209F8000B8F1000FDCD1BDE8F8833068696B036889B29847B8F1000FD2D1F4E77068A96B29
:209FA000036889B29847B8F1000FC9D1EBE7B068E96B036889B29847B8F1000FC0D1E2E7F5
:209FC000F068296C036889B29847B8F1000FB7D1D9E703F1FF3900231FFA89F97362C6E7A3
:209FE0000000014070990020F0B50668424CB30AA34272D008D8B3F5801F6BD0013CA342EE
:020000040800F2
:20A000005FD17027022507E03C4CA3425FD01034A34256D1C02704254379B6F80CE00220F7
:20A0200023FA00F4A0401FFA80FCA8002346441903EB4403324C002952D04CEA0E0C03F1EA
:20A04000040E44F8231044F82E20A6F80CC0E319EFF31181502282F31288421904EBC2028C
:20A06000D2F810C0BCF1000F03D044F807C013690433421904EBC202576917B11F60536930
:20A080000433421904EBC202976917B11F6093690433421904EBC202D76917B11F60D36930
:20A0A00004330027CAB21F6082F31188284404EBC004236A33B9B38923F001031B041B0C08
:20A0C000B381F0BDB38943F00103B381F0BD20270025A1E7482701259EE7982703259BE7D4
:20A0E0002EEA0C0C03F1040EA6F80CC044F8231044F82E20ABE700BF030010004000100013
:20A100007099002030B50368584C594D18882468B4FBF2F20139013AAB4294B283B089B2A7
:20A1200082B211D0534883420ED0B3F1804F0BD0A0F58030834207D000F58060834203D030
:20A1400000F58060834202D122F0700292B24A48834269D000F58060834241D022F44072C7
:20A1600000F56C4092B283421A80D9621C8564D10122002119869A821A883D4842F001022F
:20A1800083421A8036D0B3F1804F60D03B4A93425FD002F5806293425DD002F580629342A5
:20A1A0005BD002F58062934259D002F58062934257D002F59632934255D002F58062934261
:20A1C00017D002F58062934208BF092112D002A84FF0012340F8043D36F07EFC03B030BD51
:20A1E00001201A80D9621C8598821A8802431A80C9E70821224B03EBC10100224C798DF8CB
:20A200000440012301A88DF805308DF807308DF8062036F061FC1B2CE0D11A4B019301A8EF
:20A2200036F05AFC03B030BD01201A80D9621C8598821A8802431A80A8E70E4A934297D0AD
:20A2400001229A821A8842F001021A809BE70121D0E70221CEE70321CCE70421CAE7052148
:20A26000C8E70621C6E70721C4E700BF68A80020000001400004014000100040000400407F
:20A2800018B80408190100011F4B98422CD0B0F1804F2BD0A3F57C43984229D003F5806317
:20A2A000984227D003F58063984225D003F58063984223D003F58063984221D003F5963314
:20A2C00098421FD003F58063984207D003F58063984208BF092202D00020704708220B4B59
:20A2E00003EBC203187970470022F8E70122F6E70222F4E70322F2E70422F0E70522EEE76C
:20A300000622ECE70722EAE70000014018B80408002330B40F4A1D46012404E00133092BF7
:20A320000DD012F8244C30EA040402F12402F5D1A94207D001330135092BEDB2F1D10020E4
:20A3400030BC7047044A03EBC30302EB830330BC18797047F2B60408C8B6040810B500218D
:20A3600004460120FFF7D4FF207010BD38B500240472451EE1B20220FFF7CAFF0134082C85
:20A3800005F8010FF6D138BD68B10A4A1321002301E012F8241C884202F1240204D001331A
:20A3A000092BF6D100207047034803EBC30300EB83007047F0B60408C8B604082DE9F04F16
:20A3C00085B0CDE902109B4DDFF878A2029B013B0293013300F02A8136F056FF964C974F27
:20A3E000DFF864E2964E4FF4FA7301934FF01008DEF80430C3F30803002B40F0F680EFF343
:20A400001183002B40F0F1802068AA6823689842FAD133689A42F7D8D7F800C04FF47A710F
:20A4200001FB0CF39B1AB3FBFCF301FB00304FF47A7C4FF00109DEF80430C3F30803002B2B
:20A4400040F0B580EFF31183002B40F0B0802368A96822689342FAD132689142F7D83A68F2
:20A460000CFB02FBABEB0101B1FBF2F10CFB03131B1AB3F57A7FDED3019B013B0193B7D119
:20A48000039B6F4E581CC0B236F052FDDFF8B8E14FF47A730193DEF80430C3F308034FF0C8
:20A4A0001008002B44D1EFF31183002B40D12068AA6823689842FAD133689A42F7D8D7F8B3
:20A4C00000C04FF47A7101FB0CF39B1AB3FBFCF301FB00304FF47A7C4FF00109DEF8043089
:20A4E000C3F30803002B44D1EFF31183002B40D12368A96822689342FAD132689142F7D8A7
:20A500003A680CFB02FBABEB0101B1FBF2F10CFB03131B1AB3F57A7FE0D3019B013B01935C
:20A520003FF454AFDEF80430C3F30803002BBAD0EFF3118388F31288D5F808C02A68D203DE
:20A5400004D50122CAF80020D5F808C02068DAF80090DBB283F3118839684FF47A724844A6
:20A5600002FB01F3A3EB0C03B3FBF1F302FB0030B0E7EFF3118188F31288D5F808B02B6856
:20A58000DB0344BFCAF80090D5F808B02368DAF80020C9B281F31188396813440CFB01F20C
:20A5A000A2EB0B02B2FBF1F20CFB0323B1E7EFF3118188F31288D5F808B02B68DB0344BF2A
:20A5C000CAF80090D5F808B02368DAF80020C9B281F31188396813440CFB01F2A2EB0B0213
:20A5E000B2FBF1F20CFB032342E7EFF3118388F31288D5F808C02A68D20304D50122CAF830
:20A600000020D5F808C02068DAF80090DBB283F3118839684FF47A72484402FB01F3A3EB24
:20A620000C03B3FBF1F302FB003000E705B0BDE8F08F00BF10E000E0848A0020888A00209D
:20A640008C8A0020808A002000ED00E0224B5B68C3F3080330B4D3B9EFF31183BBB91F4A19
:20A660001F4D20481368846811688B42FAD129688C42F7D81C4A11684FF47A7202FB01F064
:20A68000001B30BCB0FBF1F002FB03007047EFF31182102383F3128803F1E023D2B29C6839
:20A6A000196811F4803F11491EBF012008609C680A4B18680B6882F311880B4A11684FF42A
:20A6C0007A72034402FB01F0001B30BCB0FBF1F002FB0300704700BF00ED00E0848A002055
:20A6E0008C8A002010E000E0888A0020808A00202DE9F84F8046274C274DDFF8A490274E6E
:20A70000FFF7A4FFDFF89CE0DFF89CC04FF0100A4FF47A77DCF80430C3F30803CBB9EFF35E
:20A720001183B3B92368A96822689342FAD132689142F7D8DEF8002007FB02FBABEB01018A
:20A74000B1FBF2F107FB03131B1A4345E2D3BDE8F88FEFF311818AF31288D5F808B02B6811
:20A76000DB0304D50123C9F80030D5F808B02368D9F80020C9B281F31188DEF80010134447
:20A7800007FB01F2A2EB0B02B2FBF1F207FB0323DAE700BF848A002010E000E08C8A0020BE
:20A7A000808A0020888A002000ED00E070B59D4C2368002B40F005819B4B1A78002A68D01C
:20A7C0009A4B19789A4B002964D11868B3F82C5141628489012A44EA05048481A3F82C1129
:20A7E00057D0D3F83001B3F85C5241628489022A44EA05048481A3F85C124AD0D3F8600275
:20A80000B3F88C5341628489032A44EA05048481A3F88C133DD0D3F89003B3F8BC54416292
:20A820008489042A44EA05048481A3F8BC1430D0D3F8C004B3F8EC5541628489052A44EAAE
:20A8400005048481A3F8EC1523D0D3F8F005B3F81C5741628489062A44EA05048481A3F8C6
:20A860001C1716D0D3F82007B3F84C5841628489072A44EA05048481A3F84C1809D0D3F8BE
:20A880005028B3F87C495162908920439081A3F87C1970BD5C68198961602568186845F0CA
:20A8A000010540F20D312560A0F848108489012A44F480748481ECD0D3F83441B3F8385114
:20A8C000D3F830016560256845F001052560A0F848108489022A44F480748481D9D0D3F89C
:20A8E0006442B3F86852D3F860026560256845F001052560A0F848108489032A44F48074B8
:20A900008481C6D0D3F89443B3F89853D3F890036560256845F001052560A0F848108489F7
:20A92000042A44F480748481B3D0D3F8C444B3F8C854D3F8C0046560256845F001052560FA
:20A94000A0F848108489052A44F480748481A0D0D3F8F445B3F8F855D3F8F005656025681C
:20A9600045F001052560A0F848108489062A44F4807484818DD0D3F82447B3F82857D3F831
:20A9800020076560256845F001052560A0F848108489072A44F4807484813FF47AAFD3F8F8
:20A9A0005428B3F85808D3F850385060106840F001001060A3F848109A8942F480729A819B
:20A9C00070BD0546FFF742FE217AA9B16DB1194A002316890133002E18BF0021AB4202F157
:20A9E0006002F6D100293FF4E7AE00F51C501030002320602372DFE62368C31A002BFFF617
:20AA000048AF637A3BB1013BDBB263722BB100F57A702060D0E62360CEE66368034423601B
:20AA2000CAE600BF8081002098AB002094A800209CAB002098A800202DE9F04FDFF834C1DF
:20AA4000494CDFF834E1DFF83481484E824648481AF1FF3AC0F08680DCF80430C3F3080338
:20AA6000002B5ED1EFF31183002B5AD10568A26803689D42FAD133689A42F7D8DEF8007098
:20AA80004FF47A7101FB07F39B1AB3FBF7F301FB0535DCF80430C3F308034FF010094FF4AB
:20AAA0007A77F3B9EFF31183DBB90368A16802689342FAD132689142F7D8DEF8002007FB3D
:20AAC00002FBABEB0101B1FBF2F107FB03135B1BB3F57A7FBCD2DCF80430C3F30803002BA1
:20AAE000E0D0EFF3118189F31288D4F808B02368DB0304D50123C8F80030D4F808B0036853
:20AB0000D8F80020C9B281F31188DEF80010134407FB01F2A2EB0B02B2FBF1F207FB032339
:20AB2000D5E7EFF31183102282F31288A1682268D20303D50122C8F80020A168D0F80090FE
:20AB4000D8F80050DBB283F31188DEF800704FF47A724D4402FB07F35B1AB3FBF7F302FB32
:20AB6000053596E7BDE8F08F10E000E08C8A0020848A002000ED00E0888A0020808A00209D
:20AB800038B50F4C054694F897130C20FEF7A2FA08211820FEF79EFA85B994F895130920A6
:20ABA000FEF798FA0D210720FEF794FA16211920FEF790FA0A20BDE838403DE70321EEE7E3
:20ABC000B026002030B4EFF31183102282F31288084809490268094D094C013202608A68A6
:20ABE0002A6000222260DBB20A6883F3118830BC704700BF848A002010E000E08C8A002083
:20AC0000808A002038B5254B5C68A26BE36D62B1E26BC2B1998A1A88C90792B204D51207EE
:20AC200044BF4FF6F7721A8038BD99891A88890692B2EDD59206EBD5E26AFAB19888216B80
:20AC40009047E36DE4E799891A880D0692B2E1D51006DFD5D4E909128A420AD0A169256951
:20AC6000885C98800132B2FBF5F105FB1122A262D0E7DA6822F08002DA60CBE79B88E269F4
:20AC80006169DBB28B54E269E068E36D0132B2FBF0F100FB1122E261BAE700BF7C870020E6
:20ACA00038B5254B1C68A26BE36D62B1E26BC2B1998A1A88C90792B204D5120744BF4FF670
:20ACC000F7721A8038BD99891A88890692B2EDD59206EBD5E26AFAB19888216B9047E36D01
:20ACE000E4E799891A880D0692B2E1D51006DFD5D4E909128A420AD0A1692569885C9880DC
:20AD00000132B2FBF5F105FB1122A262D0E7DA6822F08002DA60CBE79B88E2696169DBB2F8
:20AD20008B54E269E068E36D0132B2FBF0F100FB1122E261BAE700BF7C870020002A12DD83
:20AD400070B504460D468E18236820469B6898470028F9D0236815F8011B1B68204698474B
:20AD6000B542F1D170BD70470368DB6A03B11847704700BF03689B6A03B11847704700BF04
:20AD800003682DE9F0415D6A1DB12B46BDE8F0411847002A174611DD04460E460F4400E080
:20ADA00023689B68204698470028F9D0236816F8011B1B6820469847BE42F1D1BDE8F0817A
:20ADC00003689B69184700BF03685B69184700BF0368DB68184700BF03689B68184700BF41
:20ADE00003685B68184700BF03681B68184700BF014BD3F81004F7E7B026002038B50C46BD
:20AE0000097849B1054601342B6828461B68984714F8011B0029F7D138BD00BF064B53F86B
:20AE200020302BB11A689B8851690B4201D1138370475383704700BF508A0020036803F176
:20AE40003F4202F57E022DE9F04F920A464DAA5C02F01F0552090124032A04FA05F47ED068
:20AE6000042A77D0022A30D001F00306721E012AC1F3810EC1F300188588C1F341114FF01B
:20AE800000024FF0010C25D94FF0030E0CFA02F0A84315D150001F680EFA00F4E4432740EC
:20AEA0001F60D3F8008006FA00F747EA08071F60DF683C40DC60DC6801FA00F02043D86049
:20AEC0000132102AE2D1BDE8F08F284A556C2C435464C9E74FF003090CFA02F737EA0500B4
