:020000040800F2
:10000000F0FF0120759E0608BDFB000811DB040807
:10001000ED9E0608ED9E0608ED9E06080000000015
:10002000000000000000000000000000B9FB000814
:10003000B5FB000800000000B1FB000891A2040815
:10004000ED9E0608ED9E0608ED9E0608ED9E06084C
:10005000ED9E0608ED9E060849EC040875ED0408BF
:1000600039ED0408FDEC0408C1EC0408F58306082A
:10007000E5830608D5830608C5830608B18306080C
:100080009D83060889830608ED9E0608000000008F
:1000900000000000000000000000000085EC0408E3
:1000A0007D8D0408C98D04086D8D0408ED8D04084C
:1000B000BD8D0408AD8D04089D8D04087D8D060856
:1000C000858D0608718D0608798D0608ED9E060857
:1000D000ED9E06086DA40408B1A30408000000000A
:1000E0000DEC0408ED9E06084D1401080000000008
:1000F00000000000000000000000000075830608FA
:10010000000000008D4206088D8D0408ED9E060853
:1001100000000000000000000000000000000000DF
:10012000618306084D83060839830608258306087F
:10013000118306080000000000000000000000001D
:1001400000000000000000000000000045F500086D
:10015000FD820608E9820608D5820608F5A2040891
:10016000658D06086D8D0608000000000000000087
:10017000000000000000000000000000000000007F
:1001800000000000ED9E06080000000000000000D6
:08019000ED9E0608ED9E060835
:08019800149A060001000000AA
:1001A0000E02010002000000A46F00201870002061
:1001B00000000000100A0008140201000500000001
:1001C000803B00201C70002000000000120A000884
:1001D00013020100040000007C2500202470002090
:1001E00000000000180A00081220010011000000A1
:1001F0000470002028700020000000001C0A000885
:100200000D1001004C000000C06900203C7000206F
:100210000000000059190408090201000100000053
:100220002869002088700020000000002E0A0008C5
:10023000FD01010024000000CC6800208C7000202B
:100240000000000043720408FB01010001000000EF
:100250000C640020B070002000000000457205080A
:10026000FC01010009000000D8620020B4700020E9
:10027000000000004D720508F701010006000000B3
:10028000CC620020C070002000000000300A00088E
:10029000F901010004000000C8620020C8700020BD
:1002A00000000000ED720408160215003F00000077
:1002B000202F0020CC700020000000006D72050887
:1002C0003400010010000000BC6100200C7100200F
:1002D00000000000957A02081102010008000000E9
:1002E000946100201C71002000000000360A000804
:1002F00012120100040000008C6100202471002013
:10030000000000003E0A000818200100380000002C
:100310005461002028710020000000009D7F050826
:10032000000201000B000000D85D00206071002079
:100330000000000000000000FF11010006000000A6
:10034000805D00206C71002000000000257205080F
:10035000081203000F0000008C5D00207471002063
:100360000000000091720508FA010100030000007E
:100370007857002084710020000000006572050895
:100380000A8001002A000000A85600208871002081
:10039000000000007D570208204201000600000016
:1003A00004550020B471002000000000B97A020852
:1003B00006100100240000003C2E0020BC7100202B
:1003C000000000000D7305080C020100040000008D
:1003D0005C4D0020E071002000000000357205082F
:1003E000110001000C000000E63D0020E471002037
:1003F00000000000F5180408FE01010014000000D0
:10040000EC3C0020F071002000000000E9710508BC
:10041000FD07010078000000F0DC002068DD00200E
:1004200000000000A9830108261001000E00000052
:10043000F0DD0020E0DD002000000000292601089A
:100440000B3001001A000000F0D6002030DE002042
:1004500000000000440A00081F40010024000000C2
:1004600014D600204CDE002000000000600A0008C6
:100470000502010004000000E0D8002070DE00202A
:1004800000000000840A0008030101000A000000C7
:1004900040D6002074DE002000000000B9200108D2
:1004A000010201000B0000005CE70020A0F5002025
:1004B00000000000817205081B020100100000000E
:1004C00044E70020ACF5002000000000F9720508A8
:1004D0001B1001000C00000074E00020BCF500209F
:1004E000000000001D8A010821020100F000000048
:1004F000F4DE0020C8F500200000000089A90108F2
:100500003710010030000000B4E60020B8F60020EB
:1005100000000000880A0008161001000600000014
:100520004CE40020E8F6002000000000B80A0008B3
:100530002F100100220000007CF50020F0F60020C2
:1005400000000000BE0A0008232201001000000085
:1005500028E3002014F7002000000000E00A000853
:100560001E000100090000001CE3002024F7002009
:1005700000000000F00A0008052001000C00000047
:10058000B4E3002030F7002000000000FC0A00085F
:10059000F59101006800000084DE00203CF7002097
:1005A00000000000459A010823200100100000000F
:1005B000F6E30020A4F7002000000000D157020855
:1005C0001400010005000000D8030120FC030120F5
:1005D00000000000080B0008012001000C000000D2
:1005E00090FC002004040120000000000E0B000815
:1005F0000E2003009E01000014F9002010040120C9
:100600000000000075E00208130001000400000073
:10061000C4000120B0050120000000001C0B0008F0
:1006200001010100040000005CF80020B405012075
:1006300000000000000000000001010004000000B4
:1006400054F80020B805012000000000200B00082D
:10065000020101000300000050F80020BC05012049
:10066000000000009DA10308220201001C010000FF
:10067000A4FE0020C005012000000000557F0508F1
:100680000C300600D8000000D8FA0020DC0601205B
:100690000000000061A103081500100070000000B8
:1006A000E013012068140120000000000000000099
:1006B0002A00080060000000F0120120D814012078
:1006C000000000006D7A02082C00040010000000F9
:1006D0004815012038150120000000004578020867
:1006E0002B001200240000007C1501205815012069
:1006F000000000001978020829201400780000008A
:1007000084100120A015012000000000000000005E
:100710001902010010000000281001201816012005
:100720000000000071720508F62101000C000000B5
:10073000900E01202816012000000000240B000864
:100740001C0202001C000000240E0120781601206B
:1007500000000000397B0508283001001600000069
:10076000400E01209416012000000000C57D020803
:100770000412010002000000540F0120AC160120F9
:1007800000000000300B00080F0201000100000013
:10079000500F0120B016012000000000320B0008AD
:1007A000031201003D000000C01C0120081D0120B3
:1007B00000000000340B000825201E002C01000062
:1007C000241A0120481D0120000000000000000044
:1007D00010100100020000000C1A0120741E0120FC
:1007E00000000000720B0008F82101000600000064
:1007F000EC190120781E012000000000740B000895
:100800001900010005000000FC180120801E0120D5
:10081000000000007A0B00081A0001000E00000022
:100820003C180120881E012000000000800B0008F9
:10083000290201004000000098200120D829012051
:10084000000000008E0B00080A02010014000000E6
:10085000F8250120382A0120000000002DA10308FE
:100860000300010001000000DC2601204C2A0120C9
:100870000000000000000000020001000C00000069
:10088000B02A0120482B01200000000000000000D9
:100890000202010003000000382B0120542B01202C
:1008A0000000000000000000280204000400000016
:1008B000B03301205C35012000000000F57205080E
:1008C0002702040004000000AC3301206035012041
:1008D00000000000E97205081F0208001000000077
:1008E000E830012064350120000000000172050895
:1008F0001A0201003C000000902C012074350120F8
:100900000000000009800508381001000100000007
:10091000782B0120B035012000000000CE0B00082C
:1009200004000800800000007C360120FC37012014
:1009300000000000000000002A0201000B0000007F
:10094000843801208043012000000000D00B000803
:100950000702010002000000344101208C43012005
:1009600000000000DC0B00081D0202000600000071
:100970000C41012090430120000000000000000015
:10098000060203000C0000001C4101201848012051
:1009900000000000057C050827000100040000009D
:1009A000D83A01202448012000000000DE0B000896
:1009B0000B2201003D000000A0680120F47401201A
:1009C00000000000E40B00080D12010014000000FC
:1009D000286901203475012000000000240C000863
:1009E0001E02010006000000E06801204875012099
:1009F00000000000380C0008100201000100000097
:100A00008C86012088860120000000003E0C000832
:100A10000000000000FF00000000010000000001D5
:100A200000010553343131000000000200000000D5
:100A30000000010000000000000001010101FFFFB3
:100A4000FFFF0000AE014A015E012C0164000200BC
:100A5000000001000A019A01001E0A0000020000C5
:100A60000000000000010001000500000102030079
:100A70000000000000000000000000000000000076
:100A8000008007000000000020003200C800D007EE
:100A900096001400320028004C0440060005500067
:100AA00014000F00080064000100010005000A00A6
:100AB0000000F40196000F00C409000019000000B6
:100AC0000000000000000000000000000000000026
:100AD0000000000000000000000000000000000016
:100AE000000000000000000000000000FF00000007
:100AF00000050100000000000000000002030000EB
:100B00000000000000000000030000230000E803D4
:100B10006400040A000114001E00000000204030A0
:100B2000900100000000000001000000020200002F
:100B300000000000000000000000000000000000B5
:100B400000000000000000000000000000000000A5
:100B50000000000000000000000000000000000095
:100B60000000000000000000000000000000000085
:100B7000010000050201F40114000000280100003A
:100B80007E05EA05B4053200E803D0070000000046
:100B90000000000000000000000000000000000055
:100BA0000000000000000000000000000000000045
:100BB0000000000000000000000000000000000035
:100BC0000000000000000000000000000000000025
:100BD000000000000000000000000000003C2003B6
:100BE0000000000000000000000000000000000005
:100BF00000000000000000000000000000000000F5
:100C000000000000000000000000000000000000E4
:100C100000000000000000000000000000010000D3
:100C200000000000000000000000000000000000C4
:0F0C3000000000000000000000000000000000B5
:100C3F000403090412010002EF020140830456323B
:100C4F000002010203010000120100020202004033
:100C5F00830440570002010203010000FFFFFFFF62
:100C6F007D000000F8690708006A0708000000000F
:100C7F000DA20308A0860100040000000000000080
:100C8F000000000000000000000000000000000055
:100C9F000000000000000000000000000000000045
:100CAF0000000000F8690708086A07080000000044
:100CBF00B9830408E80300000400000000000000EE
:100CCF000000000000000000000000000000000015
:100CDF000000000000000000000000000000000005
:100CEF0000000000106A070800000000000000006C
:100CFF0099A303087D000000FF0000000000000022
:100D0F0000000000000000000000000000000000D4
:100D1F0000000000000000000000000000000000C4
:100D2F0000000000A8F40708000000000000000009
:100D3F00C1AD03087D000000FF00000000000000AF
:100D4F000000000000000000000000000000000094
:100D5F000000000000000000000000000000000084
:100D6F00000000007C7F070800000000000000006A
:100D7F0089E203087D000000FF0000000000000072
:100D8F000000000000000000000000000000000054
:100D9F000000000000000000000000000000000044
:100DAF0000000000186A07080000000000000000A3
:100DBF00E17A0408E80300000300000000000000CF
:100DCF000000000000000000000000000000000014
:100DDF000000000000000000000000000000000004
:100DEF00000000001C6A070800000000000000005F
:100DFF00B5380308102700000300000000000000B2
:100E0F0000000000000000000000000000000000D3
:100E1F0000000000000000000000000000000000C3
:100E2F00000000008CF00708000000000D7402089D
:100E3F00C5DB04085F76000005000000000000001D
:100E4F000000000000000000000000000000000093
:100E5F000000000000000000000000000000000083
:100E6F00000000004CF40708000000000000000024
:100E7F00DDFA040810270000010000000000000048
:100E8F000000000000000000000000000000000053
:100E9F000000000000000000000000000000000043
:100EAF0000000000286A0708000000000000000092
:100EBF00156F0408E80300000500000000000000A3
:100ECF000000000000000000000000000000000013
:100EDF000000000000000000000000000000000003
:100EEF0000000000346A0708000000000000000046
:100EFF00ADAA0308204E0000030000000000000010
:100F0F0000000000000000000000000000000000D2
:100F1F0000000000000000000000000000000000C2
:100F2F0000000000446A07080000000000000000F5
:100F3F0095A80308204E00000300000000000000E9
:100F4F000000000000000000000000000000000092
:100F5F000000000000000000000000000000000082
:100F6F0000000000546A07080000000000000000A5
:100F7F0031800408400D0300030000000000000052
:100F8F000000000000000000000000000000000052
:100F9F000000000000000000000000000000000042
:100FAF0000000000646A0708000000000000000055
:100FBF0001360408102700000100000000000000A7
:100FCF000000000000000000000000000000000012
:100FDF000000000000000000000000000000000002
:100FEF00000000006C6A070800000000000000000D
:100FFF0001B80108102700000300000000000000E6
:10100F0000000000000000000000000000000000D1
:10101F0000000000000000000000000000000000C1
:10102F0000000000706A07080000000000000000C8
:10103F00A58F0208A086010001000000000000003B
:10104F000000000000000000000000000000000091
:10105F000000000000000000000000000000000081
:10106F0000000000786A0708000000000000000080
:10107F006179040850C30000010000000000000067
:10108F000000000000000000000000000000000051
:10109F000000000000000000000000000000000041
:1010AF0000000000806A0708000000000000000038
:1010BF0031770408A0860100000000000000000046
:1010CF000000000000000000000000000000000011
:1010DF000000000000000000000000000000000001
:1010EF00000000008C6A07080000000000000000EC
:1010FF0011730408A8610000010000000000000047
:10110F0000000000000000000000000000000000D0
:10111F0000000000000000000000000000000000C0
:10112F0000000000986A070800000000000000009F
:10113F0019F80108A086010001000000000000005E
:10114F000000000000000000000000000000000090
:10115F000000000000000000000000000000000080
:10116F0000000000A46A0708000000000000000053
:10117F0019A90408A00F00000100000000000000E2
:10118F000000000000000000000000000000000050
:10119F000000000000000000000000000000000040
:1011AF0000000000B06A0708000000000000000007
:1011BF005DE401081027000001000000000000009E
:1011CF000000000000000000000000000000000010
:1011DF000000000000000000000000000000000000
:1011EF0000000000BC6A07080000000000000000BB
:1011FF0059180408A00F00000100000000000000B3
:10120F0000000000000000000000000000000000CF
:10121F0000000000000000000000000000000000BF
:10122F0000000000C86A070800000000000000006E
:10123F004DDC01081A410000010000000000000011
:10124F00000000000000000000000000000000008F
:10125F00000000000000000000000000000000007F
:10126F0000000000CC6A070800000000000000002A
:10127F00F12001081027000001000000000000000D
:10128F00000000000000000000000000000000004F
:10129F00000000000000000000000000000000003F
:1012AF0000000000D86A07080000000000000000DE
:1012BF001138020850C300000100000000000000B8
:1012CF00000000000000000000000000000000000F
:1012DF0000000000000000000000000000000000FF
:1012EF0000000000DC6A070800000000000000009A
:1012FF00692E0108400D03000000000000000000EF
:10130F0000000000000000000000000000000000CE
:10131F0000000000000000000000000000000000BE
:10132F0000000000E46A0708000000000000000051
:10133F0015190408400D0300000000000000000014
:10134F00000000000000000000000000000000008E
:10135F00000000000000000000000000000000007E
:10136F0000000000EC6A0708000000000000000009
:10137F00A5EF010850C300000300000000000000AB
:10138F00000000000000000000000000000000004E
:10139F00000000000000000000000000000000003E
:1013AF0000000000F86A07080000000000000000BD
:1013BF00CDDB030840420F000000000000000000DA
:1013CF00000000000000000000000000000000000E
:1013DF0000000000000000000000000000000000FE
:1013EF0000000000046B0708000000000000000070
:1013FF00B119040850C300000000000000000000F5
:10140F0000000000000000000000000000000000CD
:10141F0000000000000000000000000000000000BD
:10142F000000000001000000158300081183000870
:10143F000D83000801830008FD820008098300085E
:10144F000583000800000000E18B00087DA0000864
:10145F00A58B0008CDA10008B98C00088583000872
:10146F007183000855830008612701084D26010884
:10147F00E58E00085D8F000855E10008B1E2000815
:10148F00211901085D8300084D8300080100000049
:10149F000000803F55480108594D0108D148010807
:1014AF00BD190108A11B0108CD190108E91901088F
:1014BF0095190108851901080000000000000000BF
:1014CF0009022000010104C03209040000020806CD
:1014DF00500507058102400000070501024000008A
:1014EF0009026400030100C0320904000001030077
:1014FF0000000921110100012236000705830309AD
:10150F00000A080B01020202010009040100010296
:10151F000201000524001001052401000204240229
:10152F00020524060102070582030800FF090402D1
:10153F0000020A00000007050102400000070581B4
:10154F000240000009024300020100C032090400FA
:10155F000001020201000524001001052401000111
:10156F00042402020524060001070582030800FF78
:10157F0009040100020A00000007050102400000F3
:10158F000705810240000000FF000000140000FF6B
:10159F000000000000000000AA5507010000010034
:1015AF0000600240106002400000000000000000D8
:1015BF00000B000000000000000000000000000011
:1015CF00006002402860024001000000000000009F
:1015DF00060C0000000000000000000000000000EA
:1015EF000060024040600240020000000000000066
:1015FF00100D0000000000000000000000000000BF
:10160F00006002405860024003000000000000002C
:10161F00160E000000000000000000000000000097
:10162F0000600240706002400400000000000000F3
:10163F00200F00000000000000000000000000006C
:10164F0000600240886002400500000000000000BA
:10165F002610000000000000000000000000000045
:10166F0000600240A0600240060000000000000081
:10167F00301100000000000000000000000000001A
:10168F0000600240B8600240070000000000000048
:10169F00362F0000000000000000000000000000D6
:1016AF0000640240106402400000000000000000CF
:1016BF0000380000000000000000000000000000E3
:1016CF000064024028640240010000000000000096
:1016DF0006390000000000000000000000000000BC
:1016EF00006402404064024002000000000000005D
:1016FF00103A000000000000000000000000000091
:10170F000064024058640240030000000000000023
:10171F00163B000000000000000000000000000069
:10172F0000640240706402400400000000000000EA
:10173F00203C00000000000000000000000000003E
:10174F0000640240886402400500000000000000B1
:10175F002644000000000000000000000000000010
:10176F0000640240A0640240060000000000000078
:10177F0030450000000000000000000000000000E5
:10178F0000640240B864024007000000000000003F
:10179F0036460000000000000000000000000000BE
:1017AF00AA55050100002D202D2D202D2D2D2D208A
:1017BF002D2D2D2D00000000000000000000000066
:1017CF00000000000008000088D90608FF1FFF1F57
:1017DF0005010905A101A1000501093009310932EF
:1017EF00093309350934093609371581257F7508FD
:1017FF009508810205091901290815002501950889
:10180F0075018102C0C0000009022200010100E041
:10181F003209040000010301020009211101000136
:10182F002236000705830309000A000000000000AC
:10183F00010203040102030406070809AA550B015C
:10184F000000AA5505010000AA550902000000AAD0
:10185F005503009F01000000C012000028DE002089
:10186F000000000000DE0020000000000101000069
:10187F0000000100E0017EFFFFFFFFFFFF000000FF
:10188F00FFFFFFFF0801FF01FFFFFFFF0100000047
:10189F00C5FC01080000000000000000D0E00608B1
:1018AF0042570200000001064257020000000106E5
:1018BF0000000000000000000000000044F90608CE
:1018CF00000000000000000000000000FCF9060806
:1018DF00000000000000000000000000A8F906084A
:1018EF000000000000000000D1060208B2FD002039
:1018FF0001010000091A02080000000000000000AA
:10190F00D0FA06085D1D020800000000000000006C
:10191F0088FA06082D202D2D202D2D2D2D202D2D33
:10192F002D0000000000000000000000000000007B
:10193F0000000000FFFFFFFFD90E020800000000AB
:10194F0000000000D4F8060801000000FA000000B3
:10195F00010000000100000002FC00200000F40163
:10196F000100000000FC00200000F4010100000055
:10197F00FEFB00200000F40101000000FCFB002032
:10198F000000F40101000000FAFB00200000F40148
:10199F0001000000F8FB00200000F401010000002E
:1019AF00F6FB00200000F40101000000E104020832
:1019BF00A50402080000000020E40608E6FB002052
:1019CF0005320100F4FB00206400F4010100000067
:1019DF00F2FB00206400C40901000000E4FB0020BA
:1019EF00E803D00701000000E2FB0020E803D00766
:1019FF0001000000E0FB0020E803D0070100000019
:101A0F00DEFB00201E00B80B01000000ECFB0020E5
:101A1F0005000F0001000000EEFB002003000A008C
:101A2F0001000000DCFB00201E00F401010000009B
:101A3F00F0FB002002000000ACE40608DAFB0020F7
:101A4F001400640001000000E8FB00203200E803EE
:101A5F0001000000D8FB00200000C80001000000BA
:101A6F00D7FA002000C80100D6FA0020005001006C
:101A7F00D5FA0020005A0100D3FA0020020000001E
:101A8F00B8E406087C76070884760708DE6E002027
:101A9F000100C40900000000DC6E00200100C40931
:101AAF0000000000DA6E00200100C40900000000F1
:101ABF00D86E00200100C40900000000D46E002081
:101ACF000100C40900000000D66E00200100C40907
:101ADF0000000000D26E00200100C40900000000C9
:101AEF00D06E00200100C409000000007BF8002028
:101AFF0000C801007AF8002000C8010078F8002023
:101B0F000000FFFF0A00000076F800200100C80067
:101B1F000100000074F80020320030753200000020
:101B2F0072F800200582050070F8002005002C01D6
:101B3F00050000006EF80020055A05006BF8002024
:101B4F0000FF01006DF8002002000000EC0F0020E4
:101B5F0069F8002003000000A8DB06086AF80020DF
:101B6F0000FF01006CF8002002000000EC0F0020C5
:101B7F0068F8002003000000A8DB0608C8F7002063
:101B8F00FF7F0100C4F7002000000000FFFFFFFFF0
:101B9F0001000000C0F7002000000000FFFFFFFF62
:101BAF0001000000BCF7002000000000FFFFFFFF56
:101BBF000100000035040208C50302080000000000
:101BCF00C4E40608A0FC0020EE02CA0801000000D1
:101BDF009EFC002000C80100640000009DFC002056
:101BEF0000C80100640000009CFC002002000000FF
:101BFF00D0E5060862F800200000803E05000000D6
:101C0F0060F8002080C1803E050000005AF80020D7
:101C1F000083007D0500000058F8002080C1803E41
:101C2F000500000053F8002000FF01004CF80020D1
:101C3F006400F401010000004AF800206400F40180
:101C4F000100000048F800206400F40101000000CA
:101C5F0046F8002004000000DCE5060845F80020E7
:101C6F0002000000F0E5060803F900200D00000057
:101C7F00FCE5060800F9002000640100FEF80020D2
:101C8F00320010270A000000FCF800200D000000B1
:101C9F00FCE50608FBF800200D000000FCE5060837
:101CAF00FAF800200200000034E6060800000000E9
:101CBF00000000000000000040E60608A5FC002020
:101CCF004200000078E60608A3FC00200300000095
:101CDF0084E70608A4FC00200400000094E706082F
:101CEF0005F9002003000000A8E7060804F900200A
:101CFF0003000000A8E70608C4FA0020000A01004C
:101D0F00C2FA00200000E80301000000C0FA002022
:101D1F000000E80301000000BEFA0020000A0100E5
:101D2F00BCFA00200000E80301000000BAFA00200E
:101D3F000000E80301000000B2FA00200000E803F1
:101D4F0001000000B8FA00200000E80301000000C5
:101D5F00B6FA00200000E80301000000B4FA0020EA
:101D6F0000140100D2FA002002000000B8E70608B4
:101D7F00D0FA00200000F40101000000CEFA00208C
:101D8F000000F40101000000CCFA00200000F40173
:101D9F0001000000CAFA00200000F4010100000059
:101DAF00C8FA00200000A00F01000000C6FA0020B2
:101DBF000000A00F01000000C3FB00201964010008
:101DCF00C2FB002002000000C4E70608C0FB002091
:101DDF00E803D0070A000000BEFB002000640100EA
:101DEF000A000000B3FB002000640100B2FB0020DA
:101DFF0000640100BAFB0020006401000A0000002B
:101E0F00B9FB0020006401000A000000B8FB0020AD
:101E1F00006401000A000000BDFB002000FF01006C
:101E2F000A000000BCFB002000FF01000A000000B8
:101E3F00BBFB002000FF01000A000000B7FB0020E1
:101E4F0001FF01000A000000B6FB002001FF0100A6
:101E5F000A000000B5FB002001FF01000A0000008E
:101E6F000EF900200000F401010000000CF9002021
:101E7F000000A00F010000000AF900200000A00FD1
:101E8F000100000008F900200000A00F0100000071
:101E9F0006F900200000A00F0100000002FE002044
:101EAF0000960100FCFD002000C80100FBFD002092
:101EBF0000640100FAFD002000640100F9FD00201C
:101ECF0000640100F8FD002000640100F7FD002010
:101EDF00FF080100F6FD002001640100290302083C
:101EEF00ED02020800000000D0E70608FFFD002009
:101EFF0001320100FEFD00200100000040E806084D
:101F0F00FDFD00200400000048E80608F5FD002054
:101F1F0000960100F4FD002000640100F2FD002096
:101F2F001400E80301000000F0FD002000003075F0
:101F3F000A000000EEFD002000C80100EDFD0020AA
:101F4F0000C80100ECFD002000C80100EBFD0020DF
:101F5F000032010001FE0020004B010000FE0020B6
:101F6F00040000005CE80608EAFD002000640100A0
:101F7F000A00000010FE00200000D0070100000042
:101F8F000BFE002000C801000AFE002000C801005F
:101F9F0009FE002000C801000EFE00200000D0073F
:101FAF000100000008FE002000C8010007FE00200D
:101FBF0000C8010006FE002000C801000CFE002032
:101FCF000000D0070100000005FE002000C801003E
:101FDF0004FE002000C8010003FE002000C801001D
:101FEF00D1000208B90002080000000070E80608DE
:101FFF00F7F80020005A0100F6F8002000C8010091
:10200F00F4F80020E803D0070100000000000000F2
:10201F0000000000110702080CE9060867F800200D
:10202F000003010066F8002000030100F5FF01081E
:10203F00A9FF01080000000060E9060869FF010818
:10204F0021FF010800000000FCE90608410002081A
:10205F00BD0E0208000000007CEA060864F80020AC
:10206F000103010091FC01086FFC01080000000052
:10207F00E0ED0608BD05020891050208000000000A
:10208F0060EE060899FE010841FE010800000000FD
:10209F00D0EE0608E10002085526020800000000F5
:1020AF0088EF060801130208E90502080000000086
:1020BF0030F00608310102080000000000000000A7
:1020CF00CCF0060815020208B50102080000000056
:1020DF0030F10608B1020208750202080000000084
:1020EF00E8F106080956020865030208000000001F
:1020FF0074F20608D7FB00200106010079010208DF
:10210F00450102080000000070F306082D55020873
:10211F005D10020800000000E0F30608595602089F
:10212F0035110208000000004CF50608D6FB002010
:10213F000103010089000208590002080000000095
:10214F0020F60608DD07020800000000000000006E
:10215F0084F60608F1FE0108A50E02080000000033
:10216F0020F706080000000000000000000000003B
:10217F00ACF706089D030208AD110208000000002D
:10218F002CF806080000000000000000000000000E
:10219F0044FA0608B0D600209CFF2C010000000076
:1021AF0054000120E0150C1700000000560001201C
:1021BF00020000007CFA060840F8002088136F1711
:1021CF000100000042F8002088136F170000000084
:1021DF00226F00200000000000000000206F002090
:1021EF0000000000000000001E6F00200000000033
:1021FF00000000001C6F0020000000000000000025
:10220F001A6F00200000000000000000186F00206F
:10221F000000000000000000C00D002000000000C2
:10222F0000000000C9F70020030000006CFB060847
:10223F0038F8002088136F1701000000D6D800204F
:10224F0088136F170000000081FD010800000000D7
:10225F00000000007CFB0608B1FD0020010000001B
:10226F00D0FB0608D8D8002001000000DCFB0608D0
:10227F00CED8002002000000E4FB0608000000009A
:10228F000000000000000000F0FB060869FD0108D7
:10229F0000000000000000008CFC06080000000099
:1022AF000000000000000000E0FC06080000000035
:1022BF00000000000000000050FD060844F8002058
:1022CF000200000088FD0608D2D80020E0150C1788
:1022DF00000000003C09012090090120D6010101F6
:1022EF00010000000001010100FF010004A2002015
:1022FF00FFFFFFFF0000803F000000000000000014
:10230F0000000000000000000000000000000000BE
:10231F000000000000000000000000000000803FEF
:10232F000000000000000000000000000000803FDF
:10233F000000000000000000000000000000803FCF
:10234F00000000000000000000000000010000007D
:10235F000000FA430000FA430000803FFFFFFFFF39
:10236F00FF0000001138040800000000000000000A
:10237F000000000000000000282A012008000000D3
:10238F0000000000182A01200800000020000000B3
:10239F00AD470108B11A01084547010800000000C8
:1023AF00811901082D50010895460108E1420108E5
:1023BF0000000000000000004119010825830008FB
:1023CF0019830008318B00084D8B0008158B00080E
:1023DF00F98A0008DD8A0008654701088D1A01088F
:1023EF00994601080000000059190108E54201084B
:1023FF00694601084142010800000000000000008A
:10240F004D190108685E0C00FFFFFFFF020100007D
:10241F00A00F0000B80B000002FFFF01FFFF00003C
:10242F0080F0070800000802050303000000000009
:10243F0088F00708010008020504030000000000EF
:10244F00EC9607080200FE010110030000000000D7
:10245F00E4790708030014020003000000000000E5
:10246F0090F0070804001F0202000800000000009F
:10247F0098F0070805001F02020108000000000085
:10248F00FFFFFFFF1A030000000000000000000024
:10249F00000000000000000000000000000000002D
:1024AF0004030904120100020000004083042057B6
:1024BF000002010203010000798605084D86050818
:1024CF00F1850508D97305080D860508B18505083E
:1024DF00D5730508B01B0020698705088987050893
:1024EF0059870508B973050815870508CD860508AE
:1024FF00A97305088C1B002085800508C17305088A
:10250F00BD730508B5730508D5800508B1730508B7
:10251F00AD73050818590708C94F01086D1A01084E
:10252F00A94E01080000000000000000414601080C
:10253F0051450108000000000000000000000000ED
:10254F00351901086174050855740508D987050800
:10255F00F58705080D740508BD870508A1870508CF
:10256F00FFFFFFFF1F0000001C0000001F00000006
:10257F001E0000001F0000001E0000001F000000D2
:10258F001F0000001E0000001F0000001E000000C2
:10259F001F0000000068214C01000000B86207080E
:1025AF0000029060060000008813000002040890EB
:1025BF000104907006000000102700000204088B31
:1025CF000205908006000000204E000000040A88DB
:1025DF000306909006000000409C000000040A854E
:1025EF000000185006000000D007000001040C97EF
:1025FF000101186007000000A00F000002040E94F4
:10260F0002031870070000000A1A000003040C9060
:10261F000305189006000000204E000000040C8BEC
:10262F0001000000008002021F00000053544D20E3
:10263F002020202050726F647574202020202020CD
:10264F0020202020302E3031008002021F00000099
:10265F0053544D202020202050726F647574202019
:10266F002020202020202020302E30310B0125006B
:10267F00886507080100000050C300000101FF0139
:10268F00F4010000FF000000000004010000000042
:10269F000000000210000000070000000000000012
:1026AF00000000000102030406070809FF000000F4
:1026BF001C1C0020000000000000000000000000B3
:1026CF0000000000000000000000000000000000FB
:1026DF0000000000000000000000000000000000EB
:1026EF0000000000000000000000000000000000DB
:1026FF0000000000000000000000000000000000CB
:10270F0000000000000000000000000000000000BA
:04271F0000000000B6
:08280000082800080040000850
:10800000F0B401292A4C2B4D23684FF0000694BF91
:1080100000270127EE626662A6626763676B47EA24
:1080200042076763EE63EC6B002A38D144F4957421
:10803000EC631C6824F001041C601C68E407FCD499
:10804000490289085960D8601968EAB921F04001ED
:10805000196019498B421DD018494FF47410C8603B
:10806000196841F01E011960596941F08001596198
:10807000196841F00101196022B90E4AD36A43F030
:108080000803D362F0BC704741F0400119600A490F
:108090008B42E1D14FF0746041F8500CE0E744F0BE
:1080A0001A04EC63EC6A44F00804EC62C1E700BF18
:1080B000801C0020002C01405864024000640240F3
:1080C0001148002302461178032902F1060216D056
:1080D0000133062BF7D10D4AD36D052B0ED0591C59
:1080E00003EB4303D16500EB4303032040F2EB3184
:1080F00040F2FF32187059809A807047704703EB46
:10810000430300EB4303F0E7B81C0020801C002071
:1081100070B4C3080D4CE25C00F00706B24004EBFB
:10812000D004D2B20020C6F108038B4228BF0B4610
:10813000C3F108052A419840C91A40EA02004FF0ED
:10814000000614F8012FEED170BC7047201D0020EE
:10815000084AD2E9343199420AD0D118013391F852
:10816000D8100170C3F30A03C2F8D0300120704761
:1081700000207047801C0020064AD2F8D838D2F878
:10818000DC28934294BF4FF400600020013B9B1A0F
:1081900018447047801C0020012380F8513070473C
:1081A00007B501A8FFF7D4FF0028FAD09DF8040016
:1081B00003B05DF804FB044BD3E93403984288BF55
:1081C00003F50063181A7047801C002001207047D7
:1081D000024BC3F8E028C3F8E4187047801C002065
:1081E000024BC3F8E828C3F8EC187047801C002045
:1081F0007047704730B4134DD5E934239A4286BF97
:1082000003F50064A21A9A1A0A44B2F5006F13D853
:10821000A9B101444A1E013810F8014FE918824201
:1082200003F1010381F8D840C3F30A03F4D1C5F880
:10823000D430002030BC7047022030BC7047084664
:10824000F8E700BF801C0020212838B50C4605D077
:1082500022282ED0202813D0002038BD0029FBD0A2
:10826000072AF9D11A4BD3F8F00893F8F41893F8C9
:10827000F52893F8F638206021716271A371EBE75D
:108280000029E9D0072AE7D1114DD5F8E4381BB110
:108290000968D5F8E0089847206821796279A379C0
:1082A000C5F8F00885F8F41885F8F52885F8F6384B
:1082B000D2E70029D0D0022ACED1054AD2F8EC3834
:1082C000002BC9D00988D2F8E8089847C4E700BF56
:1082D000801C0020024B0020C3F8F808704700BF44
:1082E000801C0020044B00200522C3F8F828C3F8A6
:1082F000EC08C3F8E4087047801C0020704700BFFA
:10830000704700BF704700BF704700BF704700BF95
:10831000704700BF704700BF042301480B807047BF
:108320009801002010B4074A074B92F8FC08122469
:1083300003F114020C8001280CBF184610465DF8AA
:10834000044B7047801C00209C01002000487047AF
:10835000081D002000487047081D0020034B93F8BB
:108360008400032894BF002001207047801C002057
:10837000034B93F88400032894BF0020012070472A
:10838000801C0020034B93F88400003818BF0120A4
:10839000704700BF801C0020A0B182680D4B12B155
:1083A00007229A7070471978DA6003294FF00400A9
:1083B0000CBF80214FF48071C3E901111A611A7555
:1083C00098707047034B41F2E47101225A545A707D
:1083D000704700BF6CB600200378022B10D00069F4
:1083E00008B9012070470C4B1B78032B0EBF0B4BB9
:1083F00080B24FF6F773984294BF00200120704777
:108400000549436841F650028A58B3EB422F2CBF0E
:1084100001200020704700BF6CB60020F7FFFF0F5F
:108420000378022B14D030B4104A4368006941F637
:10843000480402F5C2511559096841F63C042B4025
:1084400012595B0A023801FB0030104430BC7047FF
:10845000064B426841F6340141F63000595818582D
:1084600000EB410000EB5220704700BF6CB60020CB
:10847000F8B51A4C94F80039002BFBD159B30144DC
:108480004E1E451ED4F8DC28D4F8D81815F8017F04
:10849000531CC3F30A038B422CBF4FF4006000202F
:1084A000C91A22440144012982F80479C4F8DC384D
:1084B0000FD1012041F04CFED4F8D838D4F8DC18A4
:1084C0008B4294BF4FF4006200225B1A1344012BCD
:1084D000EFD0B542D6D10020F8BD00BF801C0020EF
:1084E000094B0846D3F8F81810B559B1D3F8F83845
:1084F000052B07D1054C002AE36803DD1146FFF781
:10850000B7FFE36810BD00BF801C0020782D00205D
:1085100010B590F85010002380F8503079B10B4C12
:10852000D4F8F8286AB1D4F8F828052A0BD1084CF9
:108530003C30E368FFF79CFFE368012010BD012099
:10854000FCE71046FAE71846F8E700BF801C002059
:10855000782D0020002280F85120D9E790F8502093
:10856000531C0244DBB280F8503082F83C1090F883
:1085700051200AB1132B00D9CAE770472DE9F84FF3
:10858000454B98420ED003F568530833984247D0C4
:10859000424B0020C3E91B00A3F86800A3F8740055
:1085A000BDE8F88F3D4C3E4FDFF800810223236188
:1085B00004F114060025FB6AAB42294605F10105CA
:1085C00003D0D4F8840052F09DFF94F88830D4F89A
:1085D000842086F8243032623046414653F088F9D0
:1085E00023699D4206F12806E5DB002384F87630F6
:1085F000D4E907032169228BA58CC4F88C3012FBC7
:1086000001F203FB01F3A4F86820618B254AA4F86A
:108610007450C4E91B03A4F86A1062660120BFE726
:108620001E4C1F4F0223236104F114054FF0000B71
:108630004FF4806A4FF040094FF40068FA6A01264F
:108640005A455946B34403D0D4F8840052F05AFF37
:10865000D4F8841094F88820296285F824204FF4F7
:1086600000314FF00062C5E90212A5F804A0A5F898
:108670001090A5F80680AE74FFF722FD28466E76AE
:1086800053F088F82269084B45F8283B9345D5DB21
:1086900084F87660ACE700BF1971EF00782D0020F8
:1086A00098010020B4D4060888D406081940EF00C9
:1086B0002DE9F04FD04ED14D86468C4617460FCE51
:1086C00005F190042DED068B0FC40FCE0FC496E874
:1086D000070089B095F8C630039784E80700CDE914
:1086E00004EC042B00F24281DFE813F0A801400102
:1086F0003B010500B8019FEDC28ADFEDC28AC24985
:10870000C5F8AC10C149C24BC24AC5F8A8100399BC
:10871000002918BF134638EE887AF5EE006AC6EED7
:10872000879ABD4EC5F8B430A6F1120B06F1C00809
:108730000027DFEDC17A9FEDB99A28EE278AB0EEC7
:1087400067AA059BBB4200F006811BF8019B05EB65
:10875000090309F1010993F8CB405FFA89F9002C6C
:1087600000F07F81002203E00132152A00F07981B8
:1087700002EB4201530018F80100A042F4D1294451
:10878000029391F8A911002900F07381204640F06E
:1087900077FD8246006840F017FD9AF8051040F01A
:1087A0008FFD90F800C0BCF1000F40F05A81029B91
:1087B000E9182309013B0322042B81F8E99181F890
:1087C000E82104F00F0000F2FC80954C04EB43011B
:1087D000B1F884C04CFA00F111F0010100F00981F8
:1087E000012101FA00F0013800EA0C00029361F067
:1087F000C9F9029BDFF83CC22344032293F890306E
:1088000018440CEBC00373619A7183F807905CF80D
:1088100030009AF8082000F13F4C0CF57E0C04EB78
:108820009C24012194F8984004F01F0C6409032C47
:1088300001FA0CF100F0D680042C00F0CC80022C60
:1088400000F0C2809B880693B3FA83F3C3F11F0341
:10885000C3F3CC0100EB810103F007030C6A9B001A
:108860004FF00F0C0CFA03FC24EA0C040C620C6AA7
:1088700002FA03F323430B62022306A907930CF0C9
:10888000E5FE039B002B76D0B5F8C430D5F89414E0
:1088900007EE903AF8EEE77AFCEEE77A17EE900AE8
:1088A000B1FBF0F202F57F42FF32120CB1FBF2F2A3
:1088B00095F8C610B2FBF0F0042983B272D007EE2F
:1088C000902AF8EE676A66EE887A29EE677A95F85C
:1088D000C70004990091A8EEA67A0190514630464F
:1088E000C6ED027A86ED037A34F01CFD002F64DDBC
:1088F0007368D5F8EC20934261D0012F5DD0D5F894
:10890000042193425BD0022F57D0D5F81C2193420B
:1089100055D0032F51D0D5F8342193424FD0042F96
:108920004BD0D5F84C21934249D0052F45D0D5F8EE
:108930006421934243D0062F3FD0D5F87C21D31A2F
:1089400018BF012301370122082F3374727406F116
:1089500018067FF4F6AE334809B0BDEC068BBDE8CF
:10896000F08F9FED318AF0EE488AC8E69FED2F8A9E
:10897000F0EE488AC3E6B0EE690A62F0E9FAFCEE6E
:10898000C07A4FF6FF7317EE902AD5F89414B1FB16
:10899000F2F21A44120CB1FBF2F295F8C610042957
:1089A00018468CD107EE900A07EE102AF8EE677A87
:1089B000F8EE476A67EE8A7A87E70123C2E7002369
:1089C000C0E7C6F814C05CE7194CD4F844C041EACB
:1089D0000C01616436E7164CD4F830C041EA0C0152
:1089E00021632FE7124CD4F840C041EA0C01216406
:1089F00028E7716145E700BFE0D40608782D002024
:108A0000ACC5A737ACC5A73605A30308D9720408BF
:108A1000B19E0308CD720408602E002000007A4445
:108A200088D40608082E0020282930386F12033910
:108A3000003802408C2F00206F12833A1FED028A0B
:108A40000D4A0E4BC5F8AC20C5F8A8300022012312
:108A5000CDE90332F0EE488A094B5CE69FED098AC6
:108A6000EEE7094A064BC5F8AC20C5F8B430002043
:108A700072E70B68FFDE00BF05A30308D972040884
:108A8000CD7204080000000001A00308F8B5104EE4
:108A9000D6F89444054600680F4664080CF0DAFCEA
:108AA000B4FBF7F1B1F5803F03D3012CFAD9640888
:108AB000F6E72246284689B240F080FA054BC6F810
:108AC000FC3C28460449BDE8F840002240F096B935
:108AD000782D0020DD1F0208743A002010B5044CE8
:108AE00004480A4621460BF02FFB204610BD00BF6C
:108AF0007C3A00207469070810B5044C04480A4603
:108B000021460BF021FB204610BD00BF7C3A00201F
:108B10008469070810B5044C04480A4621460BF046
:108B200013FB204610BD00BF7C3A00209069070867
:108B300010B5044C04480A4621460BF005FB2046BC
:108B400010BD00BF7C3A00209C69070810B5044C9A
:108B500004480A4621460BF0F7FA204610BD00BF34
:108B60007C3A0020A869070810B50C4C94F8CD2079
:108B70000023C4F8803012B1094AC2F8043E5DF007
:108B8000FFF920B10423022084F8843010BD044B87
:108B9000DB686367092384F8843010BD801C0020E3
:108BA000782D002070B50D4D95F88430042B0446C7
:108BB0000E460AD0082B06D1EB6F83420CD0FFF78C
:108BC000D3FF022801D0012070BD0823C5E91F464C
:108BD00085F88430022070BD022070BD801C00200A
:108BE00070B54379224C002B14BF0123002384F875
:108BF000B03003D1002384F8843070BD1D4D0021B6
:108C000095F90B2E032041F017FE0028F2D046689C
:108C100030465EF019F884F8CC000028EAD095F8C8
:108C2000093E003B18BF0123304684F8CD305EF08A
:108C3000EBF80BF033FA38B994F8783084F8840004
:108C4000013384F8783070BD5DF084FA40B194F857
:108C500078300022013384F8783084F8842070BDA5
:108C6000EB686367012384F8780084F8843070BD72
:108C7000801C0020782D002010B55DF06BFA58B1F3
:108C80000B4C94F878300133DBB2072B84F8783042
:108C900003D9002384F8843010BD0BF0FFF90028BD
:108CA000F7D0044A0123D268626784F8843010BD8B
:108CB000801C0020782D00202DE9F041864C94F88E
:108CC000B050002D00F0F68094F88420834E0227E7
:108CD000531E082B40D8DFE803F036389C3F664F20
:108CE000143F05005DF04CF9002840F0EA80636F06
:108CF000F268FA3393422CD2FFF7BEFF94F8842037
:108D0000E6E75DF03DF90028F1D0D4F8803000228C
:108D1000012B84F8782040F2D880E16F94F8CD00E0
:108D2000013B0131C4E91F1310B16C4BC3F8042E91
:108D3000082284F88420A2F10805B5FA85F56D09AA
:108D40002846BDE8F08184F884705DF019F90028A8
:108D500040D194F88420531EDBB2022B09D85F4B1C
:108D6000616FDB685B1AC82BE5D9FFF785FF94F8C4
:108D70008420042ADFD1E3E7236B002BDBD1574BA0
:108D8000E66EDB686367072284F88420002ED2D069
:108D9000D4E91821236F0120B047DAE7636FF16847
:108DA00064338B42C7D2D4F82C80B8F1000FF5D1D0
:108DB0005DF0E6F80028A1D0E66E84F87880042300
:108DC00084F88430002E7AD0D4E91821236F4046ED
:108DD000B047BEE75CF0EAFE0028BAD196F80D3E37
:108DE000002BA3F10203B3FA83F314BF0222012282
:108DF0005B0984F8792084F87A305CF0D7FE00288B
:108E00007FF47AAF364A0323926CC4F8882084F842
:108E100084305CF0CBFE00289BD1304BC4F880003E
:108E200093F83C6EB3F83E0ED3F840EED3F840CE44
:108E3000D3F8407ED3F8402E84F88E6093F8441E19
:108E4000A4F88C0093F8456E84F8922093F8450EB0
:108E5000D3F8482EC4F89420B3F84E8EB3F84E2EB3
:108E600084F89310B3F84E1EC2F30B1343EA182391
:108E700003F00F0301F00F024FEA1E6E4FEA1C4C85
:108E80003F0A360900F00F0003F5FA63042184F865
:108E9000990084F88FE084F890C084F8917084F889
:108EA0009860A4F89A3084F89C2084F884102846AE
:108EB000BDE8F08184F884502846BDE8F08105467D
:108EC0003EE7042384F884303AE7FAD1FFF74CFEFA
:108ED00094F88420531E3FE7801C0020782D00204A
:108EE000883B00202DE9F8431A4C94F88460042E46
:108EF0000546894690461F4608D0082E02D000201D
:108F0000BDE8F8830BF014F80228F8D1D4F8C000BB
:108F100044F0D0FD94F87A3093B9690211200BF037
:108F200063F898B90C4BC4F86090DA68656605235D
:108F3000C4E91B87626784F884300120BDE8F883A8
:108F4000294611200BF050F80028EBD00BF07CF8EC
:108F5000D5E700BF801C0020782D002070B51E4C86
:108F600094F88430042B06460D4608D0082B22D1F5
:108F7000E36F83422DD00AF0DBFF02281BD1D4F827
:108F8000C00044F097FD002137200BF02DF8294652
:108F900017200BF029F8B0B994F87A306BB9710248
:108FA00019200BF021F870B90823C4E91F6584F873
:108FB0008430022070BD012070BD314619200BF0B5
:108FC00013F80028F0D00BF03FF80BF079F80320ED
:108FD00070BD022070BD00BF801C00202DE9F84F3D
:108FE000B34C94F8681E0546C1F34001D4F8700EE6
:108FF00044F06CFD94F8681ED4F86C0EC94301F07F
:10900000010144F063FD002D00F0C3806E1EA94FE6
:10901000A94D5FFA86FB4FF01008D4F8700E44F0AB
:1090200039FDD4F86C0E44F035FDB4F8783E002BD1
:1090300040F0358194F87A1ED4F87C0E44F046FD59
:109040004FF0FA094FF47A704FF0010C7B68C3F3CC
:109050000803002B40F0FB80EFF31183002B40F05E
:10906000F680E268A968E3689A42FAD1D4F8A03E93
:109070009942F6D8D4F89C6E00FB06F35B1AB3FB5A
:10908000F6F300FB02327B68C3F30803002B40F0C9
:109090009F80EFF31183002B40F09A80E368D5F8AE
:1090A00008A0E1688B42F9D1D4F8A01E8A45F5D812
:1090B000D4F89C6E00FB06F1A1EB0A01B1FBF6F1BE
:1090C00000FB03139B1AB3F57A7FDCD3B9F10109D6
:1090D000BCD1D4F8700E44F0DDFCD4F86C0E44F032
:1090E000D9FCB4F8783E002B40F0CD8094F87A1E7D
:1090F000D4F87C0E81F0010144F0E8FC4FF0FA0C4A
:109100004FF47A704FF0010E7B68C3F30803002B15
:109110007ED1EFF31183002B7AD1E268A968E3686E
:109120009A42FAD1D4F8A03E9942F6D8D4F89C9E3F
:1091300000FB09F35B1AB3FBF9F300FB02327B6817
:10914000C3F308033BBBEFF3118323BBE368D5F8FC
:1091500008A0E1688B42F9D1D4F8A01E8A45F5D861
:10916000D4F89C9E00FB09F1A1EB0A01B1FBF9F1D7
:1091700000FB03139B1AB3F57A7FE0D3BCF1010C1B
:10918000C2D10BF1FF365FFA86FBBBF1FF0F7FF414
:1091900044AFBDE8F88FEFF3118988F31288AE6809
:1091A0002B68DB0344BFC4F898EEAE68E368D4F8DC
:1091B000981E5FFA89F989F31188D4F89C9E0B44B4
:1091C00000FB09F1891BB1FBF9F100FB0313D1E7A7
:1091D000EFF3118E88F31288D5F808A02B68D90315
:1091E00044BFC4F898CED5F808A0E368D4F8981E18
:1091F0005FFA8EFE8EF31188D4F89C6E0B4400FB50
:1092000006F1A1EB0A01B1FBF6F100FB031359E7EC
:10921000EFF3118188F31288D5F808902B68DA03F0
:1092200044BFC4F898EED5F80890E368D4F8982EB7
:10923000C9B281F31188D4F89C1E1A4400FB01F3D3
:10924000A3EB0903B3FBF1F300FB023277E7EFF383
:10925000118188F31288AE682B68DB0344BFC4F821
:1092600098CEAE68E368D4F8982EC9B281F311881D
:10927000D4F89C1E1A4400FB01F39B1BB3FBF1F3D3
:1092800000FB0232FFE6D4F8943E002B3FF436AFE9
:10929000D4F8803EC3F8009084F8919E2EE7D4F86D
:1092A000943E002B3FF4CCAE41F012F8C8E600BF6C
:1092B000782D002000ED00E010E000E02DE9F84FEF
:1092C000B04CB14F94F8681ED4F8700EAF4DC1F396
:1092D000400144F0FBFB94F8681ED4F86C0EC943BF
:1092E00001F0010144F0F2FB4FF0050B4FF01008C4
:1092F000D4F8700E44F0CEFBD4F86C0E44F0CAFBE8
:10930000B4F8783E002B40F0358194F87A1ED4F8FA
:109310007C0E44F0DBFB32264FF47A704FF0010CE8
:109320007B68C3F30803002B40F0FA80EFF311834E
:10933000002B40F0F580E268A968E3689A42FAD110
:10934000D4F8A03E9942F6D8D4F89CEE00FB0EF378
:109350005B1AB3FBFEF300FB02327B68C3F3080326
:10936000002B40F09E80EFF31183002B40F099809A
:10937000E368D5F808A0E1688B42F9D1D4F8A01EC3
:109380008A45F5D8D4F89CEE00FB0EF1A1EB0A015A
:10939000B1FBFEF100FB03139B1AB3F57A7FDCD31C
:1093A000013EBDD1D4F8700E44F074FBD4F86C0EBD
:1093B00044F070FBB4F8783E002B40F0D08094F875
:1093C0007A1ED4F87C0E81F0010144F07FFB4FF04F
:1093D000320C4FF47A7001267B68C3F30803002B2C
:1093E0007FD1EFF31183002B7BD1E268A968E3689A
:1093F0009A42FAD1D4F8A03E9942F6D8D4F89C9E6D
:1094000000FB09F35B1AB3FBF9F300FB02327B6844
:10941000C3F308032BBBEFF3118313BBE368D5F849
:1094200008A0E1688B42F9D1D4F8A01E8A45F5D88E
:10943000D4F89C9E00FB09F1A1EB0A01B1FBF9F104
:1094400000FB03139B1AB3F57A7FE0D3BCF1010C48
:10945000C2D10BF1FF3616F0FF0B7FF449AFBDE828
:10946000F88FEFF3118988F31288D5F808A02B68DC
:10947000DB0344BFC4F8986ED5F808A0E368D4F8BD
:10948000981E5FFA89F989F31188D4F89C9E0B44E1
:1094900000FB09F1A1EB0A01B1FBF9F100FB031399
:1094A000D0E7EFF3118E88F31288D5F808A02B6867
:1094B000D90344BFC4F898CED5F808A0E368D4F81F
:1094C000981E5FFA8EFE8EF31188D4F89CEE0B4442
:1094D00000FB0EF1A1EB0A01B1FBFEF100FB03134F
:1094E0005AE7EFF3118188F31288D5F808902B68BA
:1094F000DA0344BFC4F8986ED5F80890E368D4F84E
:10950000982EC9B281F31188D4F89C1E1A4400FB2E
:1095100001F3A3EB0903B3FBF1F300FB023276E79F
:10952000EFF3118188F31288D5F808E02B68DB038C
:1095300044BFC4F898CED5F808E0E368D4F8982E74
:10954000C9B281F31188D4F89C1E1A4400FB01F3C0
:10955000A3EB0E03B3FBF1F300FB0232FDE6D4F8FC
:10956000943E002B3FF433AFD4F8803E1E6084F865
:10957000916E2CE7D4F8943E002B3FF4CCAE40F033
:10958000A7FEC8E6782D002000ED00E010E000E026
:109590000E4B30B4DB68427801780D4CDB43C3F3EB
:1095A0000223C3F10403DBB202FA03F360181B01C8
:1095B00001F01F050122490903F0F003AA4080F8D9
:1095C000003344F8212030BC704700BF00ED00E0BC
:1095D00000E100E000F01F0240090123032803FA24
:1095E00002F304D004280CD0022805D07047074AA3
:1095F000116C0B4313647047044A516C0B43536462
:109600007047024A116B0B431363704700380240E6
:1096100000285FD00368374A2DE9F04103F13F4449
:1096200004F57E0402EB9422012492F8982002F0C3
:109630001F055209032A04FA05F456D0042A4FD014
:10964000022A48D08588B5FA85F0C0F11F00C0F322
:10965000CC0603EB860600F0070082000F24306A78
:10966000944020EA04003062306A01FA02F20243B8
:10967000002132624FF0010E0A464FF0030C022720
:109680000EFA02F838EA050002F101021CD118684E
:109690000CFA01F420EA04001860186807FA01F6D1
:1096A00006431E609E6826EA04069E6098689860DD
:1096B000586820EA0800586058685860D86820EA5E
:1096C0000400D860D868D860102A01F10201D7D10F
:1096D000BDE8F0817047084A556C2C435464B1E7EB
:1096E000054A156B2C431463ACE7034A156C2C43F5
:1096F0001464A7E788D4060800380240002861D027
:109700000368384A03F13F4101F57E0102EB9122E3
:109710002DE9F04192F8982002F01F04520901212E
:10972000032A01FA04F158D0042A51D0022A4AD05F
:109730008588B5FA85F2C2F11F02C2F3CC0403EBAF
:10974000840402F00702216A92000F20904021EA6F
:1097500000012162206A0C2101FA02F20243002179
:10976000226208464FF0010E4FF0030C02270EFA5A
:1097700000F838EA050200F101001DD11C680CFA5E
:1097800001F224EA02041C601E6807FA01F4344363
:109790001C609E6826EA02069E609E6816439E60D4
:1097A0005C6824EA08045C605C685C60DC6824EA4D
:1097B0000202DA60DA68DA60102801F10201D6D11B
:1097C000BDE8F0817047084A546C21435164AFE70B
:1097D000054A146B21431163AAE7034A146C214321
:1097E0001164A5E788D406080038024070B5294EF8
:1097F00096F8A44E012C84B03ED0022C2BD1D6F882
:10980000AC3E40F0800413B118689B884383D6F8BF
:10981000A80E838940F2E9350389013D13F0020F58
:10982000ADB21BD0A4B2848140F2E9340389013C7B
:1098300013F0010FA4B21CD0838913460A460021FD
:109840005EF012FED6F8AC3E0BB31A689B88138309
:10985000012004B070BD002004B070BD002DDBD12C
:10986000CDE9021245F0C8FCDDE90212D6F8A80ED7
:10987000E3E7002CDAD1F3E70091134696F8A91E2E
:10988000024696F9A80E5FF087F904B070BD01207A
:10989000E2E700BF782D002058B183884FF00042E6
:1098A000B3FA83F332FA03F303D002490A6813438D
:1098B0000B607047003C0140134B0268196821EAB5
:1098C00002011960596821EA0201596019680A43C6
:1098D0001A609968026821EA02019960D96821EA50
:1098E0000201D9604179102907D001F1804303F5C5
:1098F0009E3319680A431A6070479968114399604A
:10990000D9680A43DA607047003C0140002864D0FF
:10991000F0B58388B3FA83F3202B0A4685B004465A
:10992000C3F11F0143D02D4D2D4E05EB8103771858
:10993000C3F8E42E002197F8A0703FF0BBFEB4F806
:1099400004C02268274CBCFA8CFCCCF11F0303F046
:10995000FC0101F1804101F59C3103F00303980003
:109960004FF00F0E02F13F438A680EFA00FE22EA22
:109970000E0203F57E038A60C3F387238340886861
:109980004FF0004222FA0CF203433D448B6002A8E0
:10999000626101234FF400618DF80E300292ADF840
:1099A0000C10FFF789FF95F8243FF02B01D805B084
:1099B000F0BD3E44F02196F8B0308DF8043003221B
:1099C0004FF4807301A885F8241F8DF80520ADF8A9
:1099D0000630FFF7DDFD05B0F0BD7047782D0020A3
:1099E00088D40608003C014010B4B8B10D4CD4F83E
:1099F0002C3F102B05D15DF8044B0521002040F0D1
:109A000041B903EB4302224482F8311F01210B4488
:109A100082F8300F82F8321FC4F82C3F5DF8044BF7
:109A2000704700BF782D00202DE9F04FDFF884A3A8
:109A30002DED028B9AF8741F002297B0CAF8642F9C
:109A4000CAF8682FCAF86C2FCAF8702FCAF8602FAE
:109A500019B19AF8752F8AF8602F9AF8762F1AB1F3
:109A60009AF8772F8AF86F2F9AF87A2F1AB19AF806
:109A70007B2F8AF86A2F9AF8782F1AB19AF8792FE3
:109A80008AF8652F9AF87C3F05935A1ED3B257B2D5
:109A900004937B1C00F0AA80BC4ABD4E52F837806C
:109AA000029602EBC70200231279019308EE102AF6
:109AB0001D463446994626783946304646F0F2FD32
:109AC00083463046BBF1000F1ED043F00FFDEA1D68
:109AD0001321D2B220B14FF0000E827180F807E05E
:109AE0003FF0E8FD207846F007FE4FF0070309F14C
:109AF000010223714FF0010384F802906070CDF8E9
:109B000004B05FFA82F9E3700135042D04F1050415
:109B1000D1D118EE100A029ECDF80C90FFF75AFD35
:109B20009C499D4A4868024042F440324A600FB95D
:109B3000019B5BB9994C4820FFF74CFD2046022160
:109B40005FF032F9A26842F00102A2609148934AA4
:109B50004168BAF87E4F41F400014160516821F438
:109B600080515160916B21F4401141F48011916357
:109B7000D16841F46001D160956B85F44011C1F367
:109B8000015101EB81011F2000FA01FC25EA0C0CB8
:109B9000112505FA01F141EA0C019163D16841F008
:109BA000E061D160956BC5F30151C1F10401C9B207
:109BB00001EB810188404FF0120C25EA00000CFAFD
:109BC00001F108439063E4B1BAF8801FCAF8884FE6
:109BD000A1B1BAF8822FCAF88C1F62B1019B7048FC
:109BE000521A90FBF2F2CAF8902F6BB917B0BDEC85
:109BF000028BBDE8F08F6B4A1288EFE76A4A118842
:109C0000E7E76A4A1488DFE7404603995FF0CCF83B
:109C10005F4B012003F114090723F278441CE4B2DE
:109C200052B375783279A5F10A0101EB410105EBD8
:109C3000450C092D03FA01FE03FA0CFB02FA01F1AF
:109C400040F28E80D8F80C2022EA0E0E41EA0E0176
:109C5000C8F80C10421E02EB82021F21062801FAEE
:109C600002FC05FA02F261D8D8F8341021EA0C019E
:109C70000A432046C8F834200536B145CDD1D8F87E
:109C80000820049942F40072C8F80820D8F8082087
:109C900042F48072C8F80820D8F80820574442F0EF
:109CA0000102C8F8082097F9842F022040F0C4FD73
:109CB000044600289AD040685CF0C6FF059A062149
:109CC0005CF0D4FF60680BF02BFA07A80BF0EAF900
:109CD000039EA368364A0793012E8CBF4FF4806021
:109CE000002000230D9008F14C054FF4006008950A
:109CF00009920A934FF480720C930E904FF4003344
:109D000060680B9607A94FF40055CDE90F521193E7
:109D10000BF0DAF96268136843F001031360D8F8B6
:109D2000083043F08043C8F808305FE7C11FA0F156
:109D30000D0201EB81014FF01F0E02EB82020C2895
:109D40000EFA01FC0EFA02F005FA01F113D8D8F868
:109D5000302022EA0C0211432046C8F830108BE76D
:109D6000D8F8101002FA0CF221EA0B0B42EA0B02AF
:109D7000C8F810206EE7D8F82C1005FA02F221EA94
:109D800000010A432046C8F82C2075E740D5060894
:109D9000D83C002000230140E030FCFF00200140BF
:109DA000803801002E7AFF1F2C7AFF1F2A7AFF1FAE
:109DB0000C3D0020782D0020F8B5264C00EBC005A6
:109DC00004EB8504D4F8A05F002D35D094F8B17F62
:109DD00007F0FF0687BB49000127C9B284F8B21F0C
:109DE00084F8B32F84F8B57F84F8B66F84F8B47F15
:109DF00084F8B17F84F8B06FAA88C4F8B83FC4F87B
:109E0000BC3F940502D501263046F8BD2B88D90504
:109E10000CD44FF4805301E0013B10D02A88920506
:109E2000FAD42B889BB243F480732B80AB889BB20F
:109E300043F44073AB80E6E700263046F8BD064A9F
:109E400032F8F03C01339BB222F8F03C5EF052FC59
:109E5000DAE700BF782D0020703E002070B5454E37
:109E600016F8EE4C04EB440306EBC303650013F84D
:109E7000EC3C032B6CD8DFE803F058291E02254484
:109E800006EBC50555F8E80C00286DD116F88C3C9A
:109E90009C425DD0013404F00302934206F8EE2C9C
:109EA00056D002EB420406EBC404022344F8E80C4B
:109EB00004F8EC3C70BD2B1906EBC30353F8E82CF7
:109EC00072B1013A43F8E82C002070BD2B1906EB63
:109ED000C30353F8E82C002AF3D1022203F8EC2C38
:109EE000254406EBC50515F8E03C013BDBB205F85F
:109EF000E03C7BBB204B16F88C6C196B55F8E40CDE
:109F0000621C02F003024B1E0324B242034405F814
:109F1000EC4CB3FBF1F045F8E80C19D0994217D896
:109F2000013845F8E80C012070BD45F0D9FC78B146
:109F3000114B2C441A6B06EBC404012102F51C538F
:109F400004F8EC1C0F33B3FBF2F344F8E83C70BDAB
:109F5000012070BD084B1A6B012002F2E733B3FBFE
:109F6000F2F345F8E83C70BD013845F8E80C0020F4
:109F700070BD00BF703E002098010020054B13F813
:109F80008B2C002AFBD1D3F8D83A03491B6801F186
:109F90000C001847703E0020E83D00202DE9F84FE6
:109FA0003249DFF8D4B091F80D1E0124022907468A
:109FB00019461046CBF82C404FF000022C4C1D46A1
:109FC00018BF7F02FEF71CF82A4B63626B02A36284
:109FD000E36A40F2FF5943F093034FF400704FF4EB
:109FE0008A62E3620121C4F83890A0601020E26028
:109FF0005BF028FF012D40F251434E46C4F83890E3
:10A00000CA4640F252488EBF4FF0120998464FF0B0
:10A0100011090A25C4F838A00121A7604846C4F8F0
:10A020000C805BF00FFF03464FF0000C40F27742CC
:10A0300001213720A6632BB900231846CBF828301E
:10A04000BDE8F88FA663C4F808C0E2605BF0FAFED2
:10A05000013DA6630028EFD015F0FF05DAD10346D5
:10A06000CBF82C50CBF82830BDE8F88F782D0020A5
:10A07000002C014000E1F505801C00202DE9F8438B
:10A08000DFF8708098F88450042D044689461746FE
:10A090001E4608D0082D02D00020BDE8F883FEF748
:10A0A00063FD0228F8D101234A4620460021FFF72C
:10A0B00075FF68B1FEF7E0FDD8F86C40002CEBD0DE
:10A0C0000022D8F87030D8F864101046A047E3E7B3
:10A0D000074BC8F86090DA68C8F864400523C8E9FF
:10A0E0001B76C8F8742088F884300120BDE8F88316
:10A0F000782D0020801C00202DE9F84F2F49DFF833
:10A10000C49091F80D1E1E4602292D4B07464FF0B4
:10A11000010418BF4702012E40F259481C6398BF42
:10A120004FF48B683B469346474640F2FF55B04696
:10A130008CBF4FF0190A4FF0180A0A241E4640F24D
:10A14000FF53C9F838300121C9F808605046C9F8F2
:10A150000C705BF077FE03464FF0000C40F2774244
:10A1600001213720C9F83850A3B958464146012289
:10A17000FDF746FF4646134A134B5362760296623A
:10A18000D36A43F09103D3620D4B002108469962D4
:10A19000BDE8F88FC9F83850C9F808C0C9F80C20D4
:10A1A0005BF050FE013CC9F838500028DDD014F0B7
:10A1B000FF04C4D1024B1C63BDE8F88F782D00204A
:10A1C000801C0020002C014000E1F5052DE9F0473E
:10A1D000374C82B005460E461746984694F88400E0
:10A1E00004280CD0082806D1E36FAB4207D0FEF755
:10A1F000BBFC0228F2D0012002B0BDE8F087DFF8F6
:10A20000B8A02666DAF8049E6566C9F34F210F29C7
:10A210004FEA592223D8D4F880300193FBB194F847
:10A22000CD00E0B1B9F5005F13D0224831464FF4BC
:10A230000072484463F076F809F50072C2F34F21CA
:10A240001029CAF8042E4FEA522202D0019B012B9A
:10A2500021D192B2013A174EAD1A0B4600E001230C
:10A2600032462846062601250021E766C4F870809C
:10A2700084F8685084F88460FFF73EFF0028BBD064
:10A28000FEF7FAFCE66E86B12846236F616E002267
:10A29000B0470320B0E7E26F013B01320421C4E97B
:10A2A0001F2384F884100220A6E70320A4E700BF40
:10A2B000801C002004720020782D0020144A154BC9
:10A2C000D2F89424B3EB920F15D2B3EBD20F14D281
:10A2D000B3EB121F13D2B3EB521F12D2B3EB921F88
:10A2E00011D2B3EBD21F10D2B3EB122F34BF4FF405
:10A2F000807080207047022070470420704708203B
:10A30000704710207047202070474020704700BFE2
:10A31000782D002080969800144A154BD2F894248A
:10A32000B3EB920F14D2B3EBD20F13D2B3EB121FD5
:10A3300012D2B3EB521F11D2B3EB921F10D2B3EB78
:10A34000D21F0FD2B3EB122F0ED24FF48070704792
:10A350000220704704207047082070471020704783
:10A36000202070474020704780207047782D0020C3
:10A3700040420F0070B5284D95F8A44E022C84B0D1
:10A3800013460ED0012C09D10091024695F8A91E62
:10A3900095F9A80E5EF000FC04B070BD002004B07A
:10A3A00070BDD5F8AC2E12B1146892886283D5F8CE
:10A3B000A86EB28940F2E9343289013C12F0020FF2
:10A3C000A4B218D084B2B48140F2E9343289013C9D
:10A3D00012F0010FA4B21AD0B2890A463046002109
:10A3E0005EF042F8D5F8AC3EA3B11A689B8813839F
:10A3F000012004B070BD002CDED13046CDE902133F
:10A4000044F0FAFEDDE90213D5F8A86EE5E7002C6A
:10A41000DCD1F2E70120BFE7782D002010B50278EB
:10A42000022A044613D0012A01D0002010BD2D4B72
:10A4300090F9040083F8DC2A421CF6D00328F4DCEF
:10A440000A4603F6DC236179BDE81040B4E4836872
:10A4500013B11A689B8853836368988940F2E93284
:10A460001889013A10F0020F92B225D089B2998171
:10A4700040F2E9321989013A11F0010F92B22BD062
:10A480009A899A8940F2E9321989013A11F0020F4A
:10A4900092B21ED001229A8140F2E9321989013A22
:10A4A00011F0010F92B20ED09B89A368BBB11A685C
:10A4B0009B881383012010BD002AD1D1184644F097
:10A4C0009BFE6368DDE7002AE8D1184644F094FE5D
:10A4D000EBE7002AD8D1F8E7002ACBD1EEE701203C
:10A4E00010BD00BF703E002010B50D4C94F8A43E86
:10A4F000022B13D1D4F8AC0E43F0E2FAD4F8AC0E30
:10A5000008B12123C38001213FF0D4F8FFF7D6FE24
:10A51000BDE810400146034844F0F6BD10BD00BF41
:10A52000782D00201C3C002073B50D4E05460C46CE
:10A53000FF230A46014630468DF8073044F042FFBB
:10A5400001230DF1070245F08001304644F0FEFE84
:10A550009DF80700031B5842584102B070BD00BF70
:10A560001C3C002038B504460D460848214644F0FE
:10A57000CBFF35EA000300D138BD40EA0502214691
:10A580000248BDE83840D2B245F00CB91C3C00206E
:10A5900020EE000A704737B5384C00238DF807309D
:10A5A00094F8EC3A03F0FD02012A05D194F8F42A5C
:10A5B00012B90C2284F8F42A022B314D1DD0032B42
:10A5C0002ED001220B21284659F03CFD04203FF0FB
:10A5D000BFFD01230DF107020021284659F053FD6C
:10A5E000B0B39DF80730482B32D1264BC4F8E03A7F
:10A5F000254BC4F8E43A03B030BDD4F8F40A43F074
:10A600005FFAD4F8F40A08B13523C38001213FF082
:10A6100051F8FFF753FE0146284644F075FDD0E798
:10A620001A4BD4F8F00A46F2A812C3F804243721D2
:10A63000122259F0DBFCD4F8F00A0D22242159F043
:10A64000D5FCD4F8F00A30226A2159F0CFFCB8E7E3
:10A6500094F8EC3A022B03D0032B07D00020CAE772
:10A66000D4F8F40A44F030FD0020C4E7D4F8F00A2E
:10A670001022372159F0BAFCF0E700BF703E0020ED
:10A680005C490020DF40060861410608980100206F
:10A690002DE9F047354E364BD6F89424B3EB920FA4
:10A6A00005460F4680F0B484B3EBD20F80F0B5843A
:10A6B000B3EB121F80F0BC84B3EB521F80F0C78451
:10A6C000B3EB921F80F0CF84B3EBD21F80F0D7841E
:10A6D000B3EB122F34BF4FF480718021254C00233F
:10A6E0004FF4F072A4F8281B04F62C30202184F8D3
:10A6F0002A3B62F078FE04F60C504FF4F0722021F1
:10A7000062F071FE94F8ED0E58B394F8EE3E43B348
:10A710004FEA101808F1FF38B8F1040F00F00F00ED
:10A7200000F2FE83DFF8549009EB4803B3F884206D
:10A7300042FA00F3DB0740F1F383012303FA00F050
:10A7400001381040C8445FF01DFA98F890200A4B79
:10A75000104403EBC000C4F8F80E837983B1412B99
:10A760000ED06FF00100BDE8F08700BF782D00200B
:10A7700080969800703E00208C2F002088D4060818
:10A780002323C38009213EF095FFD4F8F82E12B19F
:10A7900013689188198394F8EE3E013B5BB2591C13
:10A7A00000F0E483022B00F3E183D6F894C4DFF8D1
:10A7B00068E204EB0313BEEB9C0FD3F8FC0EC4F865
:10A7C000F40E4FF002032CFA03F184F8F03E80F00F
:10A7D0006284914BB3EB510F80F02D84B3EB910F5A
:10A7E00080F03084B3EBD10F80F03A84B3EB111FCB
:10A7F00080F04084B3EB511F80F04A84B3EB911F8B
:10A8000034BF4FF4807380235B000188DFF810C2EF
:10A8100021F040010904090C0180018821F0380170
:10A82000090460454FEA114100F04E83DFF8F4C19E
:10A83000604500F04983B3F5807FA8BF4FF4807373
:10A84000002B93FAA3F3B3FA83F308BF4FF0FF335F
:10A85000013B41EAC3039BB203800188B4F8283B63
:10A86000DFF8BCC189B241F040010180018821F0CC
:10A8700040010904090C0180018821F03801090414
:10A8800060454FEA114100F01D830CF5806C604576
:10A8900000F01883B3F5807FA8BF4FF48073022BBC
:10A8A000B8BF0223002B93FAA3F3B3FA83F308BFD4
:10A8B0004FF0FF33013B41EAC3039BB2038003889F
:10A8C0009BB243F04003038012B1136892885A830D
:10A8D000838940F2E9330289013B12F0020F9BB2F7
:10A8E00000F0E6828C23838140F2E9330289013B48
:10A8F00012F0010F9BB200F0D3828389838940F26A
:10A90000E9330289013B12F0020F9BB200F0BE82D4
:10A91000FF23838140F2E9330289013B12F0010FEA
:10A920009BB200F0A982B0F80CC05FFA8CFCD4F89E
:10A93000F82E12B1136891881983D6F89414374B06
:10A94000B3EB910F80F06783B3EBD10F80F06E8390
:10A95000B3EB111F80F07983B3EB511F80F07E833E
:10A96000B3EB911F80F08983B3EBD11F80F08E830E
:10A97000B3EB112F34BF4FF4807380230188DFF8CD
:10A98000A0E021F040010904090C0180018821F0B8
:10A990003801090470454FEA114100F091820EF52B
:10A9A000806E704500F08C82022BB8BF0223002B12
:10A9B00093FAA3F3B3FA83F308BF4FF0FF33013BDD
:10A9C00041EAC3039BB2038003889BB243F0400378
:10A9D000BCF11B0F038040F06783012384F82A3BFE
:10A9E0000AB12323D3800188B4F8283BDFF830C0B4
:10A9F00021F040010904090C0180018821F038018F
:10AA0000090460454FEA114100F060820CF5806C4A
:10AA1000604500F05B8207E08096980040420F009E
:10AA200000380040003C0040B3F5807FA8BF4FF4E1
:10AA30008073022BB8BF0223002B93FAA3F3B3FA5F
:10AA400083F308BF4FF0FF33013B41EAC3039BB2DE
:10AA5000038003889BB243F04003038012B1136864
:10AA600092885A83838940F2E9330289013B12F0CC
:10AA7000020F9BB200F0F2810A23838140F2E93396
:10AA80000289013B12F0010F9BB200F0DF81838944
:10AA9000838940F2E9330289013B12F0020F9BB235
:10AAA00000F0CC814023838140F2E9330289013BED
:10AAB00012F0010F9BB200F0B9818389838940F2C3
:10AAC000E9330289013B12F0020F9BB200F0A6812C
:10AAD0008A23838140F2E9330289013B12F0010F9E
:10AAE0009BB200F093818389838940F2E933028924
:10AAF000013B12F0020F9BB200F07F81FF238381A4
:10AB000040F2E9330289013B12F0010F9BB200F0E1
:10AB10006B818389DBB2D4F8F81EC3F3801C84F800
:10AB20002CCF03F0400321B10A68B1F804E0A2F889
:10AB300018E0D6F89494CD4AB2EB990F4FEA9908F1
:10AB400080F06E82B2EBD90F80F07882B2EB191FE1
:10AB500080F08282B2EB591F80F08882B2EB991F9D
:10AB600080F09282B2EBD91F80F09882B2EB192F5D
:10AB700034BF4FF480728022B0F800E0DFF8F4A216
:10AB80002EF0400E4FEA0E4E4FEA1E4EA0F800E0A7
:10AB9000B0F800E02EF0380E4FEA0E4E50454FEA66
:10ABA0001E4E00F097810AF5806A504500F09281B0
:10ABB000022AB8BF0222002A92FAA2F2B2FA82F264
:10ABC00008BF4FF0FF32013A4EEAC20292B2028051
:10ABD000028892B242F04002028094F8EC2E012AE0
:10ABE00000F0E581022A00F0F681002A00F09C8145
:10ABF000B4F8283B94F82D2F182A05D1A4F8307FFB
:10AC0000A4F832CFA4F8343F0288DFF868C222F0FB
:10AC100040021204120C0280078827F038073F0414
:10AC200060454FEA174700F05381914A904200F087
:10AC30004F811A46B2F5807FA8BF4FF48072022A76
:10AC4000B8BF0222002A92FAA2F2B2FA82F208BF38
:10AC50004FF0FF32013A47EAC20292B20280028804
:10AC6000844F92B242F040020280028822F04002F9
:10AC70001204120C0280028822F038021204B84238
:10AC80004FEA124200F0488107F58067B84200F0B1
:10AC90004381B3F5807FA8BF4FF48073022BB8BF08
:10ACA0000223002B93FAA3F3B3FA83F308BF4FF008
:10ACB000FF33013B42EAC3039BB2038003889BB28C
:10ACC00043F04003038011B10B688A885A8383895B
:10ACD00040F2E9330289013B12F0020F9BB200F00F
:10ACE00013810023838140F2E9330289013B12F092
:10ACF000010F9BB200F000818389838940F2E93320
:10AD00000289013B12F0020F9BB200F0ED8002239A
:10AD1000838140F2E9330289013B12F0010F9BB2BB
:10AD200000F0DA808389D4F8F83E13B11A689B8862
:10AD30001383D6F894244D4BB3EB920F80F07281BD
:10AD4000B3EBD20F80F07C81B3EB121F80F08281D5
:10AD5000B3EB521F80F08C81B3EB921F80F0928195
:10AD6000B3EBD21F80F09C81B3EB122F34BF4FF4B2
:10AD70008073802302883F4922F040021204120CA3
:10AD80000280028822F03802120488424FEA1242FE
:10AD900000F0C48001F58061884200F0BF80022B82
:10ADA000B8BF0223002B93FAA3F3B3FA83F308BFCF
:10ADB0004FF0FF33013B42EAC3039BB20380038899
:10ADC0009BB243F0400303806A78AB78297884F81B
:10ADD000381FC2F12002C3F1100384F8392F84F820
:10ADE0003A3F0020BDE8F087002B7FF48BAE44F0A3
:10ADF00003FAC3B2D4F8F40E8DE6002B7FF477AEDD
:10AE000044F0FAF9C3B2D4F8F40E84E6002B7FF4D0
:10AE100063AE44F0F1F9D4F8F40E65E6002B7FF44C
:10AE200050AE44F0E9F9D4F8F40E5DE6002B7FF45F
:10AE30003DAE44F0E1F9D4F8F40E3FE6002B7FF488
:10AE40002AAE44F0D9F9D4F8F40E37E6002B7FF49B
:10AE500017AE44F0D1F9D4F8F40E19E6002B7FF4C4
:10AE600004AE44F0C9F9D4F8F40E11E640420F00E4
:10AE7000003C004000380040002B7FF44DAD44F012
:10AE8000BBF95FFA80FCD4F8F40E50E5002B7FF498
:10AE900038AD44F0B1F95FFA80FCD4F8F40E46E521
:10AEA000002B7FF423AD44F0A7F9D4F8F40E25E588
:10AEB000002B7FF410AD44F09FF9D4F8F40E1DE59B
:10AEC0005B0871E55B08E5E45B08B4E45B08ABE5AF
:10AED0005A08AFE652086BE6002B7FF41CAF44F033
:10AEE0008BF9D4F8F40E1EE7002B7FF409AF44F081
:10AEF00083F9D4F8F40E16E7002B7FF4F6AE44F095
:10AF00007BF9D4F8F40EF8E6002B7FF4E3AE44F0BE
:10AF100073F9D4F8F40EF0E65B08BAE65B083EE796
:10AF20000020C4F8F80E2DE46B4B984540F2BA802F
:10AF3000B3EBD90F80F0BF80B3EB191F80F0BD8059
:10AF4000B3EB591F80F0BB80B3EB991F80F0B98041
:10AF5000B3EBD91F80F0B780B3EB192F34BF4FF498
:10AF6000807380235B00A4F8283B43E6D6F8940462
:10AF7000DFF864C14FF0020E0023BCEB900F20FA03
:10AF80000EF184F8F0EEC4F8F43E38BF1846FFF432
:10AF900020AC198821F040010904090C1980198896
:10AFA00021F0380109041846090C04233EE40FB1CE
:10AFB000002BB9D0484B98454FF00203D3D9464AED
:10AFC0004FEA58085B0090459BB2CCD9FF2BF7D9CC
:10AFD000A4F8283B0EE6404B984598BF1346C2D9CB
:10AFE000B3EBD90F5ED2B3EB191F1DD2B3EB591FD0
:10AFF0006BD2B3EB991F6AD2B3EBD91F69D2B3EB13
:10B00000192F34BF4FF480738023A4F8283BF1E557
:10B010000221FFF763BB0223B0E40421FFF75EBB0C
:10B020000222A9E50223A5E608239CE70423A5E460
:10B030000821FFF753BB0423FFF7E6BB04229BE57F
:10B04000042397E60823FFF7DFBB082396E41021CB
:10B05000FFF744BB08238DE608228DE510238DE41D
:10B060001023FFF7D1BB2021FFF738BB102283E567
:10B0700010237FE62023FFF7C7BB20237EE4402177
:10B08000FFF72CBB202375E6202275E5402375E4ED
:10B090004023FFF7B9BB0423FFF7B7BB40226BE5A2
:10B0A000402367E604235EE7104620213EF002FBC2
:10B0B0004FF0FF3096E6042354E7082352E71023AD
:10B0C00050E720234EE740234CE710234BE7202393
:10B0D00049E7402347E700BF8096980001460148B2
:10B0E00044F0ACB8AC4D0020094B93F8C630042BAB
:10B0F00008D9053B032B08D801231A4600B1037079
:10B100001046704700230122F8E700231A46F5E7AE
:10B11000782D0020F0B40D6800240CE0BCF1050F80
:10B1200018D8A0F137030A2B14D104EB840415F8C6
:10B13000010B03EB4404A0F13003DEB2092EA0F1B1
:10B140006107A0F1410CF0D9052FE7D8A0F1570312
:10B150000A2BEAD00D601460F0BC70479FED737A43
:10B1600007EE901A20EE070AF8EE677A27EE800ABB
:10B17000FDEEC07A17EE903A2033402B00F2C780E4
:10B18000DFED6B7AB4EEE70AF1EE10FAF0EE407AFA
:10B190000CDD9FED686ADFED686AB0EE677AB4EEA9
:10B1A000E67AF1EE10FA77EEC67AF6DC9FED637A76
:10B1B000F4EEC77AF1EE10FA0CD59FED5E6ADFED82
:10B1C000606AB0EE677AB4EEE67AF1EE10FA77EEE6
:10B1D000867AF6D49FED5B7AF4EEC77AF1EE10FA38
:10B1E00000F38D809FED587AF4EEC77AF1EE10FAF5
:10B1F00044BF9FED527A77EE677A27EEA76ADFEDBC
:10B20000535A9FED537ADFED536AA6EE257A67EE27
:10B21000865AE6EE076AB6EE007AE5EEA67A27EEE3
:10B22000877ADFED486A70EE267ABDEEE76A16EEA1
:10B23000103A2033402B67D8B4EEE60AF1EE10FA4C
:10B240000CDDDFED3C5A9FED3C6AF0EE676AF4EEF0
:10B25000C66AF1EE10FA77EEE57AF6DCDFED376AD2
:10B26000F4EEE67AF1EE10FA0CD5DFED325A9FEDEE
:10B27000346AF0EE676AF4EEC66AF1EE10FA77EE21
:10B28000A57AF6D4DFED2F6AF4EEE67AF1EE10FA45
:10B2900040DDDFED276A76EEE77A67EEA75A9FED8D
:10B2A0002B5A9FED2B6ADFED2B6AA5EE856A27EE00
:10B2B000A55AE5EE866AB8EE006AE5EE267A67EEF4
:10B2C000867AC7EE206A0023836143610362C3610B
:10B2D000B7EE006A76EE865A76EE666A86EE257AD4
:10B2E00067EE277A66EE876AC0ED017AC0ED037AD1
:10B2F00080ED007A80ED027AC0ED046A70479FED20
:10B300000C7A77EE677A78E7DFED137AD9E79FED6D
:10B31000127A86E7DFED0C6AF4EEE67AF1EE10FAC7
:10B3200044BFDFED066A76EEE77AB6E727D4D23679
:10B33000DB0F4940DB0FC940E4CB1641DB0F49C0AE
:10B34000E4CB16C1DB0FC93FDB0FC9BF92E741B9A0
:10B350009730083C15A82ABE00000000E34B2DE9F9
:10B36000F04703F64C73D3ED000ADFF8E083F8EE04
:10B37000600A98F89C5508F5B3632DED028BC3ED78
:10B38000000A002D78D1DFF8C8E3C8F8A45598F872
:10B39000A8C59EF80050BCF1000F40D0B8F8A03509
