:020000040800F2
:10000000F0FF0120017F0508D5DF0008593D0408F5
:10001000797F0508797F0508797F050800000000D1
:10002000000000000000000000000000D1DF000818
:10003000CDDF000800000000C9DF0008050104084A
:10004000797F0508797F0508797F0508797F05089C
:10005000797F0508797F0508997704084D780408A9
:1000600011780408D57704085D770408296305082A
:100070001963050809630508F9620508E5620508C2
:10008000D1620508BD620508797F050800000000FF
:10009000000000000000000000000000216B0408C8
:1000A0006DE90308B9E903085DE90308DDE9030820
:1000B000ADE903089DE903088DE90308797F050888
:1000C000797F0508797F0508797F0508797F05081C
:1000D000797F050825020408690104080000000072
:1000E000E56A0408797F05080D1401080000000086
:1000F000000000000000000000000000A9620508E8
:1001000000000000797F05087DE90308797F050874
:1001100000000000000000000000000000000000DF
:1001200095620508816205086D6205085962050837
:10013000456205080000000000000000000000000B
:1001400000000000000000000000000025F600088C
:10015000316205081D62050809620508797F0508F6
:10016000797F0508797F0508000000000000000085
:10017000000000000000000000000000000000007F
:1001800000000000797F050800000000000000006A
:08019000797F0508797F05085D
:08019800A07A0500010000003F
:1001A0000B3001001A000000EC3700206C700020BA
:1001B0000000000008A706081F50010024000000EE
:1001C000AC370020887000200000000024A706083B
:1001D0000502010004000000C46D0020AC70002086
:1001E0000000000048A70608030101000A00000003
:1001F00018370020B070002000000000158E0008A5
:1002000013020100040000007C2C0020BC700020C0
:10021000000000004CA706080D1001002800000097
:1002200018600020C070002000000000B96F0308B3
:100230000902010001000000246D0020E870002088
:100240000000000050A70608F901010004000000AA
:10025000D85F0020EC7000200000000035DB0308B0
:10026000FD0101001E000000B85F0020F0700020BA
:1002700000000000A3DA0308FB01010001000000F8
:10028000FC5A00201071002000000000F9F704085B
:10029000FC01010009000000C85900201471002071
:1002A0000000000009F80408F70101000600000042
:1002B000BC590020207100200000000052A7060851
:1002C000160215003F000000E434002028710020D1
:1002D0000000000089F7040834000100100000004D
:1002E000EC58002068710020000000005D38020812
:1002F0001102010008000000C4580020787100209D
:100300000000000058A706081212010004000000B7
:10031000BC580020807100200000000060A7060883
:10032000183001003400000088580020847100203B
:1003300000000000A9F80408000201000B00000002
:10034000184F0020B87100200000000091EA040856
:100350002A0201000800000028440020C471002087
:100360000000000064A706082052010008000000F9
:10037000D0430020CC710020000000007D1A02084C
:10038000061001002400000094330020D4710020E6
:100390000000000025F804080C0201000400000021
:1003A000603D0020F87100200000000069EA0408A8
:1003B000FE0101001400000090640020FC71002088
:1003C00000000000F1EA04081B1001000C0000000E
:1003D000C48B002058A2002000000000BD4A010884
:1003E00021020100F0000000F889002064A2002032
:1003F000000000001D31010837100100300000002E
:10040000FC92002054A30020000000006CA7060806
:100410000E02010002000000008E002084A30020D4
:10042000000000009CA7060816100100060000004E
:10043000F88D002088A30020000000009EA7060879
:100440002F1001002200000034A2002090A3002001
:1004500000000000A4A706082322010010000000ED
:10046000288D0020B4A3002000000000C8A70608C3
:100470001E000100090000001C8D0020C4A3002004
:1004800000000000D8A70608052001000C000000AD
:10049000408D0020D0A3002000000000E4A7060843
:1004A000FD0701007C000000C4880020DCA30020C0
:1004B00000000000D51A0108F59101006C00000051
:1004C0008489002058A4002000000000FD2F0108AE
:1004D00023200100100000005E920020C4A4002030
:1004E00000000000C10402081220010011000000F9
:1004F000048D0020D4A4002000000000F0A706080E
:10050000140001000500000010B5002034B50020E3
:100510000000000004A80608012001000C000000F3
:10052000ACAB00203CB50020000000000AA8060883
:100530000C400600E4000000D0A9002048B50020CF
:1005400000000000216A03080A9001002400000056
:100550008CA900202CB600200000000079040208BD
:100560000E300300BC010000C8A7002050B60020D8
:100570000000000089380208130001000400000098
:10058000B8B200200CB800200000000018A806082F
:10059000010101000400000000A7002010B80020A5
:1005A0000000000000000000000101000400000045
:1005B000F8A6002014B80020000000001CA80608BF
:1005C0000201010003000000F4A6002018B800207A
:1005D00000000000616A0308220201001C01000003
:1005E000A0B000201CB800200000000041F7040863
:1005F000010201000B0000000CA7002038B9002008
:100600000000000081EA040802020100030000006B
:100610007CAC002044B90020000000000000000075
:100620001B0201001000000028AC002048B9002087
:100630000000000045EA04081A0001000E00000056
:1006400074C70020A4C700200000000020A80608EE
:1006500015001000700000007CC50020B4C7002009
:1006600000000000000000002A00080060000000F8
:100670008CC4002024C8002000000000551A020885
:100680002C0004001000000094C8002084C8002042
:10069000000000001D1802082B00120024000000BA
:1006A000C8C80020A4C8002000000000F1170208FC
:1006B000292014007800000070C10020ECC8002040
:1006C00000000000000000001902010010000000FE
:1006D00014C1002064C900200000000029EA0408B9
:1006E000F62101000C00000004C0002074C90020A5
:1006F0000000000030A806081C0202001C000000D8
:100700001CC00020C4C900200000000059F40408E7
:10071000F8310100060000006CCC002044D000201D
:10072000000000003CA806080300010001000000D2
:100730008CCC00204CD00020000000000000000005
:10074000101001000200000000CB002050D000205B
:100750000000000042A80608190001000500000082
:10076000E0C9002054D000200000000044A8060882
:10077000020001000C00000008D40020C8D50020B1
:10078000000000000000000025201E002C010000D9
:1007900014D40020D4D50020000000000000000088
:1007A000290201004000000030D3002000D70020C3
:1007B000000000004AA806080A0201001400000018
:1007C0002CD2002060D7002000000000CD6B030871
:1007D0002802040004000000D4DE0020ACE1002068
:1007E0000000000065EA040827020400040000007D
:1007F000D0DE0020B0E100200000000059EA04082B
:100800001F020800100000000CDC0020B4E10020F2
:100810000000000009EA04081A0201003C00000080
:10082000B4D70020C4E100200000000005F904084E
:10083000031201003D0000005CE0002000E2002007
:10084000000000008AA8060838100100010000001E
:1008500080D7002040E2002000000000C8A8060861
:100860000400080080000000D0E2002050E30020D7
:100870000000000000000000100201000100000064
:1008800054FD002050FD002000000000CAA806080A
:100890002B0201000B00000044E4002058FD002062
:1008A00000000000CCA806081D020200060000009F
:1008B000D8FA002064FD00200000000000000000C5
:1008C000081203000F000000E0FA00206C0801206D
:1008D0000000000099EA040827000100040000005D
:1008E0005CE900207C08012000000000D8A8060870
:1008F0000403090412010002EF020140830456328E
:100900000002010203010000120100020202004085
:100910008304405700020102030100000902640041
:10092000030100C032090400000103000000092196
:10093000110100012236000705830309000A080B94
:100940000102020201000904010001020201000586
:1009500024001001052401000204240202052406DB
:100960000102070582030800FF09040200020A00D1
:100970000000070501024000000705810240000059
:1009800009024300020100C0320904000001020212
:1009900001000524001001052401000104240202C5
:1009A0000524060001070582030800FF0904010071
:1009B000020A00000007050102400000070581024D
:1009C00040000000FF000000140000FF00000000D5
:1009D00000000000AA550701000001AA550501000A
:1009E000002D202D2D202D2D2D2D202D2D2D2D00B8
:1009F00000000000000000000000000000000000F7
:100A00000800000078A70508FF1FFF1F7D000000F9
:100A1000AD830008A9830008A58300089983000816
:100A200095830008A18300089D83000821840008A5
:100A300015840008ED83000801840008D9830008AC
:100A4000C5830008B1830008010000000000803F5A
:100A500005010905A101A10005010930093109328B
:100A6000093309350934093609371581257F750899
:100A70009508810205091901290815002501950825
:100A800075018102C0C0000009022200010100E0DE
:100A900032090400000103010200092111010001D3
:100AA0002236000705830309000A000000600240A7
:100AB0001060024000000000000000000000000084
:100AC000000B00000000000000000000000000001B
:100AD00000600240286002400100000000000000A9
:100AE00000000000060C00000000000000000000F4
:100AF0000000000000600240406002400200000070
:100B00000000000000000000100D000000000000C8
:100B10000000000000000000006002405860024039
:100B2000030000000000000000000000160E00009E
:100B30000000000000000000000000000060024013
:100B4000706002400400000000000000000000008F
:100B5000200F000000000000000000000000000066
:100B600000600240886002400500000000000000B4
:100B7000000000002610000000000000000000003F
:100B80000000000000600240A0600240060000007B
:100B90000000000000000000301100000000000014
:100BA000000000000000000000600240B860024049
:100BB000070000000000000000000000362F0000C9
:100BC000000000000000000000000000006402407F
:100BD000106402400000000000000000000000005F
:100BE00000380000000000000000000000000000CD
:100BF0000064024028640240010000000000000080
:100C000000000000063900000000000000000000A5
:100C10000000000000640240406402400200000046
:100C20000000000000000000103A0000000000007A
:100C30000000000000000000006402405864024010
:100C4000030000000000000000000000163B000050
:100C500000000000000000000000000000640240EE
:100C6000706402400400000000000000000000006A
:100C7000203C000000000000000000000000000018
:100C8000006402408864024005000000000000008B
:100C900000000000264400000000000000000000EA
:100CA0000000000000640240A06402400600000052
:100CB00000000000000000003045000000000000BF
:100CC000000000000000000000640240B864024020
:100CD0000700000000000000000000003646000091
:100CE0000000000000000000000000000000000004
:100CF00001020304010203040607080981E1000858
:100D000039E80008B1E30008C5840008A58A000896
:100D1000D5840008F18400089D8400088D840008B3
:100D20000000000000000000AA550B010000AA55B9
:100D300005010000AA550902000000AA5503009F02
:100D400001000000C01200006470002000000000DC
:100D50003C700020000000000100000000000100C5
:100D60007EFF0000FFFFFFFFFF000000FFFFFFFF0F
:100D700028250608A424060800000000E96A0308E4
:100D8000A086010004000000000000000000000038
:100D90000000000000000000000000000000000053
:100DA0000000000000000000000000000000000043
:100DB0000000000028250608302506080000000075
:100DC00035D90308E803000004000000000000001B
:100DD0000000000000000000000000000000000013
:100DE0000000000000000000000000000000000003
:100DF0000000000000000000382506080000000088
:100E00000000000009D102087D000000FF00000082
:100E100000000000000000000000000000000000D2
:100E200000000000000000000000000000000000C2
:100E300000000000000000000000000090A3060871
:100E40000000000000000000410203087D000000D7
:100E5000FF00000000000000000000000000000093
:100E60000000000000000000000000000000000082
:100E70000000000000000000000000000000000072
:100E8000B030060800000000000000001D24030828
:100E90007D000000FF0000000000000000000000D6
:100EA0000000000000000000000000000000000042
:100EB0000000000000000000000000000000000032
:100EC00000000000402506080000000000000000AF
:100ED000F9DE0308E8030000030000000000000042
:100EE0000000000000000000000000000000000002
:100EF00000000000000000000000000000000000F2
:100F0000000000000000000044250608000000006A
:100F10000000000061DA0208102700000300000052
:100F200000000000000000000000000000000000C1
:100F300000000000000000000000000000000000B1
:100F4000000000000000000000000000689F06088C
:100F500000000000ED130208BD3D04085F760000AC
:100F6000050000000000000000000000000000007C
:100F70000000000000000000000000000000000071
:100F80000000000000000000000000000000000061
:100F900034A3060800000000000000005D6B040898
:100FA0001027000001000000000000000000000009
:100FB0000000000000000000000000000000000031
:100FC0000000000000000000000000000000000021
:100FD000000000005025060800000000000000008E
:100FE00039D90308E80300000500000000000000F4
:100FF00000000000000000000000000000000000F1
:1010000000000000000000000000000000000000E0
:1010100000000000000000005C2506080000000041
:1010200000000000216E0308204E000003000000B5
:1010300000000000000000000000000000000000B0
:1010400000000000000000000000000000000000A0
:101050000000000000000000000000006C250608F1
:101060000000000000000000096C0308204E000092
:10107000030000000000000000000000000000006D
:101080000000000000000000000000000000000060
:101090000000000000000000000000000000000050
:1010A0007C250608000000000000000045DB030866
:1010B000400D0300030000000000000000000000DD
:1010C0000000000000000000000000000000000020
:1010D0000000000000000000000000000000000010
:1010E000000000008C250608000000000000000041
:1010F00029A30308102700000100000000000000E1
:1011000000000000000000000000000000000000DF
:1011100000000000000000000000000000000000CF
:101120000000000000000000D024060800000000BD
:10113000000000002D9A01081027000003000000A5
:10114000000000000000000000000000000000009F
:10115000000000000000000000000000000000008F
:1011600000000000000000000000000094250608B8
:10117000000000000000000011D80308A861000072
:10118000010000000000000000000000000000005E
:10119000000000000000000000000000000000004F
:1011A000000000000000000000000000000000003F
:1011B000A02506080000000000000000ED0604085D
:1011C000A00F00000100000000000000000000006F
:1011D000000000000000000000000000000000000F
:1011E00000000000000000000000000000000000FF
:1011F00000000000AC250608000000000000000010
:1012000049730108102700000100000000000000E1
:1012100000000000000000000000000000000000CE
:1012200000000000000000000000000000000000BE
:101230000000000000000000B825060800000000C3
:1012400000000000096B01081A41000001000000C5
:10125000000000000000000000000000000000008E
:10126000000000000000000000000000000000007E
:10127000000000000000000000000000BC2506087F
:101280000000000000000000498E00081027000048
:10129000010000000000000000000000000000004D
:1012A000000000000000000000000000000000003E
:1012B000000000000000000000000000000000002E
:1012C000B8240608000000000000000015E701082F
:1012D00050C30000010000000000000000000000FA
:1012E00000000000000000000000000000000000FE
:1012F00000000000000000000000000000000000EE
:1013000000000000C82506080000000000000000E2
:10131000AD9C0008400D030000000000000000002C
:1013200000000000000000000000000000000000BD
:1013300000000000000000000000000000000000AD
:101340000000000000000000D0250608000000009A
:10135000000000002D6B0308400D0300000000009A
:10136000000000000000000000000000000000007D
:10137000000000000000000000000000000000006D
:10138000000000000000000000000000D825060852
:10139000000000000000000035C6010850C3000036
:1013A000030000000000000000000000000000003A
:1013B000000000000000000000000000000000002D
:1013C000000000000000000000000000000000001D
:1013D000E42506080000000000000000C57C0308AA
:1013E00040420F000000000000000000000000006C
:1013F00000000000000000000000000000000000ED
:1014000000000000000000000000000000000000DC
:1014100000000000F02506080000000000000000A9
:10142000BD73030850C3000000000000000000006E
:1014300000000000000000000000000000000000AC
:10144000000000000000000000000000000000009C
:101450000000000000000000FC250608000000005D
:1014600000000000E5530108102700000000000004
:10147000000000000000000000000000000000006C
:10148000000000000000000000000000000000005C
:1014900000000000000000000000000001FF01004B
:1014A000E00101001D8F01080000000000000000A5
:1014B000C8AE050808FF00000000000000000000A2
:1014C0000000000084C705080000000000000000C4
:1014D000000000003CC805080000000000000000FB
:1014E00000000000E8C70508000000000000000040
:1014F000C1B4010816AF002001010000B1D20108FB
:10150000000000000000000010C9050815D6010801
:101510000000000000000000C8C805082D202D2D87
:10152000202D2D2D2D202D2D2D0000000000000040
:10153000000000000000000000000000FFFFFFFFAF
:10154000E9BF0108000000000000000014C7050802
:1015500001000000FA00000001000000010000008E
:1015600016AB00200000F4010100000014AB0020C5
:101570000000F4010100000012AB00200000F401A3
:101580000100000010AB00200000F4010100000089
:101590000EAB00200000F401010000000CAB0020A5
:1015A0000000F401010000000AAB00200000F4017B
:1015B0000100000051980108159801080000000082
:1015C00008B10508FAAA00200532010008AB002086
:1015D0006400F4010100000006AB00206400C409AF
:1015E00001000000F8AA0020E803D0070100000075
:1015F000F6AA0020E803D00701000000F4AA0020AA
:10160000E803D00701000000F2AA00201E00B80B7A
:101610000100000000AB002005000F0001000000E9
:1016200002AB002003000A0001000000F0AA002025
:101630001E00F4010100000004AB002002000000C5
:1016400094B10508EEAA0020140064000100000017
:10165000FCAA00203200E80301000000ECAA0020F0
:101660000000C80001000000CDA9002000C8010052
:10167000CCA9002000500100CBA90020005A010095
:10168000C9A9002002000000A0B1050858270608DB
:101690006027060814AF00200100C4090000000004
:1016A00012AF00200100C4090000000010AF0020AC
:1016B0000100C409000000000EAF00200100C409B1
:1016C000000000000AAF00200100C4090000000073
:1016D0000CAF00200100C4090000000008AF00208A
:1016E0000100C4090000000006AF00200100C40989
:1016F000000000002DA7002000C801002CA700203A
:1017000000C801002AA700200000FFFF0A00000017
:1017100028A700200100C8000100000026A7002023
:10172000320030753200000024A700207EFF140034
:101730000500000022A7002005002C010500000084
:1017400020A70020055A05001DA7002000FF01006A
:101750001FA7002002000000340F00201BA700205C
:1017600003000000ECA805081CA7002000FF0100F2
:101770001EA7002002000000340F00201AA700203E
:1017800003000000ECA805086CA60020FF7F010004
:1017900068A6002000000000FFFFFFFF010000001E
:1017A00064A6002000000000FFFFFFFF0100000012
:1017B00060A6002000000000FFFFFFFF0100000006
:1017C000A59701083597010800000000ACB1050895
:1017D000BCAB0020EE02CA0801000000BAAB00203A
:1017E00000C8010064000000B9AB002000C801007F
:1017F00064000000B8AB002002000000B8B2050889
:1018000006A700200000803E0500000004A700207D
:1018100080C1803E05000000FEA600200083007D00
:1018200005000000FCA6002080C1803E05000000ED
:10183000F7A6002000FF0100F0A600206400F401DC
:1018400001000000EEA600206400F4010100000089
:10185000ECA600206400F40101000000EAA60020CC
:1018600004000000C4B20508E9A600200200000040
:10187000D8B20508B9A700200D000000E4B20508A1
:10188000B6A7002000640100B4A700203200102792
:101890000A000000B2A700200D000000E4B2050815
:1018A000B1A700200D000000E4B20508B0A7002099
:1018B000020000001CB30508C1AB0020440000007A
:1018C00028B30508BFAB0020030000003CB40508A6
:1018D000C0AB0020040000004CB40508BBA70020EA
:1018E0000300000060B40508BAA700200300000050
:1018F00060B40508BAA90020000A0100B8A90020B8
:101900000000E80301000000B6A900200000E80381
:1019100001000000B4A90020000A0100B2A90020C3
:101920000000E80301000000B0A900200000E80367
:101930000100000084A900200000E803010000006D
:101940008AA900200000E8030100000088A9002007
:101950000100E8030100000086A900200105010044
:10196000C8A900200200000070B40508C6A9002024
:101970000000F40101000000C4A900200000F401EF
:1019800001000000C2A900200000F40101000000D5
:10199000C0A900200000F40101000000BEA9002041
:1019A0000000E80301000000BCA900200000E803DB
:1019B00001000000DAAA0020006401000A00000013
:1019C000D9AA0020006401000A000000C7AA002074
:1019D00019640100C6AA0020020000007CB40508BA
:1019E000C4AA0020E803D0070A000000C2AA002011
:1019F000006401000A000000B7AA00200064010092
:101A0000B6AA002000640100BEAA00200064010004
:101A10000A000000BDAA0020006401000A000000C6
:101A2000BCAA0020006401000A000000C1AA002036
:101A300000FF01000A000000C0AA002000FF010012
:101A40000A000000BFAA002000FF01000A000000F9
:101A5000BBAA002001FF01000A000000BAAA002072
:101A600001FF01000A000000B9AA002001FF0100E7
:101A70000A000000C4A700200000F40101000000DB
:101A8000C2A700200000E80301000000C0A700205A
:101A90000000E80301000000BEA700200000E803EA
:101AA00001000000BCA700200000E80301000000C6
:101AB00067AF0020009601005EAF002000C8010063
:101AC0005DAF0020006401005CAF002000640100F5
:101AD0005BAF0020006401005AAF002000640100E9
:101AE00059AF0020FF08010058AF00200164010039
:101AF000A99501086D9501080000000088B405084B
:101B000061AF00200132010060AF00200100000041
:101B1000F8B405085FAF00200400000000B5050818
:101B200057AF00200096010056AF0020006401006E
:101B300054AF00201400E8030100000052AF002061
:101B4000000030750A00000050AF002000C80100FE
:101B50004FAF002000C801004EAF002000C80100B8
:101B600064AF00200032010066AF002000140100C5
:101B700065AF0020004B010063AF002004000000AF
:101B800014B5050862AF0020006401000A000000DF
:101B9000E6AA002000C805000A000000E5AA00200F
:101BA0000100000024B50508E8AA002000C80500CF
:101BB0000A000000E7AA00200100000024B5050883
:101BC000E4AA002000C805000A000000DEAA0020E8
:101BD00000C805000A000000E2AA002000C80500B5
:101BE0000A000000DFAA002000C805000A0000006B
:101BF000E3AA002000C805000A000000E0AA0020B7
:101C000000C805000A000000E1AA002000C8050085
:101C10000A000000DDAA002000C805000A0000003C
:101C2000DCAA0020020000002CB5050876AF0020D9
:101C30000000D0070100000070AF002000C80100C4
:101C40006FAF002000C801006EAF002000C8010087
:101C500074AF00200000D007010000006DAF00202D
:101C600000C801006CAF002000C801006BAF00206D
:101C700000C8010072AF00200000D0070100000082
:101C80006AAF002000C8010069AF002000C8010051
:101C900068AF002000C801003D93010825930108AA
:101CA000C5BF010838B50508ADA70020005A0100DE
:101CB000ACA7002000C80100AAA70020E803D007B5
:101CC00001000000000000000000000001B5010854
:101CD000D4B5050819A70020030000001CB60508AC
:101CE00018A700200003010017A70020000301002F
:101CF0006192010815920108000000002CB6050849
:101D0000D59101088D91010800000000C8B60508B2
:101D1000AD920108A9BF01080000000048B70508FE
:101D200008A7002001030100E18E0108B98E010817
:101D300000000000BCBA050811990108E5980108E7
:101D4000000000003CBB0508FD900108A5900108BB
:101D500000000000ACBB05084D930108C9DD010877
:101D60000000000064BC0508ADB501083D990108FC
:101D7000000000000CBD05089D9301080000000054
:101D80000000000098BD0508819401082194010815
:101D900000000000FCBD050829950108E594010834
:101DA00000000000B4BE0508E5020208E595010840
:101DB0000000000040BF0508EAAA0020010601005B
:101DC000E5930108B19301080000000058C0050820
:101DD000010202086DC1010800000000C8C005082A
:101DE00091960108159601080000000044C20508FC
:101DF000290302084DC20108000000006CC3050859
:101E0000E9AA002001030100F5920108C59201082A
:101E10000000000040C4050849BF010800000000A0
:101E200000000000A4C405085591010891BF0108F5
:101E30000000000040C50508000000000000000090
:101E400000000000DCC505080D97010849C3010822
:101E5000000000005CC60508000000000000000053
:101E60000000000084C80508703700209CFF2C018A
:101E70000000000050B20020E0150C170000000028
:101E800052B2002002000000BCC80508E4A60020F1
:101E900088136F1701000000E6A6002088136F1753
:101EA000000000000A3700200000000000000000D1
:101EB0000837002000000000000000000637002066
:101EC00000000000000000000437002000000000B7
:101ED00000000000023700200000000000000000A9
:101EE000003700200000000000000000EC0500208A
:101EF00000000000000000006DA6002003000000AC
:101F0000ACC90508DCA6002088136F17010000008B
:101F1000BA6D002088136F1700000000E58F0108DC
:101F20000000000000000000BCC90508D1AE002080
:101F30000100000010CA0508BC6D0020010000006F
:101F40001CCA0508B26D00200200000024CA050862
:101F500000000000000000000000000030CA05087A
:101F6000CD8F01080000000000000000CCCA050869
:101F700000000000000000000000000020CB050869
:101F800000000000000000000000000090CB0508E9
:101F9000E8A6002002000000C8CB0508B66D0020AE
:101FA000E0150C1700000000E0BA002034BB002050
:101FB00001F11F3F01D601010100000000010101F4
:101FC00000FF010010720020FFFFFFFF0100000072
:101FD0000000803F00000000000000000000000042
:101FE00000000000000000000000000000000000F1
:101FF00000000000000000000000803F0000000022
:1020000000000000000000000000803F0000000011
:1020100000000000000000000000803F0000000001
:1020200000000000000000000000FA430000FA4336
:1020300039A50308000000000000000000000000B7
:102040000000803F60FECD000000000050D700205F
:10205000080000000000000040D700200800000039
:10206000718A00085189000891E30008000000000F
:10207000898400084DE10008C9880008C1E0000813
:10208000000000000000000049840008E189000809
:1020900011890008E1E200080000000061840008E6
:1020A000C5E000089D8800081DE000080000000051
:1020B0000000000055840008FFFFFFFF0100000042
:1020C000A00F0000B80B00000102FFFF01FF00009D
:1020D000FFFFFF005C9F06080000080205030300E5
:1020E00000000000649F06080100080205040300C8
:1020F00000000000704906080200FE010110030004
:1021000000000000B82A06080300140200030000C3
:10211000000000006C9F060804001F020200080077
:1021200000000000749F060805001F02020108005D
:1021300000000000FFFFFFFF00010000204E000034
:102140000000000000000000000018500600000021
:10215000D007000001040C97A0252600010118609B
:1021600007000000A00F000002040E94C0C62D005E
:1021700002031870070000000A1A000003040C9004
:10218000E06735000305189006000000204E0000AF
:1021900000040C8B00093D00021300000000000049
:1021A000080C0000000000001E0A000000000000F3
:1021B000210E0000000000000000040100000200E9
:1021C0000100000210000000070001FF01000000F4
:1021D000F4010000381D06080000000000000000A7
:1021E00000000000010000000000000000000000EE
:1021F00000000000000000000100000000000000DE
:1022000000000000000000000F00000001000000BE
:102210008DF2040800000000000000000000000033
:1022200001000000000000000000000000000000AD
:10223000010203040607080901FF0000E81A002054
:10224000000000000000000000000000000000008E
:10225000000000000000000000000000000000007E
:10226000000000000000000000000000000000006E
:10227000000000000000000000000000000000005E
:10228000000000000000000000000000000000004E
:10229000000000000000000000000000000000003E
:082800000000000000000000D0
:108000002DE9F04700230F6801264FF0030C02E032
:108010000133102B41D006FA03F232EA0704F7D1FC
:10802000D0F800E05C000CFA04F52EEA050EC0F86A
:1080300000E091F80490D0F800A009FA04FE09F1DC
:10804000FF394EEA0A0EB9F1010FA846C0F800E068
:108050006FEA050515D8D0F808E005EA0E05856039
:108060004D79D0F808E0A54045EA0E0585604568E1
:1080700025EA020242608A7945689A4092B22A4310
:108080004260C26822EA0802C260CA79C568A2409A
:1080900001332A43102BC260BDD1BDE8F08700BF79
:1080A000037830B403B30246C0F10105531912F846
:1080B000014FDBB2002CF9D101335B00DAB20C4C7A
:1080C0000B80032322706370017859B102230025CD
:1080D0005A1CD2B2E154A55410F8011F0233DBB28E
:1080E0000029F5D130BC704702221346E7E700BFF4
:1080F000481B0020084AD2E9403199420AD0D118E1
:10810000013391F808110170C3F30A03C2F800317A
:108110000120704700207047481B0020064AD2F813
:108120000839D2F80C29934294BF4FF40060002024
:10813000013B9B1A18447047481B0020012380F81C
:108140005130704707B501A8FFF7D4FF0028FAD0D7
:108150009DF8040003B05DF804FB044BD3E9400331
:10816000984288BF03F50063181A7047481B002027
:1081700001207047024BC3F81029C3F81419704747
:10818000481B0020024BC3F81829C3F81C1970477C
:10819000481B00207047704730B4134DD5E9402389
:1081A0009A4286BF03F50064A21A9A1A0A44B2F5ED
:1081B000006F13D8A9B101444A1E013810F8014FCD
:1081C000E918824203F1010381F80841C3F30A036D
:1081D000F4D1C5F80431002030BC7047022030BC17
:1081E00070470846F8E700BF481B0020F8B51A4C56
:1081F00094F82039002BFBD159B301444E1E451E83
:10820000D4F80C29D4F8081915F8017F531CC3F3CE
:108210000A038B422CBF4FF400600020C91A22448D
:1082200001440129C4F80C3982F824790FD10120C6
:1082300037F0C4FED4F80839D4F80C198B4294BF37
:108240004FF4006200225B1A1344012BEFD0B542B9
:10825000D6D10020F8BD00BF481B002010B5074C48
:10826000E36A0846114643B1E36A052B05D1002AAB
:10827000236B02DDFFF7BAFF236B10BD402C0020FB
:1082800010B590F85010002380F8503061B1094CBF
:10829000E26A5AB1E26A052A0AD13C30236BFFF741
:1082A000A5FF236B012010BD0120FCE71046FAE773
:1082B0001846F8E7402C0020002280F85120DFE724
:1082C00090F85020531C0244DBB280F8503082F802
:1082D0003C1090F851200AB1132B00D9D0E7704719
:1082E000212838B50C4605D022282DD0202812D0C0
:1082F000002038BD0029FBD0072AF9D1194B586B53
:1083000093F8381093F8392093F83A3020602171AF
:108310006271A371ECE70029EAD0072AE8D1124A7A
:10832000D2F814391BB1D2F81009096898470D4BDF
:10833000256820796179A2795D6383F8380083F834
:10834000391083F83A20D3E70029D1D0022ACFD1BF
:10835000054AD2F81C39002BCAD00988D2F818096E
:108360009847C5E7402C0020481B0020014B002007
:10837000D8627047402C0020044B054A002005219C
:10838000D162C3F81C09C3F814097047481B0020C8
:10839000402C0020704700BF704700BF704700BFEF
:1083A000704700BF704700BF704700BF704700BFF5
:1083B00008B50248FFF774FE014808BD6C1D0608A9
:1083C000481B002008B50248FFF76AFE014808BDB7
:1083D0007C1D0608481B002008B50248FFF760FE18
:1083E000014808BD881D0608481B002008B5024842
:1083F000FFF756FE014808BD941D0608481B0020E3
:1084000008B50248FFF74CFE014808BDA01D06084C
:10841000481B0020042301480B807047980100206E
:1084200010B4074A074B92F83C00122403F11402DF
:108430000C8001280CBF184610465DF8044B7047AD
:10844000402C00209C010020642301480B807047D1
:10845000C4010020432301480B80704728020020FC
:1084600010B5074CD4F8D400FF2807D005490A6C92
:108470004431FFF735FFFF23C4F8D430002010BD8E
:1084800098010020402C0020EAE700BF08B5D0F892
:10849000E4355B6A9847002008BD00BF08B5D0F8F6
:1084A000E4351B6A9847002008BD00BFD0F8E435CA
:1084B00010B504461B689847D4F8E8359B68984780
:1084C000002010BD08B5D0F8E435DB6903B198474A
:1084D000002008BD08B5042290F81211D0F8E83544
:1084E00080F8131180F81221DB689847002008BD3E
:1084F00010B5D0F8E83504461B699847032384F883
:108500001231002010BD00BF0B0617D401EB810310
:1085100000EBC30310B400EB81000124002283F8B8
:10852000764383F8741383F87523426D5DF8044B2A
:10853000136843F4001300201360704701F07F01BB
:1085400001EB810300EBC303012200EB810083F800
:108550001C1183F81E2183F81D2182691368002BEA
:1085600001DA43F0804343F40013136000207047A6
:1085700082B00023016801930B6901930E4B03E065
:108580000A690192013B13D0019A002AF8DA019A94
:10859000094B42F001020192019A0A610A690192B3
:1085A00003E00A690192013B02D0019AD207F8D494
:1085B000002002B0704700BF400D0300436D064A23
:1085C0001A61C278012A06D100F2CC5058614FF0EE
:1085D000802219681A6070471800086010B5802161
:1085E0000446FFF791FF20460021FFF78DFF20464C
:1085F000BDE81040E2E700BF70B44B78012B26D0F5
:108600000B784A6900EB83035C6D25682369D2B15E
:108610008A684A6102F07F0223F4002323F07F037B
:1086200042F4002213432361C378012B04BF0B697A
:108630006361C5F3076363F07B0363F31F65256024
:10864000002070BC70478A6802F07F02E4E782690C
:108650004C691568136944B38E68B4428CBF06F048
:108660007F0404F07F0423F4002323F07F0344F409
:10867000002443EA040388BF4E611361C378012BD1
:108680001DD0C5F3076464F07B0464F31F651560B7
:10869000002BD5D14B69002BD2D002690878516BE1
:1086A000012383400B435363CAE723F4002323F0E1
:1086B0007F0343F400231361C378012BE1D10B78CE
:1086C0000C6900EB8300C5F30763816963F07B03EA
:1086D00063F31F654C610020156070BC704700BFDC
:1086E0002DE9F0434B78012B30D00B784C6900EB2F
:1086F00083035E6D356837691CB38B681C44013C8D
:10870000B4FBF3F4C4F3090203FB02F3C3F3120353
:108710004B61144643EAC44363F31C073761C378D3
:10872000012B04BF0B697361CB78012B44D0C5F3D7
:10873000076363F07B0363F31F6535600020BDE8CA
:10874000F0838A680124C2F31203E3E791F8008002
:108750004E6900EB880EDEF818C0DCF80050DCF83B
:10876000107076B3D1F80890384A06EB0904013C42
:10877000B4FBF9F402EAC444C6F312022243CC78F3
:1087800007F060473A43012C174649D0CCF8102037
:10879000C278012A55D00269516B03FA08F30B43E2
:1087A0005363C5F3076363F07B0363F31F65CCF882
:1087B00000500020BDE8F0834B7973B345F00055BD
:1087C000B5E707F0604747F40027CC78CCF8107085
:1087D000C378012B2FD0012CE3D102699268D20516
:1087E00054BF45F0005545F08055C5F3076262F06F
:1087F0007B0262F31F65CCF80050002B9ED1B0B213
:1088000003308010DEF8D04098D0CA6852F8041BBC
:10881000216001339842F9D190E745F0805586E711
:1088200064F35E77CCF81070C378012BD5D10A6958
:10883000CCF81420D1E70A69CCF81420012CB0D16F
:10884000CBE70B69CCF81430ABE700BF0000F81F92
:1088500038B501EB810400EBC4040D46002184F817
:108860007453C4F88C1384F87513C4F88833C4F8AF
:108870008023C3782821012B01FB050108BFEDB23D
:1088800001F55D7108BFC4F884231DB9FFF7B4FE7C
:10889000002038BDFFF724FF002038BD10B501EBE4
:1088A0008101084A00EBC1010446B1F88C1310465F
:1088B000FFF772FC034A204640230121FFF7C8FF5F
:1088C000002010BD8C2C0020E8E700BF30B44C78AD
:1088D0000022012C154612D0097800EB81040123F7
:1088E0008B40646D63F31F4501696FF3CF322260E3
:1088F000CB6923EA0503002030BCCB6170470B78BD
:1089000000EB83019C4064F30F058C69ECE700BF2A
:1089100040F2011310B500F5A2710446A0F84431ED
:10892000FFF7D4FF0123A4F89C3304F567712046B8
:10893000FFF7CCFF4FF48173A4F86C3104F5B671E6
:108940002046FFF7C3FFFFF711FD002010BD00BF59
:1089500038B540F2031304460D46A0F8943100F5F3
:10896000CA71FFF7B3FF29462046FFF7D1FF002069
:1089700038BD00BFF0B44B780A78012B4FF00004EB
:1089800000EB820524D0012393406D6D63F31F44F7
:108990002E68330415D48A6891F803C0CF880F4934
:1089A000C2F30A0242F0805343F400430CF0030286
:1089B00043EA824307F00F0243EA825331400B43FC
:1089C0002B600369DA691443DC610020F0BC704756
:1089D0009340AD6963F30F04DAE700BF007833EC2E
:1089E0002DE9F04140F20113044602254FF0400802
:1089F00001270026A0F84431C0F84C8180F8475187
:108A0000A0F84A7180F8486100F5A271FFF7B2FF43
:108A100004F56771A4F89C73C4F8A48384F89F5389
:108A200084F8A0632046FFF7A5FF082203234FF434
:108A30008171C4F87421A4F86C1184F86F3104F5C5
:108A4000B671A4F872512046FFF794FF064B9D8340
:108A5000FFF792FC054A434620463946FFF7F8FEE9
:108A60003046BDE8F08100BF980100208C2C00202A
:108A700070B50323092240F2031604460D46C0F8E0
:108A80009C2180F89731A0F89A31A0F8946100F504
:108A9000CA71FFF76FFF29462046FFF7A1FF0020AC
:108AA00070BD00BF70B5002540260446A0F8745381
:108AB00080F87753C0F87C6300F55D71FFF75AFFCB
:108AC0004FF48073A4F81C3104F58E71C4F824614E
:108AD00084F81F51A4F822512046FFF74BFFD4F829
:108AE000E835A078012284F812215B68984728466F
:108AF00070BD00BF82B000230193019A094B42F080
:108B000010020192C168019A0A610A69019203E0A8
:108B10000A690192013B02D0019AD206F8D40020E2
:108B200002B07047400D030082B000230193019A08
:108B30000B4B42F020020192019A61F38A120192DA
:108B4000C168019A0A610A69019203E00A69019207
:108B5000013B02D0019A9206F8D4002002B070477F
:108B6000400D03000E4BDA68D20310D4DA68D10648
:108B70000FD4DA68D20510D4DA6812F0E00F0AD107
:108B8000DB6813F0020F14BF082009207047012092
:108B9000704706207047072070470220704700BFCB
:108BA000003C024000207047134AD2F88C00C8B144
:108BB000D2F89030B3B1884212D88B4234BF002330
:108BC0000123DBB25BB1D2F89830C2F8941099421D
:108BD00005D00A4BC2F89810142083F8D8007047CB
:108BE0000023EEE7A1F59C53083BB3F57A7F2CBF39
:108BF00000230123E6E700BF402C0020980100205D
:108C0000064B93F89D2083F89C108A4205D0044AB5
:108C100083F89D10142082F8D8007047402C002063
:108C200098010020704730B1034B93F89E00012853
:108C300094BF002001207047402C002008B5FFF7AA
:108C4000F2FF60B1064A92F89F3092F89C205B00D8
:108C500003F00203002A18BF43F001030B6008BDB4
:108C6000402C002008B5FFF7DEFF18B1024BD3F807
:108C7000A0300B8008BD00BF402C002070B5FFF76E
:108C8000D2FF60B10B4AB2F8A4503DB1D2F8A8604F
:108C90000023B3421C4603DB002000E00D7070BDD2
:108CA00002EB44040133B4F8AC40AC42DBB2F0D187
:108CB0000B70F4E7402C002008B5FFF7B4FF10B1AB
:108CC00000230B70137008BD0420704728B1034BBC
:108CD00093F9DA00003818BF01207047980100208E
:108CE00008B5FFF7F3FF50B1054B93F9DA20012ADD
:108CF000C3BF93F8DD30C3F340030B60002008BD11
:108D00009801002008B5FFF7E1FF18B1024B93F876
:108D1000DC300B7008BD00BF9801002070B5FFF774
:108D2000D5FF38B10E4C94F8DD30DB0703D50023B6
:108D30000B70137070BD0B4D94F9DB3095F8BC606F
:108D400093FBF6F301330B7094F9DB4095F8BC10FC
:108D500094FBF1F301FB134301331370EAE700BF07
:108D600098010020402C00200320704770B50A4A6B
:108D700092F8C03006255E1CB6FBF5F405FB1464C2
:108D800092F8C150AC4205D002EBC303C3E93101F4
:108D900082F8C04070BD00BF402C0020002230B5DA
:108DA00004461046914200DC30BDA35C08255840C3
:108DB00010F0800F4FEA400318BF83F0D503013D48
:108DC000D8B2F5D10132EDE710B5E9B10F4BD3F8C8
:108DD000F400814218DCBAB1D3F8BC309A4213DCFB
:108DE0000B4C013A013903FB012184F8E81004F12E
:108DF000E4000521FFF7D2FF062184F8E90004F121
:108E0000E400BDE81040B1E710BD00BF402C0020D9
:108E1000980100200023038083708380C380037245
:108E2000704700BF074A92F8F83092F8FC100133FF
:108E3000DBB2994282F8F83004BF002382F8F830A0
:108E4000704700BF402C0020F8B5794CD4F8483268
:108E500083B1D4F84C3293F82E305BB1754B94F853
:108E60005022A3FB0013012A4FEA931330D0022AA9
:108E700008D002B1F8BD704B9842FBD9012384F8A9
:108E80005032F8BDD4F8542264329A423ED894F855
:108E9000F83004EB031393F8D426FF2A06D0674971
:108EA0000132012083F8D42681F8EA00FFF7BAFFE7
:108EB00094F8C8360122092B84F85022DAD1B4F88C
:108EC0007A3713449BB2A4F87A37A4F8CE36F8BDAB
:108ED00094F8F810C4F854328C2303FB014394F83F
:108EE000C80683F86A22002604F517750A220223B1
:108EF000092884F86662C4F8585284F8672284F816
:108F00005032B7D10131A4F8CC16F8BD94F86622DE
:108F100094F867329A42ADD104F25B2004F51975DA
:108F2000002310F8012F082153405A0013F0800F3E
:108F300008BF5B0082F0070214BFD3B2DBB2013975
:108F4000F3D18542EDD194F865229A4239D194F853
:108F5000F860B4F85F5294F86372B4F8610294F860
:108F6000643294F85DC204EB06126DBA40BA43EA6B
:108F70000723ADB294F85E7282F8D416C2F8D856C0
:108F800081B22E4D94F95C02C2F8DC1647EA0C2738
:108F90001BB20121032EA2F8D676A2F8E03682F8A1
:108FA000D50685F8EA1009D894F8C8260C2A2AD0E4
:108FB0000D2A03D104EB4606A6F8CC06FFF732FFD4
:108FC0005CE794F8F83004EB031393F8D426FF2AF7
:108FD00006D01A490132012083F8D42681F8EA002C
:108FE000FFF720FF94F8C8360122092B84F850229D
:108FF0007FF440AFB4F8783713449BB2A4F87837C5
:10900000A4F8D036F8BD94F876170D4A03EB830325
:1090100003EB830349089B0004EB460693FBF1F343
:1090200082FB0312DB17C3EBA203A6F8CC36C5E71D
:10903000402C0020D34D62103F4B4C009801002083
:10904000676666660B4B93F8661293F86722914247
:109050000ED010B493F86622D3F85842511CD2B205
:10906000C0B2C9B283F86612A0545DF8044B7047D1
:10907000704700BF402C0020FD2870B522D0F0289A
:1090800004D0EF2822D00224204670BD114D0320C9
:10909000052641282E444FF0000405F1010580F01B
:1090A00080030DD0042B0BD9FFF7E6FF2044B54217
:1090B000C4B2E9D015F8010B412880F08003F1D14A
:1090C0000420F3E7044D0B200426E2E7034D0C20B7
:1090D0000626DEE7FCA50508F8A5050804A6050890
:1090E0000C4AD2F8903730B41C68D2F888575D60CB
:1090F00019810025611C19609D812070D2F890377C
:10910000D2F888171A685A604FF6F67230BC1960A8
:109110009A817047402C0020144B30B4D3F8944708
:1091200014B300220F2583F89A17090A83F89907C8
:1091300083F89B17C3F89C27C3F8A027C3F8A4277C
:1091400083F8985703F5F360012110F8015F0131AE
:109150002A440E29D2B2F8D183F8A6272046044922
:1091600030BC102237F08ABA30BC7047402C002047
:10917000D8330020034B002183F8A817C3F8AC179D
:10918000CAE700BF402C00202DE9F04FCF4ED04D54
:1091900086468C4617460FCE05F5F6642DED068BF8
:1091A0000FC40FCE0FC496E8070089B095F8563764
:1091B000039784E80700CDE904EC042B00F2488112
:1091C000DFE813F0B401460141010500C4019FED41
:1091D000C18ADFEDC18AC149C5F8CC17C049C14B6E
:1091E000C14AC5F8C8170399002918BF134638EEBD
:1091F000887AF5EE006AC6EE879ABC4EC5F8D43779
:10920000A6F17E0B06F1C0080027DFEDB97A9FEDCD
:10921000B99A28EE278AB0EE67AA059BBB4200F0F8
:109220000C811BF8013BEA1892F85B47002C00F018
:109230001481002202E0152A00F00F8102EB4201A6
:109240004FEA420918F80100A04202F10102F2D1EE
:10925000294491F8A518002900F066812046029360
:1092600035F0E6FE029B82465046029335F026FF1B
:109270000178002940F0F180029BA9440133DBB260
:10928000032289F8E53889F8E428BAF1000F00F0E4
:10929000E4804FEA141909F1FF39B9F1030F04F022
:1092A0000F0000F20881944C04EB4901B1F840C072
:1092B0004CFA00F111F0010100F0FD80012101FAEA
:1092C00000F0013800EA0C00A14402934EF06AFC61
:1092D00099F848C0DFF838E2029B60440EEBC00CFE
:1092E00003228CF807308CF806205EF83000C6F8B0
:1092F00014C000F13F4303F57E0304EB93240121E6
:1093000094F84C309AF8082003F01F045B09032BF3
:1093100001FA04F100F00381042B00F0FB80022B22
:1093200000F0CF80BCF804300693B3FA83F3C3F1A6
:109330001F03C3F3CC0100EB810103F007030C6AA8
:109340009B004FF00F0C0CFA03FC24EA0C040C6297
:109350000C6A02FA03F323430B62022306A9079364
:10936000FEF74EFE039B002B00F08380B5F85437C8
:10937000D5F8981A07EE903AF8EEE77AFCEEE77A1D
:1093800017EE900AB1FBF0F202F57F42FF32120CA9
:10939000B1FBF2F295F85617B2FBF0F0042983B254
:1093A0007ED007EE902AF8EE676A66EE887A29EE9C
:1093B000677A95F8570704990091A6EEA87A01906C
:1093C00051463046C6ED027A86ED037A2EF036F825
:1093D000002F72DD7368D5F8E82793426FD0012F14
:1093E0006BD0D5F80028934269D0022F65D0D5F80C
:1093F0001828934263D0032F5FD0D5F830289342CA
:109400005DD0042F59D0D5F84828934257D0052F66
:1094100053D0D5F86028934251D0062F4DD0D5F8BF
:109420007828D31A18BF012301370122082F33747B
:10943000727406F118067FF4F0AE304809B0BDEC46
:10944000068BBDE8F08F9FED2E8AF0EE488AC2E6CB
:109450009FED2C8AF0EE488ABDE62B4A224BC5F8D8
:10946000CC270020C5F8D43709B0BDEC068BBDE889
:10947000F08FB0EE690A4FF021FBFCEEC07A4FF698
:10948000FF7317EE902AD5F8981AB1FBF2F21A443E
:10949000120CB1FBF2F295F856170429184680D148
:1094A00007EE900A07EE102AF8EE677AF8EE476AA0
:1094B00067EE8A7A7BE7716154E70123B4E7002302
:1094C000B2E7124B5C6C214359642BE70CA60508EC
:1094D000402C0020ACC5A737ACC5A736A16B03084C
:1094E00025DB0308A567030819DB030824340020E3
:1094F0006F12833A00007A44F8A50508F033002083
:10950000282930386F120339F56803080038024003
:10951000503500200F4B1C6B2143196302E70D4BA4
:109520001C6C21431964FDE68A469DE69FED0A8A7C
:109530000A4A0B4BC5F8CC27C5F8C83700220123CF
:10954000CDE90332F0EE488A064B50E69FED068ADD
:10955000EEE700BF003802406F12833AA16B0308A8
:1095600025DB030819DB030800000000F8B50546F9
:10957000262025F0FDFF124C0146E8B9D4F89C0ADC
:1095800090F838301E3B012B01D937F0ABF80D4F66
:109590000026AE4208DBB4F8C03A0133A4F8C03A62
:1095A000236BC4F8D03AF8BD17F8011BD4F89C0A15
:1095B00037F098F80136ECE7002384F8CE3AEFE76D
:1095C000402C0020E036002038B5144C94F8C1300F
:1095D00094F8C0209A421AD004EBC303D3E9312097
:1095E00004F52A610023984212DC9378C4F8D40A67
:1095F0005B0884F8CE3AFFF7B9FF94F8C130062132
:109600000133B3FBF1F201FB123384F8C13038BDF2
:10961000D55C01F8015B0133E5E700BF402C002079
:1096200013B504462620019125F0A2FF019920B927
:10963000204602B0BDE810406EE502B010BD2DE935
:10964000F84F1B4C05461E2094F8D8AA94F8D9BAB6
:1096500094F8DA6AB4F8DC9AB4F8DE8A94F8E07A1E
:1096600025F086FF30B1B8F1000F03D0C1460126C6
:109670004FF0000A94F8E23ADA070AD494F8E72A9D
:109680003AB9012F12D0022F03D113F0020F08BFF5
:10969000012685F800A085F801B0AE70A5F8049009
:1096A000A5F806802F722846BDE8F88F3E46F0E701
:1096B000402C002007B50DF1060213F015FD70B126
:1096C000084BBDF80620B3F80C1BA3F8A420914268
:1096D00005D00549A3F80C2B142081F8D80003B05D
:1096E0005DF804FB402C00209801002013B50446CF
:1096F000FFF7ECFA08B300230DF106022046ADF89F
:10970000063013F0F1FCC0B10D4C9DF8062094F921
:10971000DA1084F8EF20032908BF62F07F024FF0CF
:109720000501084808BF84F8EF20FFF737FB062142
:1097300084F8F0000348FFF719FB02B010BD00BF2A
:1097400098010020830200202DE9F743C54CD4F88E
:1097500094370D464BB14FF0020800274FF0010936
:10976000D4F8940736F0BAFF60B9002694F89E301A
:10977000042B00F27281DFE813F09700F6000A0173
:1097800057016001D4F8940736F0A0FFD4F8AC3745
:109790005A1C2344C4F8AC2783F80E0B94F8A8375E
:1097A000012B0AD0022B11D0002B78D10F280CBF2F
:1097B00084F8A897C4F8AC37D2E7A0F17203012B64
:1097C00001D976286BD184F8A887C9E7102AC7D1B8
:1097D000A5490023012211F8010F013203440E2A8A
:1097E000DBB2F8D194F81C2B84F8A8779A42C4F81D
:1097F000AC77B5D194F81D3B002BB1D194F80F6B29
:10980000732E3FD0762E0FD0722EA9D194F8112B43
:1098100094F8103B53EA0223A2D0C4F88C30B4F879
:10982000123BC4F89030A1E794F8112B94F8103B48
:1098300053EA022394D094F8131B94F8122B94F853
:10984000170BC4F8A03042EA012294F8141B84F8E4
:109850009F1094F8151B84F8201B94F8161BA4F88D
:109860001E2B41EA0021A4F8221BD4F8941009B958
:10987000C4F89430B4F8A430002B7FF477AFA4F888
:10988000A42073E794F8152B94F8143B43EA0223C1
:109890001AB2002B3FF464AFA4F8242B66E784F8D7
:1098A000A877C4F8AC775BE7722E4ED1012384F819
:1098B0009E30002294F8C836402B36D1B4F8A4006C
:1098C000A4F8CE6694F8206B94F89E30B4F81ECBC2
:1098D000A4F8CC360502330394F89C10D4F8A07099
:1098E00005F4706503F440532B434FEA0C1543EA2B
:1098F0008133EDB22B43D4F894501BB2BD4214BF58
:10990000082500251343604514BF042000202B4385
:109910000343B14214BF022100211943534BA4F861
:10992000D01693F8D830A4F8D236D4F8F43023B156
:10993000D4F8A830002B40F0A3804D494D481F2299
:1099400003B0BDE8F04350F044BED4F8283B4A4A87
:10995000EB1A934201DC0022ACE77220FFF70AFC0D
:10996000C4F8285BF7E7762E04D1022384F89E30F2
:1099700000229FE7D4F8283B3F4AEB1A9342EADDE6
:109980007620FFF7F7FBC4F8285B002292E7374FF9
:10999000D4F8283B97F8D820EB1AB2B3364A934252
:1099A00036DD94F89F20D2071FD4D4F89410D4F851
:1099B000A02091420FD089B24620FFF731FE97F8E0
:1099C000D830C4F8285B013B87F8D830042384F8EA
:1099D0009E3001226EE7B4F8A410B4F81E2B8A4220
:1099E00003D05020FFF71CFEE9E794F89C1094F890
:1099F000202B8A4206D0B1FA81F149094920FFF7AC
:109A00000FFEDCE7142287F8D8201C4A9342B7DC0B
:109A1000762EA0D17320FFF7ADFB032384F89E3090
:109A2000C4F8285B002245E7732E94D0D4F8281B95
:109A3000114B691A994298DC8DE7D4F8283B0E4AFD
:109A4000EB1A934287DD7620FFF794FB022384F81C
:109A50009E30C4F8285B00222CE7002384F89E3057
:109A60001A4627E7402C00204E370020980100209E
:109A7000EB1D0608890200203F0D03003F420F0046
:109A8000334DD4F82C6B2A2385F8F1300DF1020206
:109A900020230DF10101304685F8F23013F0BBFBB5
:109AA00030B19DF801109DF8027051EA070339D1D9
:109AB000552385F8F330462385F8F430202301A997
:109AC000304685F8F53013F0A0FB0346214813B16A
:109AD000BDF804209ABB204949F022FBB4F8227B50
:109AE0001E4D87B30DF10301304613F091FB50B3C7
:109AF0009DF803100DF10602304613F0F5FA10B38D
:109B0000BDF8062016493B46BA420CBF20222A2245
:109B1000284649F005FBB4F8243BA4F8303B03B0D9
:109B2000BDE8F083304613F05BFB394685F8F3005F
:109B3000304613F041FB037885F8F430BEE709495D
:109B400049F0EEFACAE70849284649F0E9FAE2E79F
:109B5000980100208E0200200D1E060892020020AF
:109B6000051E0608AB5706080C1E060838B50B681C
:109B70000E4D5A1C0A6005221A700B6895F8DA20FF
:109B80000C46591C21601A70236895F8DD20591C79
:109B900021601A70B5F8E010204649F073F9236887
:109BA00095F8E220591C21601A7038BD98010020F8
:109BB0002DE9F84F2DED028BFFF788F8002844D0EF
:109BC000254B93F9DA0001283FDD93F81041DFF8C7
:109BD00090809FED228A0FF2780BDBE900AB1546EF
:109BE0008E1E02EB44094D4504D1BDEC028B20468C
:109BF000BDE8F88F38F8027B26F8027F07EE907AEE
:109C0000F8EEE77A67EE887A17EE900A4DF0F0FBEF
:109C100052465B464DF044FC41EC100B50F0FCF911
:109C200051EC100B4DF0FEFE0E2F80B20AD9193008
:109C30003223B0FBF3F080B200EB800000EB800039
:109C4000400080B225F8020BCDE70024CDE700BF2D
:109C50001655B5BBB16B024098010020CDCCCC3D70
:109C60007237002038B50D46FFF730F8044638B19A
:109C70000C4890F8DD30DB0704D5B0F8DE00288012
:109C8000204638BD084A90F9DB3092F8BC2093FB9F
:109C9000F2F102FB11320132013100F58A7013F04A
:109CA00037FAECE798010020402C00202DE9F04F16
:109CB000A94D95F8423B8BB08146002B40F0B58012
:109CC000D5F82C6B002E00F0B080A44AD2F81841D1
:109CD00004F0F021B1F1E02F6ED1C2F81831D5F8BF
:109CE000442B944268D004930593ADF81830B5F82E
:109CF000DC3A95F8D8EAADF8143095F8D9CA95F859
:109D0000E03A95F8DAAA8DF818300DF110088DF8C0
:109D100010E08DF811C08DF812A098E8070007AB8D
:109D200003C38F4F1A80C4F342533B44C4F303422E
:109D300093F85210C5F8444B8E4502F1010201D14F
:109D4000944508D030468DF81C108DF81D2013F076
:109D5000DFF9ADF82000304613F02DFC032804F0A5
:109D6000070B34D0042836D000239A4501A9304689
:109D700018BF8DF81E3013F045FA48B1019BC4F3AB
:109D8000001103F001038B4202D0304613F0EAFACF
:109D90000A2207A9404650F0B6FB68B19DF81E3074
:109DA000BDF81C2085F8DA3ABDF82030A5F8D82A8D
:109DB000A5F8DC3A49F0EAFD95F848AB04AF95F810
:109DC000483B032B7BD8DFE803F00A3376A35F44DC
:109DD00097F85730C9E75F4497F85F30C5E73946D1
:109DE000304613F015FA044658B107A8FFF727FCD0
:109DF0009DF81E109DF810308B4260D0304613F055
:109E00003DFB95F8483B013303F0030385F8483BDD
:109E10000CB99A45D3D195F8E23ADB0700D524B1C5
:109E2000336849461B68304698470BB0BDE8F08F51
:109E300001A8FFF704FC95F8E28A9DF8044008F0B9
:109E40000108ECB1B8F1000F39D13A460DF1030128
:109E5000304613F0E0F9044688B307A8FFF7EFFB9C
:109E60009DF81C109DF803309DF81D208B4203D1F6
:109E70009DF81030934222D0304613F009FBC0E722
:109E8000B8F1000FBDD13946304613F0BEF9044693
:109E9000A8B107A8FFF7D3FBBDF82010BDF810301C
:109EA0008B420CD085F8498B85F84A8B3368304655
:109EB0009B699847A5E795F8E23AD80701D50024B1
:109EC0009FE707A9304613F09DF904460028F6D015
:109ED0001E2025F04DFB95F84B3B83428046EED08B
:109EE00085F84B0B60B1B5F8DE3A002BE7D1079B44
:109EF000D907E4D40121304613F034FA444680E710
:109F0000079BDA07DBD50146304613F02BFA78E7DA
:109F10003846FFF794FB97E8070007AB03C31A80A6
:109F20009DF810309BB10DF11D0207A9304613F0CA
:109F300072F90DF11E01304613F06AF90A2207A9E1
:109F4000384650F0E0FA041E18BF012459E708A96A
:109F5000304613F05AF9ECE7402C0020980100201D
:109F6000F8A505082DE9F041FD2984B0044669D023
:109F7000F02949D0EF2900F0BF804AB10346861886
:109F800003AD002003F8010B9E4205F8010BF9D147
:109F9000BA4B0B2003F1090501E013F8010F8142D0
:109FA00055D0AB42F9D14B1E152B21D8DFE813F069
:109FB000C500D000DA00E700EE00F400160004014E
:109FC00000012000200023012301230110011001C2
:109FD00010010001200020001B01AD00A84D95F8E4
:109FE000E23ADE0700F16D81B5F8B83BADF80C3010
:109FF0003AB1224403AB13F8011B04F8011BA2423F
:10A00000F9D104B0BDE8F0819E4F03214FF005085F
:10A01000B844002501370CE0FFF72EF8064660191A
:10A020003246FFF79FFF70194745C5B2E9D017F8D0
:10A03000011B412981F08003084601D0042BEBD895
:10A040000426ECE7904F0B214FF00408E0E78C4B1F
:10A05000D3F83C0C80060CD4002AD2D0224403ABA7
:10A0600013F8011B04F8011B9442F9D104B0BDE8B8
:10A07000F08193F84C0B10F0020F93F8640B40D072
:10A08000052834BF02250325142917D97C39C8B205
:10A090000628E1D80629DFD801A050F821F000BF3A
:10A0A00071A2000871A2000859A2000859A0000876
:10A0B00051A2000849A2000841A200080929CBD9F1
:10A0C0000A390A29C8D801A656F821F02DA200089D
:10A0D000A5A2000859A0000859A0000859A000082E
:10A0E00059A0000859A0000859A0000859A000086C
:10A0F00023A2000871A20008644F0C214FF006084B
:10A1000086E70B29A8D10125CDE05D4BB3F8D81B1C
:10A11000CD055ABFCB4303F00103032311F0440FD5
:10A1200018BF042311F0020F18BF072311F4806F2A
:10A1300018BF0923ADF80C305AE7514BB3F8983BE0
:10A1400003EB83035B0003F5C873ADF80C304FE7F6
:10A150004F4BD3ED037AFDEEE77A17EE903AADF868
:10A160000C3045E7464B93F8771B002900F0A080A0
:10A1700001922DF0C3FB019AADF80C0038E7019273
:10A180002DF0BCFB019AADF80C0031E73C4BD3F845
:10A19000C83BADF80C302BE7394BB3F8B81B00299E
:10A1A00000F0898001922DF0B5FB019A80B2E3E7BF
:10A1B000334BB3F83A3C19E7314B3649B3F9383CE5
:10A1C00081FB0301DB17C3EBA103ADF80C300FE7F4
:10A1D0002B4B03EB4101B1F8163C03EB83035B000F
:10A1E000ADF80C3004E7264B93F8E23A03F0010394
:10A1F000ADF80C30FCE6284BDFED286AD3ED007A91
:10A200000C39C9B203EB810393ED127A67EEA67A9B
:10A2100067EE877AFDEEE77A17EE903AADF80C30EC
:10A22000E6E6B3F85E3BADF80C3015E7B3F8603BFB
:10A2300003EB830303EB83039B00ADF80C300BE7C8
:10A24000D3F8583B039307E7D3F8543B039303E752
:10A25000D3F8503B0393FFE6B3F85E3B104903EBA2
:10A26000C3039B00A1FB03135B09ADF80C30F3E6BD
:10A27000B3F8683BADF80C30EEE600BF60A6050809
:10A28000402C0020FCA50508F8A5050804A6050833
:10A29000DC370020676666661C38002000007A44C0
:10A2A0001F85EB51EDB28DF80C508DF80D00D3E603
:10A2B000B3F8900B60E7D3F8D00B80F3100080B2B6
:10A2C0005AE7019225F0B8F905F69C33D3ED037AED
:10A2D000019AFCEEE77A17EE903A9BB200287FF4E1
:10A2E00085AED5F8D41B11F0100F18BF00237DE602
:10A2F00000F01F0240090123032803FA02F304D0EF
:10A3000004280CD0022805D07047074A116C0B4373
:10A3100013647047044A516C0B4353647047024AFC
:10A32000116B0B43136370470038024000487047BD
:10A33000B03500200E4B30B4DB68427801780D4C0C
:10A34000DB43C3F30223C3F10403DBB202FA03F3DA
:10A3500060181B0101F01F050122490903F0F003F9
:10A36000AA4080F8003344F8212030BC704700BF79
:10A3700000ED00E000E100E0002800F087802DE91A
:10A38000F0411C468388B3FA83F3202B8C4682B0BD
:10A3900011468046C3F11F026ED03D4E3D4DB318AD
:10A3A00005EB820293F87470C2F840CC35F0B8F82F
:10A3B000B8F804E0D8F80000374ABEFA8EFECEF1B5
:10A3C0001F0101F0FC0303F1804303F59C3301F00E
:10A3D00003014FEA810C4FF00F0800F13F419868EC
:10A3E00008FA0CF820EA080001F57E019860C1F334
:10A3F000872101FA0CF1D3F808C04FF0004020FA91
:10A400000EF041EA0C0199605061136823EA0003E1
:10A410001360536823EA0003536013680343136017
:10A42000936806EB840423EA00039360D36894F8EE
:10A43000841023EA00031029D36020D001F1804169
:10A4400001F59E310B68184308603D4495F8803C47
:10A45000F02B11D93E44F02196F890308DF804305D
:10A4600003224FF4807301A885F8801C8DF8052025
:10A47000ADF80630FFF75EFF02B0BDE8F0819368EB
:10A4800003439360D3681843D060DEE7704700BF92
:10A49000F8A50508402C0020003C0140464B5B68B5
:10A4A000C3F308032DE9F041002B62D1EFF31183D0
:10A4B000002B5ED1414A424C116BA068136B99424C
:10A4C000FAD1D2F8903C9842F6D8D2F88C5C4FF48E
:10A4D0007A7404FB05F3181AB0FBF5F004FB0101D4
:10A4E000354D374810264FF47A7401276B68C3F353
:10A4F0000803EBB9EFF31183D3B9136BD0F808E07D
:10A50000D2F830C06345F8D1D2F890CCE645F4D803
:10A51000D2F88C8C04FB08FCACEB0E0CBCFBF8FCFA
:10A5200004FB03C35B1AB3F57A7FDFD3BDE8F08188
:10A53000EFF3118E86F31288D0F808800368DB03EE
:10A5400044BFC2F8887CD0F80880D2F830C0D2F876
:10A55000883C5FFA8EFE8EF31188D2F88CEC63444F
:10A5600004FB0EFCACEB080CBCFBFEFC04FB03C3C1
:10A57000D8E7EFF31180102383F3128810490F4AB4
:10A580008D680B68DC0342BF0123C2F8883C8D68EC
:10A59000136BD2F8881CC0B280F31188D2F88C4CAF
:10A5A0004FF47A70194400FB04F35B1BB3FBF4F324
:10A5B00000FB013194E700BF00ED00E0402C0020DB
:10A5C00010E000E02DE9F84FB34C94F8941C0546D8
:10A5D000C1F34001D4F89C0C39F09CFB94F8941C16
:10A5E000D4F8980CC94301F0010139F093FB002D18
:10A5F00000F0C3806E1EA94FA94D5FFA86FB4FF095
:10A600001008D4F89C0C39F069FBD4F8980C39F098
:10A6100065FBB4F8A43C002B40F0358194F8A61CEF
:10A62000D4F8A80C39F076FB4FF0FA094FF47A70A1
:10A630004FF0010C7B68C3F30803002B40F0FB8054
:10A64000EFF31183002B40F0F680226BA968236B97
:10A650009A42FAD1D4F8903C9942F6D8D4F88C6C4E
:10A6600000FB06F35B1AB3FBF6F300FB02327B68D8
:10A67000C3F30803002B40F09F80EFF31183002BFE
:10A6800040F09A80236BD5F808A0216B8B42F9D15A
:10A69000D4F8901C8A45F5D8D4F88C6C00FB06F1F0
:10A6A000A1EB0A01B1FBF6F100FB03139B1AB3F512
:10A6B0007A7FDCD3B9F10109BCD1D4F89C0C39F014
:10A6C0000DFBD4F8980C39F009FBB4F8A43C002B2E
:10A6D00040F0CD8094F8A61CD4F8A80C81F00101BC
:10A6E00039F018FB4FF0FA0C4FF47A704FF0010E6E
:10A6F0007B68C3F30803002B7ED1EFF31183002B9B
:10A700007AD1226BA968236B9A42FAD1D4F8903C93
:10A710009942F6D8D4F88C9C00FB09F35B1AB3FB82
:10A72000F9F300FB02327B68C3F308033BBBEFF392
:10A73000118323BB236BD5F808A0216B8B42F9D181
:10A74000D4F8901C8A45F5D8D4F88C9C00FB09F10C
:10A75000A1EB0A01B1FBF9F100FB03139B1AB3F55E
:10A760007A7FE0D3BCF1010CC2D10BF1FF365FFA66
:10A7700086FBBBF1FF0F7FF444AFBDE8F88FEFF32A
:10A78000118988F31288AE682B68DB0344BFC4F8D4
:10A7900088ECAE68236BD4F8881C5FFA89F989F3DA
:10A7A0001188D4F88C9C0B4400FB09F1891BB1FB88
:10A7B000F9F100FB0313D1E7EFF3118E88F3128850
:10A7C000D5F808A02B68D90344BFC4F888CCD5F8C5
:10A7D00008A0236BD4F8881C5FFA8EFE8EF31188D4
:10A7E000D4F88C6C0B4400FB06F1A1EB0A01B1FB21
:10A7F000F6F100FB031359E7EFF3118188F3128898
:10A80000D5F808902B68DA0344BFC4F888ECD5F873
:10A810000890236BD4F8882CC9B281F31188D4F83E
:10A820008C1C1A4400FB01F3A3EB0903B3FBF1F307
:10A8300000FB023277E7EFF3118188F31288AE68EC
:10A840002B68DB0344BFC4F888CCAE68236BD4F814
:10A85000882CC9B281F31188D4F88C1C1A4400FBEF
:10A8600001F39B1BB3FBF1F300FB0232FFE6D4F8CC
:10A87000C03C002B3FF436AFD4F8AC3CC3F800909A
:10A8800084F8BD9C2EE7D4F8C03C002B3FF4CCAE3E
:10A8900035F058FCC8E600BF402C002000ED00E079
:10A8A00010E000E02DE9F84FB04CB14F94F8941C43
:10A8B000D4F89C0CAF4DC1F3400139F02BFA94F859
:10A8C000941CD4F8980CC94301F0010139F022FA24
:10A8D0004FF0050B4FF01008D4F89C0C39F0FEF93E
:10A8E000D4F8980C39F0FAF9B4F8A43C002B40F0F5
:10A8F000358194F8A61CD4F8A80C39F00BFA32264E
:10A900004FF47A704FF0010C7B68C3F30803002BFF
:10A9100040F0FA80EFF31183002B40F0F580226BBA
:10A92000A968236B9A42FAD1D4F8903C9942F6D8A0
:10A93000D4F88CEC00FB0EF35B1AB3FBFEF300FBC8
:10A9400002327B68C3F30803002B40F09E80EFF3D4
:10A950001183002B40F09980236BD5F808A0216B60
:10A960008B42F9D1D4F8901C8A45F5D8D4F88CECF8
:10A9700000FB0EF1A1EB0A01B1FBFEF100FB03139A
:10A980009B1AB3F57A7FDCD3013EBDD1D4F89C0C81
:10A9900039F0A4F9D4F8980C39F0A0F9B4F8A43C33
:10A9A000002B40F0D08094F8A61CD4F8A80C81F0BD
:10A9B000010139F0AFF94FF0320C4FF47A700126F3
:10A9C0007B68C3F30803002B7FD1EFF31183002BC7
:10A9D0007BD1226BA968236B9A42FAD1D4F8903CC0
:10A9E0009942F6D8D4F88C9C00FB09F35B1AB3FBB0
:10A9F000F9F300FB02327B68C3F308032BBBEFF3D0
:10AA0000118313BB236BD5F808A0216B8B42F9D1BE
:10AA1000D4F8901C8A45F5D8D4F88C9C00FB09F139
:10AA2000A1EB0A01B1FBF9F100FB03139B1AB3F58B
:10AA30007A7FE0D3BCF1010CC2D10BF1FF3616F0E6
:10AA4000FF0B7FF449AFBDE8F88FEFF3118988F36E
:10AA50001288D5F808A02B68DB0344BFC4F8886CC3
:10AA6000D5F808A0236BD4F8881C5FFA89F989F31C
:10AA70001188D4F88C9C0B4400FB09F1A1EB0A016E
:10AA8000B1FBF9F100FB0313D0E7EFF3118E88F36C
:10AA90001288D5F808A02B68D90344BFC4F888CC25
:10AAA000D5F808A0236BD4F8881C5FFA8EFE8EF3CD
:10AAB0001188D4F88CEC0B4400FB0EF1A1EB0A01D9
:10AAC000B1FBFEF100FB03135AE7EFF3118188F3AA
:10AAD0001288D5F808902B68DA0344BFC4F8886C54
:10AAE000D5F80890236BD4F8882CC9B281F311886B
:10AAF000D4F88C1C1A4400FB01F3A3EB0903B3FB4D
:10AB0000F1F300FB023276E7EFF3118188F312884C
:10AB1000D5F808E02B68DB0344BFC4F888CCD5F82F
:10AB200008E0236BD4F8882CC9B281F31188D4F8DB
:10AB30008C1C1A4400FB01F3A3EB0E03B3FBF1F3EF
:10AB400000FB0232FDE6D4F8C03C002B3FF433AFEB
:10AB5000D4F8AC3C1E6084F8BD6C2CE7D4F8C03C43
:10AB6000002B3FF4CCAE35F0EDFAC8E6402C0020C7
:10AB700000ED00E010E000E010B4B8B10D4CD4F8E6
:10AB8000C43C102B05D15DF8044B0521002034F0A6
:10AB9000AFBF03EB4302224482F8C91C01210B44DE
:10ABA00082F8C80C82F8CA1CC4F8C43C5DF8044B97
:10ABB000704700BF402C002000285FD00368374A50
:10ABC0002DE9F04103F13F4404F57E0402EB9422A9
:10ABD000012492F84C2002F01F055209032A04FABE
:10ABE00005F456D0042A4FD0022A48D08588B5FAF9
:10ABF00085F0C0F11F00C0F3CC0603EB860600F021
:10AC0000070082000F24306A944020EA040030627A
:10AC1000306A01FA02F20243002132624FF0010E63
:10AC20000A464FF0030C02270EFA02F838EA050034
:10AC300002F101021CD118680CFA01F420EA0400A8
:10AC40001860186807FA01F606431E609E6826EA37
:10AC500004069E6098689860586820EA080058606A
:10AC600058685860D86820EA0400D860D868D8606E
:10AC7000102A01F10201D7D1BDE8F0817047084ADE
:10AC8000556C2C435464B1E7054A156B2C4314638F
:10AC9000ACE7034A156C2C431464A7E7F8A5050834
:10ACA0000038024070B5464E96F8F84C04EB440369
:10ACB00006EBC303650093F8FC3C032B6ED8DFE87A
:10ACC00003F059291E02254406EBC505D5F8000DF1
:10ACD000002870D196F85C3D9C425FD0013404F0AE
:10ACE0000302934286F8F82C58D002EB420406EB9C
:10ACF000C4040223C4F8000D84F8FC3C70BD2B1979
:10AD000006EBC303D3F8002D72B1013AC3F8002D4E
:10AD1000002070BD2B1906EBC303D3F8002D002AC9
:10AD2000F3D1022283F8FC2C254406EBC50595F8E7
:10AD3000083D013BDBB285F8083D8BBB214B96F803
:10AD40005C6DD3F81C11D5F8040D621C02F00302EF
:10AD50004B1E0324B242034485F8FC4CB3FBF1F0D4
:10AD6000C5F8000D1AD0994218D80138C5F8000D61
:10AD7000012070BD3DF098FA80B1124B2C44D3F8FD
:10AD80001C2106EBC404012102F51C5384F8FC1CB1
:10AD90000F33B3FBF2F3C4F8003D70BD012070BD6A
:10ADA000084BD3F81C21012002F2E733B3FBF2F386
:10ADB000C5F8003D70BD0138C5F8000D002070BD1C
:10ADC000402C00209801002070B502688CB0FF2351
:10ADD0000446507B8DF80730012100230DF1070553
:10ADE000CDE90253CDE90633CDE908330B93049145
:10ADF0008DF814108DF82810C8B1F0250426EFF353
:10AE0000118385F312882268116AD8B2B1B180F338
:10AE1000118823681B6A042BF1D102A920464BF04C
:10AE200011FB2268136A002BFCD10CB070BD136AB1
:10AE3000002BF2D0136A002BF9D1EEE7166280F3F3
:10AE4000118823681B6A042BD9D1E6E72DE9F04F5E
:10AE5000844C854F95B000230E464FF4F0722021AC
:10AE6000054604F55660019684F85D3D84F85E3D24
:10AE70004FF071FB202104F574604FF4F0724FF035
:10AE80006AFB7A494FF0320C4FF0100E4FF47A7093
:10AE900001267B68C3F30803002B40F0C280EFF368
:10AEA0001183002B40F0BD80226BD1F80890236BFA
:10AEB0009A42F9D1D4F8903C9945F5D8D4F88CACA5
:10AEC00000FB0AF3A3EB0903B3FBFAF300FB023226
:10AED0007B68C3F30803002B40F08380EFF31183FA
:10AEE000002B7ED1236BD1F808B0D4F830904B45BD
:10AEF000F8D1D4F8909CCB45F4D8D4F88CAC00FBB6
:10AF00000AF9A9EB0B09B9FBFAF900FB03939B1AA9
:10AF1000B3F57A7FDCD3BCF1010CBAD1544F97F86A
:10AF20002920002A58D097F82A30032B54D8013B07
:10AF300003EB830E07EBCE0107F1C40091F8C48048
:10AF400000EBCE00B8F1020FF86200F0C8815BB2EE
:10AF5000581C00F0D28107EB0313D3F83C31C1F841
:10AF6000C830CBB3012387F8B43081F8D23007F171
:10AF70003C0007F17803C1E937034FF0020EA1F856
:10AF8000D0C081F8C4E04FEA121808F1FF38B8F1D8
:10AF9000030F02F00F0200F24181DFF8DC9009EBB1
:10AFA0004803B3F8400040FA02F3DB0740F1368172
:10AFB000012303FA02F2013A1040C8444CF0F2FDBA
:10AFC00098F848202B4B104403EBC000786383793A
:10AFD000002B53D0412B51D06FF0010015B0BDE8CC
:10AFE000F08FEFF3118A8EF31288D1F808B00B6856
:10AFF000DB0344BFC4F8886CD1F808B0236BD4F8E5
:10B00000889C5FFA8AFA8AF31188D4F88CAC4B4496
:10B0100000FB0AF9A9EB0B09B9FBFAF900FB039352
:10B0200075E7EFF311898EF31288D1F808A00B6849
:10B03000DA0344BFC4F8886CD1F808A0236BD4F8B5
:10B04000882C5FFA89F989F31188D4F88C9C1A440A
:10B0500000FB09F3A3EB0A03B3FBF9F300FB023295
:10B0600036E700BF402C002000ED00E010E000E0DB
:10B07000383D002050350020F8A505082323C38063
:10B08000092134F04DFA7B6B13B11A689B88138346
:10B09000D4F8982AA94BB3EB920F80F02681B3EB3A
:10B0A000D20F80F03181B3EB121F80F02F81B3EB10
:10B0B000521F80F02D81B3EB921F80F02B81B3EBF8
:10B0C000D21F80F02981B3EB122F80F027814FF43B
:10B0D00080739B483B86FFF777FE99488C213CF0B4
:10B0E00023FF1B2840F022817B6B012284F85D2D19
:10B0F0000BB12322DA80402291480A213CF0ACFFB8
:10B100008F488A213CF010FF97F82830C0F3801256
:10B11000012B87F86C2100F0400000F08280022BA8
:10B1200000F0BF80002B00F09E80B7F86E3194F8DD
:10B13000C816182906D10199A4F8CC16A4F8CE2671
:10B14000A4F8D03600217E483B8602223CF084FFE2
:10B15000642034F015FEF96A0DF10E0A0DF10F06A8
:10B160004FF000084FF000090424487BCDF810A0F0
:10B17000002301224FF0800CCDE90E89CDE9083380
:10B180000A968DF80EC005938DF81C300D93109320
:10B19000129306920B928DF830208DF8442070B3F4
:10B1A000F020EFF3118380F31288FA6AD2F820C0FE
:10B1B000D9B2BCF1000F29D081F31188FB6A1B6A58
:10B1C000042BEED104A95E484BF03CF9F96A0B6AF6
:10B1D000002BFCD19DF80F0010F00200C5D16A7859
:10B1E000AB78297887F87011C2F12002C3F11003FF
:10B1F00087F8712187F8723115B0BDE8F08F0B6ABE
:10B20000002BDFD00B6A002BF9D1DBE7146281F34E
:10B210001188FB6A1B6A042BC3D1D3E70020786333
:10B220002EE7019BD4F8981A0BB100285FD0454B4C
:10B23000B3EB910F5FD2B3EBD10F71D2B3EB111F10
:10B240005ED2B3EB511F6DD2B3EB911F6CD2B3EB57
:10B25000D11F57D2B3EB112F34BF4FF4807380232B
:10B26000A7F86E3163E7D4F8981A344BB3EB910F1B
:10B2700041D2B3EBD10F53D2B3EB111F40D2B3EB9A
:10B28000511F4FD2B3EB911F4ED2B3EBD11F39D226
:10B29000B3EB112F34BF4FF480738023A7F86E31C6
:10B2A00045E7D4F8980A2749B1EB900FD8D2B1EB13
:10B2B000D00F35D2B1EB101F22D2B1EB501F31D2DB
:10B2C000B1EB901F30D2B1EBD01F1BD2B1EB102FDE
:10B2D00034BF4FF480738023A7F86E3127E791F8CD
:10B2E000D230013381F8D2304DE60223F1E6134B20
:10B2F000B3EB910FBDD30223B2E7C1F8C8C06BE630
:10B300000823ADE74023ABE70423E2E60823E0E6A9
:10B310001023DEE62023DCE64023DAE68023D8E6AD
:10B3200004239DE710239BE7202399E7786B2021D6
:10B3300034F0F6F84FF0FF3050E600BF404B4C00C1
:10B34000643D00208096980010B582B00A88ADF860
:10B35000062000230C468DF805308DF8040049F0D6
:10B360009BF804210DEB01002CF03CF8BDF80630F1
:10B37000238002B010BD00BF10B582B00A788DF8EE
:10B3800007201823040A8DF804308DF806008DF884
:10B39000054049F081F804210DEB01002CF022F862
:10B3A00002B010BD10B582B019220023040A8DF836
:10B3B00003308DF801408DF800200C468DF8020016
:10B3C00049F06AF8052168462CF00CF89DF8043025
:10B3D000237002B010BD00BFF0B40D6800240CE073
:10B3E000BCF1050F18D8A0F137030A2B14D104EBD8
:10B3F000840415F8010B03EB4404A0F13003DEB222
:10B40000092EA0F16107A0F1410CF0D9052FE7D872
:10B41000A0F157030A2BEAD00D601460F0BC70470E
:10B42000094B93F85637042B08D9053B032B08D852
:10B4300001231A4600B10370104670470023012211
:10B44000F8E700231A46F5E7402C00209FED727ABA
:10B4500007EE901A20EE070AF8EE677A27EE800AC8
:10B46000FDEEC07A17EE903A2033402B00F2C480F4
:10B47000DFED6A7AB4EEE70AF1EE10FAF0EE407A08
:10B480000CDD9FED676ADFED676AB0EE677AB4EEB8
:10B49000E67AF1EE10FA77EEC67AF6DC9FED627A84
:10B4A000F4EEC77AF1EE10FA0CD59FED5D6ADFED90
:10B4B0005F6AB0EE677AB4EEE67AF1EE10FA77EEF4
:10B4C000867AF6D49FED5A7AF4EEC77AF1EE10FA46
:10B4D00000F38A809FED577AF4EEC77AF1EE10FA06
:10B4E00044BF9FED517A77EE677A27EEA76ADFEDCA
:10B4F000525A9FED527ADFED526AA6EE257A67EE38
:10B50000865AE6EE076AB6EE007AE5EEA67A27EEF0
:10B51000877ADFED476A70EE267ABDEEE76A16EEAF
:10B52000103A2033402B64D8B4EEE60AF1EE10FA5C
:10B530000CDDDFED3B5A9FED3B6AF0EE676AF4EEFF
:10B54000C66AF1EE10FA77EEE57AF6DCDFED366AE0
:10B55000F4EEE67AF1EE10FA0CD5DFED315A9FEDFC
:10B56000336AF0EE676AF4EEC66AF1EE10FA77EE2F
:10B57000A57AF6D4DFED2E6AF4EEE67AF1EE10FA53
:10B580003DDDDFED266A76EEE77A67EEA75A9FED9E
:10B590002A5A9FED2A6ADFED2A6AA5EE856A27EE10
:10B5A000A55AE5EE866AB8EE006AE5EE267A67EE01
:10B5B000867AC7EE206AB7EE006A76EE865A76EE95
:10B5C000666A86EE257A80ED091A67EE277A66EEBE
:10B5D000876AC0ED017AC0ED037A80ED007A80EDD4
:10B5E000027AC0ED046A70479FED0C7A77EE677AB5
:10B5F0007BE7DFED147ADCE79FED127A89E7DFED78
:10B600000D6AF4EEE67AF1EE10FA44BFDFED066A59
:10B6100076EEE77AB9E700BF27D4D236DB0F494090
:10B62000DB0FC940E4CB1641DB0F49C0E4CB16C1A8
:10B63000DB0FC93FDB0FC9BF92E741B99730083C28
:10B6400015A82ABE000000002DE9F843E14FD7ED10
:10B650005E7A97F89846F8EE670A07F294632DED44
:10B66000028BC3ED000A002C70D1DFF8C4E3DFF8D1
:10B67000C4C39EF8FC60C7F8A4469CF80040002EA6
:10B6800039D0B7F89E369FEDD46A9FEDD47A07EE95
:10B69000903AF8EE677A20EE877AC6EE276AD04BAA
:10B6A0000022012E1A6076EE876AC7EE267AC3ED75
:10B6B000017A20D0022E9A60C3ED037A1BD0032EAC
:10B6C0001A61C3ED057A16D0042E9A61C3ED077A8C
:10B6D00011D0052E1A62C3ED097A0CD0062E9A629B
:10B6E000C3ED0B7A07D0072E1A63C3ED0D7A02D093
:10B6F0009A63C3ED0F7A9EF876379FEDBA6A9FED95
:10B70000BA7A9FEDBA0ABA4A07EE903AF8EEE77AAB
:10B710009CF8583BC6EE276A1C4414FB06F6F6B2AA
:10B7200007EE906A60EE870AF8EEE77AC2ED006AEB
:10B73000A7EEA00A4DF086FABDEC028BFCEEC07AB3
:10B7400017EE903A87F8AC36BDE8F88397F899364B
:10B75000DFEDA84A9FEDA82ADFEDA86ADFF8D0E266
:10B76000DFF8D0C29EF8FC60C7F8A4C607EE903A96
:10B77000B7F89C368CF8004007EE103AFCEEE05A21
:10B78000B7F89A3606EE103A15EE903AF8EE655A8A
:10B79000F8EE677A84EEA55ACCF81430012387F8C6
:10B7A000A036B8EEC77A27EE822AB8EE466A67EE70
:10B7B000266A22EE252A8CED025ACCED017A8CED18
:10B7C000036ACCED046A002E95D0DFED8D7A9FEDF3
:10B7D0008D4ADFED8D5AC7EE871AC6EB0615A6EB2C
:10B7E00006190CEBC5054FEAC9094FF00008B1EE88
:10B7F000611A9FED866A09EB05009FED853ADFED42
:10B80000853ADFED856A0346002207EE902AB8EEFE
:10B81000E77A27EE027AFDEEC77A17EE901A20310A
:10B82000402900F2D080B4EEC47AF1EE10FAF0EEC6
