:020000040800F2
:10000000F0FF0120A983050839E10008693C0408D4
:1000100021840508218405082184050800000000CA
:1000200000000000000000000000000035E10008B2
:1000300031E10008000000002DE10008750104080E
:1000400021840508218405082184050821840508E8
:1000500021840508218405085977040821770408BC
:10006000E9760408B1760408656A04089D65050808
:100070008D6505087D6505086D65050859650508E8
:100080004565050831650508218405080000000064
:100090000000000000000000000000002D6A0408BD
:1000A000DDE9030829EA0308CDE903084DEA03085E
:1000B0001DEA03080DEA0308FDE903082184050889
:1000C0002184050821840508218405082184050868
:1000D0002184050895020408D901040800000000E5
:1000E000F569040821840508551501080000000081
:1000F0000000000000000000000000001D65050871
:100100000000000021840508EDE9030821840508AA
:1001100000000000000000000000000000000000DF
:1001200009650508F5640508E1640508CD6405085E
:10013000B964050800000000000000000000000095
:1001400000000000000000000000000089F7000827
:10015000A5640508916405087D64050821840508E7
:10016000218405082184050800000000000000002B
:10017000000000000000000000000000000000007F
:1001800000000000218405080000000000000000BD
:08019000218405082184050803
:08019800487F05000100000092
:1001A0000B3001001A0000000438002058710020B4
:1001B00000000000E8AB06081F500100240000000A
:1001C000C4370020747100200000000004AC060851
:1001D0000502010004000000B06E002098710020AC
:1001E0000000000028AC0608030101000A0000001E
:1001F000303700209C71002000000000158E0008A0
:100200001302010004000000942C0020A8710020BB
:10021000000000002CAC06080D10010028000000B2
:1002200004610020AC710020000000000170030890
:100230000902010001000000106E0020D4710020AE
:100240000000000030AC0608F901010004000000C5
:10025000C4600020D871002000000000A5DB030866
:10026000FD0101001E000000A4600020DC710020E0
:100270000000000013DB0308FB0101000100000087
:10028000E85B0020FC7100200000000005F8040875
:10029000FC01010009000000B45A00200072002097
:1002A0000000000015F80408F70101000600000036
:1002B000A85A00200C7200200000000032AC060892
:1002C000160215003F000000FC34002014720020CC
:1002D0000000000095F70408340001001000000041
:1002E000D85900205472002000000000853902080F
:1002F0001102010008000000B059002064720020C3
:100300000000000038AC06081212010004000000D2
:10031000A85900206C7200200000000040AC0608C4
:100320001830010034000000745900207072002061
:1003300000000000B5F80408000201000B000000F6
:1003400000500020A472002000000000FDEA040814
:100350002A0201000800000010450020B0720020B1
:100360000000000044AC0608205201000800000014
:10037000B8440020B872002000000000AD1B020845
:100380000610010024000000AC330020C0720020E1
:100390000000000031F804080C0201000400000015
:1003A000783D0020E472002000000000D5EA040837
:1003B000FE010100140000007C650020E8720020AE
:1003C000000000005DEB04081B1001000C000000A1
:1003D000B48C00200CA3002000000000054C010894
:1003E00021020100F0000000E88A002018A300208C
:1003F00000000000653201083710010030000000E5
:10040000B093002008A40020000000004CAC0608B7
:100410000E02010002000000F08E002038A400202F
:10042000000000007CAC0608161001000600000069
:10043000E88E00203CA40020000000007EAC0608EE
:100440002F10010022000000E8A2002044A4002098
:100450000000000084AC0608232201001000000008
:10046000188E002068A4002000000000A8AC060838
:100470001E000100090000000C8E002078A400205E
:1004800000000000B8AC0608052001000C000000C8
:10049000308E002084A4002000000000C4AC0608B8
:1004A000FD0701007C000000B489002090A400201A
:1004B000000000001D1C0108F59101006C00000007
:1004C000748A00200CA500200000000045310108BE
:1004D00023200100100000001293002078A50020C6
:1004E0000000000025060208122001001100000093
:1004F000F48D002088A5002000000000D0AC060884
:100500001400010005000000C4B50020E8B500207B
:1005100000000000E4AC0608012001000C0000000F
:1005200060AC0020F0B5002000000000EAAC060836
:100530000C400600E400000084AA0020FCB5002066
:1005400000000000696A03080A900100240000000E
:1005500040AA0020E0B6002000000000DD050208EF
:100560000E300300BC0100007CA8002004B700206E
:1005700000000000B139020813000100040000006F
:100580006CB30020C0B8002000000000F8AC0608E2
:100590000101010004000000B4A70020C4B800203D
:1005A0000000000000000000000101000400000045
:1005B000ACA70020C8B8002000000000FCAC060872
:1005C0000201010003000000A8A70020CCB8002011
:1005D00000000000A96A0308220201001C010000BB
:1005E00054B10020D0B80020000000004DF70408EE
:1005F000010201000B000000C0A70020ECB90020A0
:1006000000000000EDEA04080202010003000000FF
:1006100030AD0020F8B9002000000000000000000C
:100620001B02010010000000DCAC0020FCB900201F
:1006300000000000B1EA04081A0001000E000000EA
:10064000F0C7002020C800200000000000AD060810
:10065000150010007000000008C6002030C80020FF
:1006600000000000000000002A00080060000000F8
:1006700018C50020A0C8002000000000851B02084B
:100680002C0004001000000010C9002000C9002048
:10069000000000004D1902082B0012002400000089
:1006A00044C9002020C900200000000021190208D0
:1006B0002920140078000000FCC1002068C9002037
:1006C00000000000000000001902010010000000FE
:1006D000A0C10020E0C900200000000095EA040845
:1006E000F62101000C00000090C00020F0C900209D
:1006F0000000000010AD06081C0202001C000000F3
:10070000A8C0002040CA00200000000051F40408E6
:10071000F831010006000000E8CC0020C0D0002025
:10072000000000001CAD06080300010001000000ED
:1007300008CD0020C8D0002000000000000000000C
:1007400010100100020000007CCB0020CCD0002063
:100750000000000022AD060819000100050000009D
:100760005CCA0020D0D000200000000024AD0608A4
:10077000020001000C00000084D4002044D60020B8
:10078000000000000000000025201E002C010000D9
:1007900090D4002050D6002000000000000000008F
:1007A0002902010040000000ACD300207CD70020CB
:1007B000000000002AAD06080A0201001400000033
:1007C000A8D20020DCD7002000000000156C030830
:1007D000280204000400000050DF002028E200206E
:1007E00000000000D1EA0408270204000400000011
:1007F0004CDF00202CE2002000000000C5EA0408C5
:100800001F0208001000000088DC002030E20020F9
:100810000000000075EA04081A0201003C00000014
:1008200030D8002040E200200000000011F9040848
:10083000031201003D000000D8E000207CE200200F
:10084000000000006AAD0608381001000100000039
:10085000FCD70020BCE2002000000000A8AD060884
:1008600004000800800000004CE30020CCE30020DE
:100870000000000000000000100201000100000064
:1008800094FD002090FD002000000000AAAD0608A5
:100890002B0201000C000000D0E4002098FD002095
:1008A00000000000ACAD06081D02020006000000BA
:1008B00018FB0020A4FD0020000000000000000044
:1008C000081203000F00000020FB0020AC080120EC
:1008D0000000000005EB04082700010004000000F0
:1008E000D8E90020BC08012000000000B8AD0608CF
:1008F0000403090412010002EF020140830456328E
:100900000002010203010000120100020202004085
:100910008304405700020102030100000902640041
:10092000030100C032090400000103000000092196
:10093000110100012236000705830309000A080B94
:100940000102020201000904010001020201000586
:1009500024001001052401000204240202052406DB
:100960000102070582030800FF09040200020A00D1
:100970000000070501024000000705810240000059
:1009800009024300020100C0320904000001020212
:1009900001000524001001052401000104240202C5
:1009A0000524060001070582030800FF0904010071
:1009B000020A00000007050102400000070581024D
:1009C00040000000FF000000140000FF00000000D5
:1009D00000000000AA550701000001AA550501000A
:1009E000002D202D2D202D2D2D2D202D2D2D2D00B8
:1009F00000000000000000000000000000000000F7
:100A00000800000030AC0508FF1FFF1F7D0000003C
:100A1000AD830008A9830008A58300089983000816
:100A200095830008A18300089D83000821840008A5
:100A300015840008ED83000801840008D9830008AC
:100A4000C5830008B1830008010000000000803F5A
:100A500005010905A101A10005010930093109328B
:100A6000093309350934093609371581257F750899
:100A70009508810205091901290815002501950825
:100A800075018102C0C0000009022200010100E0DE
:100A900032090400000103010200092111010001D3
:100AA0002236000705830309000A000000600240A7
:100AB0001060024000000000000000000000000084
:100AC000000B00000000000000000000000000001B
:100AD00000600240286002400100000000000000A9
:100AE00000000000060C00000000000000000000F4
:100AF0000000000000600240406002400200000070
:100B00000000000000000000100D000000000000C8
:100B10000000000000000000006002405860024039
:100B2000030000000000000000000000160E00009E
:100B30000000000000000000000000000060024013
:100B4000706002400400000000000000000000008F
:100B5000200F000000000000000000000000000066
:100B600000600240886002400500000000000000B4
:100B7000000000002610000000000000000000003F
:100B80000000000000600240A0600240060000007B
:100B90000000000000000000301100000000000014
:100BA000000000000000000000600240B860024049
:100BB000070000000000000000000000362F0000C9
:100BC000000000000000000000000000006402407F
:100BD000106402400000000000000000000000005F
:100BE00000380000000000000000000000000000CD
:100BF0000064024028640240010000000000000080
:100C000000000000063900000000000000000000A5
:100C10000000000000640240406402400200000046
:100C20000000000000000000103A0000000000007A
:100C30000000000000000000006402405864024010
:100C4000030000000000000000000000163B000050
:100C500000000000000000000000000000640240EE
:100C6000706402400400000000000000000000006A
:100C7000203C000000000000000000000000000018
:100C8000006402408864024005000000000000008B
:100C900000000000264400000000000000000000EA
:100CA0000000000000640240A06402400600000052
:100CB00000000000000000003045000000000000BF
:100CC000000000000000000000640240B864024020
:100CD0000700000000000000000000003646000091
:100CE0000000000000000000000000000000000004
:100CF000010203040102030406070809E5E20008F3
:100D00009DE9000815E50008C5840008A58A0008CB
:100D1000D5840008F18400089D8400088D840008B3
:100D20000000000000000000AA550B010000AA55B9
:100D300005010000AA550902000000AA5503009F02
:100D400001000000C01200005071002000000000EF
:100D500028710020000000000100000000000100D8
:100D60007EFF0000FFFFFFFFFF000000FFFFFFFF0F
:100D7000F42906087029060800000000316B0308FA
:100D8000A086010004000000000000000000000038
:100D90000000000000000000000000000000000053
:100DA0000000000000000000000000000000000043
:100DB00000000000F4290608FC29060800000000D5
:100DC000A5D90308E80300000400000000000000AB
:100DD0000000000000000000000000000000000013
:100DE0000000000000000000000000000000000003
:100DF0000000000000000000042A060800000000B7
:100E00000000000055D102087D000000FF00000036
:100E100000000000000000000000000000000000D2
:100E200000000000000000000000000000000000C2
:100E300000000000000000000000000070A806088C
:100E400000000000000000008D0203087D0000008B
:100E5000FF00000000000000000000000000000093
:100E60000000000000000000000000000000000082
:100E70000000000000000000000000000000000072
:100E80007C3506080000000000000000692403080B
:100E90007D000000FF0000000000000000000000D6
:100EA0000000000000000000000000000000000042
:100EB0000000000000000000000000000000000032
:100EC000000000000C2A06080000000000000000DE
:100ED00069DF0308E80300000300000000000000D1
:100EE0000000000000000000000000000000000002
:100EF00000000000000000000000000000000000F2
:100F00000000000000000000102A06080000000099
:100F100000000000ADDA0208102700000300000006
:100F200000000000000000000000000000000000C1
:100F300000000000000000000000000000000000B1
:100F400000000000000000000000000048A40608A7
:100F50000000000035150208CD3C04085F76000053
:100F6000050000000000000000000000000000007C
:100F70000000000000000000000000000000000071
:100F80000000000000000000000000000000000061
:100F900014A8060800000000000000009D6A040874
:100FA0001027000001000000000000000000000009
:100FB0000000000000000000000000000000000031
:100FC0000000000000000000000000000000000021
:100FD000000000001C2A06080000000000000000BD
:100FE000A9D90308E8030000050000000000000084
:100FF00000000000000000000000000000000000F1
:1010000000000000000000000000000000000000E0
:101010000000000000000000282A06080000000070
:1010200000000000696E0308204E0000030000006D
:1010300000000000000000000000000000000000B0
:1010400000000000000000000000000000000000A0
:10105000000000000000000000000000382A060820
:101060000000000000000000516C0308204E00004A
:10107000030000000000000000000000000000006D
:101080000000000000000000000000000000000060
:101090000000000000000000000000000000000050
:1010A000482A06080000000000000000B5DB030825
:1010B000400D0300030000000000000000000000DD
:1010C0000000000000000000000000000000000020
:1010D0000000000000000000000000000000000010
:1010E00000000000582A0608000000000000000070
:1010F00079A3030810270000010000000000000091
:1011000000000000000000000000000000000000DF
:1011100000000000000000000000000000000000CF
:1011200000000000000000009C29060800000000EC
:1011300000000000119B01081027000003000000C0
:10114000000000000000000000000000000000009F
:10115000000000000000000000000000000000008F
:10116000000000000000000000000000602A0608E7
:10117000000000000000000081D80308A861000002
:10118000010000000000000000000000000000005E
:10119000000000000000000000000000000000004F
:1011A000000000000000000000000000000000003F
:1011B0006C2A060800000000000000005D0704081B
:1011C000A00F00000100000000000000000000006F
:1011D000000000000000000000000000000000000F
:1011E00000000000000000000000000000000000FF
:1011F00000000000782A060800000000000000003F
:10120000A974010810270000010000000000000080
:1012100000000000000000000000000000000000CE
:1012200000000000000000000000000000000000BE
:101230000000000000000000842A060800000000F2
:1012400000000000696C01081A4100000100000064
:10125000000000000000000000000000000000008E
:10126000000000000000000000000000000000007E
:10127000000000000000000000000000882A0608AE
:101280000000000000000000498E00081027000048
:10129000010000000000000000000000000000004D
:1012A000000000000000000000000000000000003E
:1012B000000000000000000000000000000000002E
:1012C00084290608000000000000000079E80108F9
:1012D00050C30000010000000000000000000000FA
:1012E00000000000000000000000000000000000FE
:1012F00000000000000000000000000000000000EE
:1013000000000000942A0608000000000000000011
:10131000AD9C0008400D030000000000000000002C
:1013200000000000000000000000000000000000BD
:1013300000000000000000000000000000000000AD
:1013400000000000000000009C2A060800000000C9
:1013500000000000756B0308400D03000000000052
:10136000000000000000000000000000000000007D
:10137000000000000000000000000000000000006D
:10138000000000000000000000000000A42A060881
:10139000000000000000000099C7010850C30000D1
:1013A000030000000000000000000000000000003A
:1013B000000000000000000000000000000000002D
:1013C000000000000000000000000000000000001D
:1013D000B02A060800000000000000000D7D030890
:1013E00040420F000000000000000000000000006C
:1013F00000000000000000000000000000000000ED
:1014000000000000000000000000000000000000DC
:1014100000000000BC2A06080000000000000000D8
:101420000574030850C30000000000000000000025
:1014300000000000000000000000000000000000AC
:10144000000000000000000000000000000000009C
:101450000000000000000000C82A0608000000008C
:1014600000000000B5540108102700000000000033
:10147000000000000000000000000000000000006C
:10148000000000000000000000000000000000005C
:1014900000000000000000000000000001FF01004B
:1014A000E00101007D900108000000000000000044
:1014B00080B3050808FF00000000000000000000E5
:1014C0000000000020CC0508000000000000000023
:1014D00000000000D8CC050800000000000000005B
:1014E0000000000084CC050800000000000000009F
:1014F000A5B50108CAAF00200101000015D40108FC
:101500000000000000000000ACCD050879D70108FC
:10151000000000000000000064CD05082D202D2DE6
:10152000202D2D2D2D202D2D2D0000000000000040
:10153000000000000000000000000000FFFFFFFFAF
:10154000CDC001080000000000000000B0CB05087D
:1015500001000000FA00000001000000010000008E
:10156000CAAB00200000F40101000000C8AB00205D
:101570000000F40101000000C6AB00200000F401EF
:1015800001000000C4AB00200000F40101000000D5
:10159000C2AB00200000F40101000000C0AB00203D
:1015A0000000F40101000000BEAB00200000F401C7
:1015B0000100000035990108F998010800000000B9
:1015C000C0B50508AEAB002005320100BCAB002061
:1015D0006400F40101000000BAAB00206400C409FB
:1015E00001000000ACAB0020E803D00701000000C0
:1015F000AAAB0020E803D00701000000A8AB002040
:10160000E803D00701000000A6AB00201E00B80BC5
:1016100001000000B4AB002005000F000100000035
:10162000B6AB002003000A0001000000A4AB0020BC
:101630001E00F40101000000B8AB00200200000011
:101640004CB60508A2AB00201400640001000000A5
:10165000B0AB00203200E80301000000A0AB002086
:101660000000C8000100000081AA002000C801009D
:1016700080AA0020005001007FAA0020005A01002B
:101680007DAA00200200000058B60508242C060898
:101690002C2C0608C8AF00200100C409000000007F
:1016A000C6AF00200100C40900000000C4AF002044
:1016B0000100C40900000000C2AF00200100C409FD
:1016C00000000000BEAF00200100C40900000000BF
:1016D000C0AF00200100C40900000000BCAF002022
:1016E0000100C40900000000BAAF00200100C409D5
:1016F00000000000E1A7002000C80100E0A70020D2
:1017000000C80100DEA700200000FFFF0A00000063
:10171000DCA700200100C80001000000DAA70020BB
:101720003200307532000000D8A700207EFF140080
:1017300005000000D6A7002005002C0105000000D0
:10174000D4A70020055A0500D1A7002000FF010002
:10175000D3A7002002000000340F0020CFA70020F4
:1017600003000000A4AD0508D0A7002000FF010081
:10177000D2A7002002000000340F0020CEA70020D6
:1017800003000000A4AD050820A70020FF7F010092
:101790001CA7002000000000FFFFFFFF0100000069
:1017A00018A7002000000000FFFFFFFF010000005D
:1017B00014A7002000000000FFFFFFFF0100000051
:1017C00089980108199801080000000064B605080E
:1017D00070AC0020EE02CA08010000006EAC0020D0
:1017E00000C80100640000006DAC002000C80100CA
:1017F000640000006CAC00200200000070B7050817
:10180000BAA700200000803E05000000B8A7002015
:1018100080C1803E05000000B2A700200083007D4B
:1018200005000000B0A7002080C1803E0500000038
:10183000ABA7002000FF0100A4A700206400F40172
:1018400001000000A2A700206400F40101000000D4
:10185000A0A700206400F401010000009EA7002062
:10186000040000007CB705089DA7002002000000CE
:1018700090B705086DA800200D0000009CB7050872
:101880006AA800200064010068A800203200102728
:101890000A00000066A800200D0000009CB70508A3
:1018A00065A800200D0000009CB7050864A8002072
:1018B00002000000D4B7050875AC00204400000009
:1018C000E0B7050873AC002003000000F4B8050879
:1018D00074AC00200400000004B905086FA80020C3
:1018E0000300000018B905086EA8002003000000DE
:1018F00018B905086EAA0020000A01006CAA002091
:101900000000E803010000006AAA00200000E803CC
:101910000100000068AA0020000A010066AA002059
:101920000000E8030100000064AA00200000E803B2
:101930000100000038AA00200000E80301000000B8
:101940003EAA00200000E803010000003CAA00209D
:101950000100E803010000003AAA0020010501008F
:101960007CAA00200200000028B905087AAA0020FD
:101970000000F4010100000078AA00200000F4013A
:101980000100000076AA00200000F4010100000020
:1019900074AA00200000F4010100000072AA0020D7
:1019A0000000E8030100000070AA00200000E80326
:1019B000010000008EAB0020006401000A0000005E
:1019C0008DAB0020006401000A0000007BAB00200A
:1019D000196401007AAB00200200000034B9050848
:1019E00078AB0020E803D0070A00000076AB0020A7
:1019F000006401000A0000006BAB002000640100DD
:101A00006AAB00200064010072AB0020006401009A
:101A10000A00000071AB0020006401000A00000011
:101A200070AB0020006401000A00000075AB0020CC
:101A300000FF01000A00000074AB002000FF01005D
:101A40000A00000073AB002000FF01000A00000044
:101A50006FAB002001FF01000A0000006EAB002008
:101A600001FF01000A0000006DAB002001FF010032
:101A70000A00000078A800200000F4010100000026
:101A800076A800200000E8030100000074A80020F0
:101A90000000E8030100000072A800200000E80335
:101AA0000100000070A800200000E8030100000011
:101AB0001BB000200096010012B0002000C80100F9
:101AC00011B000200064010010B00020006401008B
:101AD0000FB00020006401000EB00020006401007F
:101AE0000DB00020FF0801000CB0002001640100CF
:101AF00009970108CD9601080000000040B90508CB
:101B000015B000200132010014B0002001000000D7
:101B1000B0B9050813B0002004000000B8B90508EA
:101B20000BB00020009601000AB000200064010004
:101B300008B000201400E8030100000006B00020F7
:101B4000000030750A00000004B0002000C8010049
:101B500003B0002000C8010002B0002000C801004E
:101B600018B00020003201001AB00020001401005B
:101B700019B00020004B010017B000200400000045
:101B8000CCB9050816B00020006401000A0000006E
:101B90009AAB002000C805000A00000099AB0020A5
:101BA00001000000DCB905089CAB002000C805005E
:101BB0000A0000009BAB002001000000DCB9050812
:101BC00098AB002000C805000A00000092AB00207E
:101BD00000C805000A00000096AB002000C8050000
:101BE0000A00000093AB002000C805000A000000B6
:101BF00097AB002000C805000A00000094AB00204D
:101C000000C805000A00000095AB002000C80500D0
:101C10000A00000091AB002000C805000A00000087
:101C200090AB002002000000E4B905082AB00020B3
:101C30000000D0070100000024B0002000C801000F
:101C400023B0002000C8010022B0002000C801001D
:101C500028B000200000D0070100000021B00020C3
:101C600000C8010020B0002000C801001FB0002003
:101C700000C8010026B000200000D00701000000CD
:101C80001EB0002000C801001DB0002000C80100E7
:101C90001CB0002000C801009D9401088594010833
:101CA000A9C00108F0B9050861A80020005A010088
:101CB00060A8002000C801005EA80020E803D0074B
:101CC000010000000000000000000000E5B5010870
:101CD0008CBA0508CDA7002003000000D4BA05087F
:101CE000CCA7002000030100CBA7002000030100C7
:101CF000C19301087593010800000000E4BA0508CB
:101D000035930108ED9201080000000080BB050832
:101D10000D9401088DC001080000000000BC0508FA
:101D2000BCA700200103010041900108199001089F
:101D30000000000074BF0508F5990108C999010861
:101D400000000000F4BF05085D920108059201083B
:101D50000000000064C00508AD9401082DDF0108F3
:101D6000000000001CC1050891B60108219A010875
:101D700000000000C4C10508FD9401080000000037
:101D80000000000050C20508E19501088195010896
:101D900000000000B4C205088996010845960108B4
:101DA000000000006CC305084904020845970108BB
:101DB00000000000F8C305089EAB002001060100EA
:101DC00045950108119501080000000010C505089F
:101DD0006503020851C201080000000080C5050823
:101DE0007597010871C3010800000000FCC60508D2
:101DF0008D04020831C301080000000008C805086E
:101E00009DAB0020010301005594010825940108B1
:101E100000000000DCC805082DC00108000000001B
:101E20000000000040C90508B592010875C001080E
:101E300000000000DCC905080000000000000000F0
:101E40000000000078CA0508F1970108ADC4010838
:101E500000000000F8CA05080000000000000000B3
:101E60000000000020CD0508883700209CFF2C01D1
:101E70000000000004B30020E0150C170000000073
:101E800006B300200200000058CD050898A70020E6
:101E900088136F17010000009AA7002088136F179E
:101EA00000000000223700200000000000000000B9
:101EB0002037002000000000000000001E37002036
:101EC00000000000000000001C370020000000009F
:101ED000000000001A370020000000000000000091
:101EE000183700200000000000000000EC05002072
:101EF000000000000000000021A7002003000000F7
:101F000048CE050890A7002088136F170100000035
:101F1000A66E002088136F1700000000459101088D
:101F2000000000000000000058CE050885AF00202A
:101F300001000000ACCE0508A86E002001000000E2
:101F4000B8CE05089E6E002002000000C0CE050835
:101F5000000000000000000000000000CCCE0508DA
:101F60002D910108000000000000000068CF050866
:101F7000000000000000000000000000BCCF0508C9
:101F80000000000000000000000000002CD0050848
:101F90009CA700200200000064D00508A26E00206B
:101FA000E0150C170000000088BB0020DCBB0020FF
:101FB00001F11F3F01D601010100000000010101F4
:101FC00000FF0100FC720020FFFFFFFF0100000086
:101FD0000000803F00000000000000000000000042
:101FE00000000000000000000000000000000000F1
:101FF00000000000000000000000803F0000000022
:1020000000000000000000000000803F0000000011
:1020100000000000000000000000803F0000000001
:1020200000000000000000000000FA430000FA4336
:1020300089A5030800000000000000000000000067
:102040000000803F60FECD0000000000CCD70020E3
:102050000800000000000000BCD7002008000000BD
:10206000718A000851890008F5E4000800000000AA
:1020700089840008B1E20008C988000825E2000848
:10208000000000000000000049840008E189000809
:102090001189000845E40008000000006184000880
:1020A00029E200089D88000881E100080000000086
:1020B0000000000055840008FFFFFFFF0100000042
:1020C000A00F0000B80B00000102FFFF01FF00009D
:1020D000FFFFFF003CA40608000008020503030000
:1020E0000000000044A406080100080205040300E3
:1020F000000000001C4E06080200FE010110030053
:1021000000000000842F06080300140200030000F2
:10211000000000004CA4060804001F020200080092
:102120000000000054A4060805001F020201080078
:1021300000000000FFFFFFFF00010000204E000034
:102140000000000000000000000018500600000021
:10215000D007000001040C00010118600700000016
:10216000A00F000002040E00020318700700000018
:102170000A1A000003040C00030518900600000072
:10218000204E000000020C000000000097FFFFFF3F
:1021900081060000C4090000C4090000030000001B
:1021A000881300000101000094FFFFFFE40C000011
:1021B000B80B0000C40900000600000088130000EE
:1021C0000203000090FFFFFFEF160000AC0D0000BF
:1021D000C40900000A000000881300000305000085
:1021E0008BFFFFFF0B480000A00F0000C409000098
:1021F000000000008813000000000401000002003D
:1022000001000002100000000700010101FF0100B1
:10221000F401000004220608000000000000000095
:1022200000000000010000000000000000000000AD
:10223000000000000000000001000000000000009D
:102240000000000000000000010203040607080966
:1022500001FF0000001B0020000000000000000043
:10226000000000000000000000000000000000006E
:10227000000000000000000000000000000000005E
:10228000000000000000000000000000000000004E
:10229000000000000000000000000000000000003E
:1022A000000000000000000000000000000000002E
:0822B000000000000000000026
:082800000000000000000000D0
:108000002DE9F04700230F6801264FF0030C02E032
:108010000133102B41D006FA03F232EA0704F7D1FC
:10802000D0F800E05C000CFA04F52EEA050EC0F86A
:1080300000E091F80490D0F800A009FA04FE09F1DC
:10804000FF394EEA0A0EB9F1010FA846C0F800E068
:108050006FEA050515D8D0F808E005EA0E05856039
:108060004D79D0F808E0A54045EA0E0585604568E1
:1080700025EA020242608A7945689A4092B22A4310
:108080004260C26822EA0802C260CA79C568A2409A
:1080900001332A43102BC260BDD1BDE8F08700BF79
:1080A000037830B403B30246C0F10105531912F846
:1080B000014FDBB2002CF9D101335B00DAB20C4C7A
:1080C0000B80032322706370017859B102230025CD
:1080D0005A1CD2B2E154A55410F8011F0233DBB28E
:1080E0000029F5D130BC704702221346E7E700BFF4
:1080F000601B0020084AD2E9403199420AD0D118C9
:10810000013391F808110170C3F30A03C2F800317A
:108110000120704700207047601B0020064AD2F8FB
:108120000839D2F80C29934294BF4FF40060002024
:10813000013B9B1A18447047601B0020012380F804
:108140005130704707B501A8FFF7D4FF0028FAD0D7
:108150009DF8040003B05DF804FB044BD3E9400331
:10816000984288BF03F50063181A7047601B00200F
:1081700001207047024BC3F81029C3F81419704747
:10818000601B0020024BC3F81829C3F81C19704764
:10819000601B00207047704730B4134DD5E9402371
:1081A0009A4286BF03F50064A21A9A1A0A44B2F5ED
:1081B000006F13D8A9B101444A1E013810F8014FCD
:1081C000E918824203F1010381F80841C3F30A036D
:1081D000F4D1C5F80431002030BC7047022030BC17
:1081E00070470846F8E700BF601B0020F8B51A4C3E
:1081F00094F82039002BFBD159B301444E1E451E83
:10820000D4F80C29D4F8081915F8017F531CC3F3CE
:108210000A038B422CBF4FF400600020C91A22448D
:1082200001440129C4F80C3982F824790FD10120C6
:1082300037F0FCFED4F80839D4F80C198B4294BFFF
:108240004FF4006200225B1A1344012BEFD0B542B9
:10825000D6D10020F8BD00BF601B002010B5074C30
:10826000E36A0846114643B1E36A052B05D1002AAB
:10827000236B02DDFFF7BAFF236B10BD582C0020E3
:1082800010B590F85010002380F8503061B1094CBF
:10829000E26A5AB1E26A052A0AD13C30236BFFF741
:1082A000A5FF236B012010BD0120FCE71046FAE773
:1082B0001846F8E7582C0020002280F85120DFE70C
:1082C00090F85020531C0244DBB280F8503082F802
:1082D0003C1090F851200AB1132B00D9D0E7704719
:1082E000212838B50C4605D022282DD0202812D0C0
:1082F000002038BD0029FBD0072AF9D1194B586B53
:1083000093F8381093F8392093F83A3020602171AF
:108310006271A371ECE70029EAD0072AE8D1124A7A
:10832000D2F814391BB1D2F81009096898470D4BDF
:10833000256820796179A2795D6383F8380083F834
:10834000391083F83A20D3E70029D1D0022ACFD1BF
:10835000054AD2F81C39002BCAD00988D2F818096E
:108360009847C5E7582C0020601B0020014B0020D7
:10837000D8627047582C0020044B054A0020052184
:10838000D162C3F81C09C3F814097047601B0020B0
:10839000582C0020704700BF704700BF704700BFD7
:1083A000704700BF704700BF704700BF704700BFF5
:1083B00008B50248FFF774FE014808BD38220608D8
:1083C000601B002008B50248FFF76AFE014808BD9F
:1083D00048220608601B002008B50248FFF760FE2F
:1083E000014808BD54220608601B002008B5024859
:1083F000FFF756FE014808BD60220608601B0020FA
:1084000008B50248FFF74CFE014808BD6C2206087B
:10841000601B0020042301480B8070479801002056
:1084200010B4074A074B92F83C00122403F11402DF
:108430000C8001280CBF184610465DF8044B7047AD
:10844000582C00209C010020642301480B807047B9
:10845000C4010020432301480B80704728020020FC
:1084600010B5074CD4F8D400FF2807D005490A6C92
:108470004431FFF735FFFF23C4F8D430002010BD8E
:1084800098010020582C0020EAE700BF08B5D0F87A
:10849000E4355B6A9847002008BD00BF08B5D0F8F6
:1084A000E4351B6A9847002008BD00BFD0F8E435CA
:1084B00010B504461B689847D4F8E8359B68984780
:1084C000002010BD08B5D0F8E435DB6903B198474A
:1084D000002008BD08B5042290F81211D0F8E83544
:1084E00080F8131180F81221DB689847002008BD3E
:1084F00010B5D0F8E83504461B699847032384F883
:108500001231002010BD00BF0B0617D401EB810310
:1085100000EBC30310B400EB81000124002283F8B8
:10852000764383F8741383F87523426D5DF8044B2A
:10853000136843F4001300201360704701F07F01BB
:1085400001EB810300EBC303012200EB810083F800
:108550001C1183F81E2183F81D2182691368002BEA
:1085600001DA43F0804343F40013136000207047A6
:1085700082B00023016801930B6901930E4B03E065
:108580000A690192013B13D0019A002AF8DA019A94
:10859000094B42F001020192019A0A610A690192B3
:1085A00003E00A690192013B02D0019AD207F8D494
:1085B000002002B0704700BF400D0300436D064A23
:1085C0001A61C278012A06D100F2CC5058614FF0EE
:1085D000802219681A6070471800086010B5802161
:1085E0000446FFF791FF20460021FFF78DFF20464C
:1085F000BDE81040E2E700BF70B44B78012B26D0F5
:108600000B784A6900EB83035C6D25682369D2B15E
:108610008A684A6102F07F0223F4002323F07F037B
:1086200042F4002213432361C378012B04BF0B697A
:108630006361C5F3076363F07B0363F31F65256024
:10864000002070BC70478A6802F07F02E4E782690C
:108650004C691568136944B38E68B4428CBF06F048
:108660007F0404F07F0423F4002323F07F0344F409
:10867000002443EA040388BF4E611361C378012BD1
:108680001DD0C5F3076464F07B0464F31F651560B7
:10869000002BD5D14B69002BD2D002690878516BE1
:1086A000012383400B435363CAE723F4002323F0E1
:1086B0007F0343F400231361C378012BE1D10B78CE
:1086C0000C6900EB8300C5F30763816963F07B03EA
:1086D00063F31F654C610020156070BC704700BFDC
:1086E0002DE9F0434B78012B30D00B784C6900EB2F
:1086F00083035E6D356837691CB38B681C44013C8D
:10870000B4FBF3F4C4F3090203FB02F3C3F3120353
:108710004B61144643EAC44363F31C073761C378D3
:10872000012B04BF0B697361CB78012B44D0C5F3D7
:10873000076363F07B0363F31F6535600020BDE8CA
:10874000F0838A680124C2F31203E3E791F8008002
:108750004E6900EB880EDEF818C0DCF80050DCF83B
:10876000107076B3D1F80890384A06EB0904013C42
:10877000B4FBF9F402EAC444C6F312022243CC78F3
:1087800007F060473A43012C174649D0CCF8102037
:10879000C278012A55D00269516B03FA08F30B43E2
:1087A0005363C5F3076363F07B0363F31F65CCF882
:1087B00000500020BDE8F0834B7973B345F00055BD
:1087C000B5E707F0604747F40027CC78CCF8107085
:1087D000C378012B2FD0012CE3D102699268D20516
:1087E00054BF45F0005545F08055C5F3076262F06F
:1087F0007B0262F31F65CCF80050002B9ED1B0B213
:1088000003308010DEF8D04098D0CA6852F8041BBC
:10881000216001339842F9D190E745F0805586E711
:1088200064F35E77CCF81070C378012BD5D10A6958
:10883000CCF81420D1E70A69CCF81420012CB0D16F
:10884000CBE70B69CCF81430ABE700BF0000F81F92
:1088500038B501EB810400EBC4040D46002184F817
:108860007453C4F88C1384F87513C4F88833C4F8AF
:108870008023C3782821012B01FB050108BFEDB23D
:1088800001F55D7108BFC4F884231DB9FFF7B4FE7C
:10889000002038BDFFF724FF002038BD10B501EBE4
:1088A0008101084A00EBC1010446B1F88C1310465F
:1088B000FFF772FC034A204640230121FFF7C8FF5F
:1088C000002010BDA42C0020E8E700BF30B44C7895
:1088D0000022012C154612D0097800EB81040123F7
:1088E0008B40646D63F31F4501696FF3CF322260E3
:1088F000CB6923EA0503002030BCCB6170470B78BD
:1089000000EB83019C4064F30F058C69ECE700BF2A
:1089100040F2011310B500F5A2710446A0F84431ED
:10892000FFF7D4FF0123A4F89C3304F567712046B8
:10893000FFF7CCFF4FF48173A4F86C3104F5B671E6
:108940002046FFF7C3FFFFF711FD002010BD00BF59
:1089500038B540F2031304460D46A0F8943100F5F3
:10896000CA71FFF7B3FF29462046FFF7D1FF002069
:1089700038BD00BFF0B44B780A78012B4FF00004EB
:1089800000EB820524D0012393406D6D63F31F44F7
:108990002E68330415D48A6891F803C0CF880F4934
:1089A000C2F30A0242F0805343F400430CF0030286
:1089B00043EA824307F00F0243EA825331400B43FC
:1089C0002B600369DA691443DC610020F0BC704756
:1089D0009340AD6963F30F04DAE700BF007833EC2E
:1089E0002DE9F04140F20113044602254FF0400802
:1089F00001270026A0F84431C0F84C8180F8475187
:108A0000A0F84A7180F8486100F5A271FFF7B2FF43
:108A100004F56771A4F89C73C4F8A48384F89F5389
:108A200084F8A0632046FFF7A5FF082203234FF434
:108A30008171C4F87421A4F86C1184F86F3104F5C5
:108A4000B671A4F872512046FFF794FF064B9D8340
:108A5000FFF792FC054A434620463946FFF7F8FEE9
:108A60003046BDE8F08100BF98010020A42C002012
:108A700070B50323092240F2031604460D46C0F8E0
:108A80009C2180F89731A0F89A31A0F8946100F504
:108A9000CA71FFF76FFF29462046FFF7A1FF0020AC
:108AA00070BD00BF70B5002540260446A0F8745381
:108AB00080F87753C0F87C6300F55D71FFF75AFFCB
:108AC0004FF48073A4F81C3104F58E71C4F824614E
:108AD00084F81F51A4F822512046FFF74BFFD4F829
:108AE000E835A078012284F812215B68984728466F
:108AF00070BD00BF82B000230193019A094B42F080
:108B000010020192C168019A0A610A69019203E0A8
:108B10000A690192013B02D0019AD206F8D40020E2
:108B200002B07047400D030082B000230193019A08
:108B30000B4B42F020020192019A61F38A120192DA
:108B4000C168019A0A610A69019203E00A69019207
:108B5000013B02D0019A9206F8D4002002B070477F
:108B6000400D03000E4BDA68D20310D4DA68D10648
:108B70000FD4DA68D20510D4DA6812F0E00F0AD107
:108B8000DB6813F0020F14BF082009207047012092
:108B9000704706207047072070470220704700BFCB
:108BA000003C024000207047134AD2F88C00C8B144
:108BB000D2F89030B3B1884212D88B4234BF002330
:108BC0000123DBB25BB1D2F89830C2F8941099421D
:108BD00005D00A4BC2F89810142083F8D8007047CB
:108BE0000023EEE7A1F59C53083BB3F57A7F2CBF39
:108BF00000230123E6E700BF582C00209801002045
:108C0000064B93F89D2083F89C108A4205D0044AB5
:108C100083F89D10142082F8D8007047582C00204B
:108C200098010020704730B1034B93F89E00012853
:108C300094BF002001207047582C002008B5FFF792
:108C4000F2FF60B1064A92F89F3092F89C205B00D8
:108C500003F00203002A18BF43F001030B6008BDB4
:108C6000582C002008B5FFF7DEFF18B1024BD3F8EF
:108C7000A0300B8008BD00BF582C002070B5FFF756
:108C8000D2FF60B10B4AB2F8A4503DB1D2F8A8604F
:108C90000023B3421C4603DB002000E00D7070BDD2
:108CA00002EB44040133B4F8AC40AC42DBB2F0D187
:108CB0000B70F4E7582C002008B5FFF7B4FF10B193
:108CC00000230B70137008BD0420704728B1034BBC
:108CD00093F9DA00003818BF01207047980100208E
:108CE00008B5FFF7F3FF50B1054B93F9DA20012ADD
:108CF000C3BF93F8DD30C3F340030B60002008BD11
:108D00009801002008B5FFF7E1FF18B1024B93F876
:108D1000DC300B7008BD00BF9801002070B5FFF774
:108D2000D5FF38B10E4C94F8DD30DB0703D50023B6
:108D30000B70137070BD0B4D94F9DB3095F8BC606F
:108D400093FBF6F301330B7094F9DB4095F8BC10FC
:108D500094FBF1F301FB134301331370EAE700BF07
:108D600098010020582C00200320704770B50A4A53
:108D700092F8C03006255E1CB6FBF5F405FB1464C2
:108D800092F8C150AC4205D002EBC303C3E93101F4
:108D900082F8C04070BD00BF582C0020002230B5C2
:108DA00004461046914200DC30BDA35C08255840C3
:108DB00010F0800F4FEA400318BF83F0D503013D48
:108DC000D8B2F5D10132EDE710B5E9B10F4BD3F8C8
:108DD000F400814218DCBAB1D3F8BC309A4213DCFB
:108DE0000B4C013A013903FB012184F8E81004F12E
:108DF000E4000521FFF7D2FF062184F8E90004F121
:108E0000E400BDE81040B1E710BD00BF582C0020C1
:108E1000980100200023038083708380C380037245
:108E2000704700BF074A92F8F83092F8FC100133FF
:108E3000DBB2994282F8F83004BF002382F8F830A0
:108E4000704700BF582C0020F8B5794CD4F8483250
:108E500083B1D4F84C3293F82E305BB1754B94F853
:108E60005022A3FB0013012A4FEA931330D0022AA9
:108E700008D002B1F8BD704B9842FBD9012384F8A9
:108E80005032F8BDD4F8542264329A423ED894F855
:108E9000F83004EB031393F8D426FF2A06D0674971
:108EA0000132012083F8D42681F8EA00FFF7BAFFE7
:108EB00094F8C8360122092B84F85022DAD1B4F88C
:108EC0007A3713449BB2A4F87A37A4F8CE36F8BDAB
:108ED00094F8F810C4F854328C2303FB014394F83F
:108EE000C80683F86A22002604F517750A220223B1
:108EF000092884F86662C4F8585284F8672284F816
:108F00005032B7D10131A4F8CC16F8BD94F86622DE
:108F100094F867329A42ADD104F25B2004F51975DA
:108F2000002310F8012F082153405A0013F0800F3E
:108F300008BF5B0082F0070214BFD3B2DBB2013975
:108F4000F3D18542EDD194F865229A4239D194F853
:108F5000F860B4F85F5294F86372B4F8610294F860
:108F6000643294F85DC204EB06126DBA40BA43EA6B
:108F70000723ADB294F85E7282F8D416C2F8D856C0
:108F800081B22E4D94F95C02C2F8DC1647EA0C2738
:108F90001BB20121032EA2F8D676A2F8E03682F8A1
:108FA000D50685F8EA1009D894F8C8260C2A2AD0E4
:108FB0000D2A03D104EB4606A6F8CC06FFF732FFD4
:108FC0005CE794F8F83004EB031393F8D426FF2AF7
:108FD00006D01A490132012083F8D42681F8EA002C
:108FE000FFF720FF94F8C8360122092B84F850229D
:108FF0007FF440AFB4F8783713449BB2A4F87837C5
:10900000A4F8D036F8BD94F876170D4A03EB830325
:1090100003EB830349089B0004EB460693FBF1F343
:1090200082FB0312DB17C3EBA203A6F8CC36C5E71D
:10903000582C0020D34D62103F4B4C00980100206B
:10904000676666660B4B93F8661293F86722914247
:109050000ED010B493F86622D3F85842511CD2B205
:10906000C0B2C9B283F86612A0545DF8044B7047D1
:10907000704700BF582C0020FD2870B522D0F02882
:1090800004D0EF2822D00224204670BD114D0320C9
:10909000052641282E444FF0000405F1010580F01B
:1090A00080030DD0042B0BD9FFF7E6FF2044B54217
:1090B000C4B2E9D015F8010B412880F08003F1D14A
:1090C0000420F3E7044D0B200426E2E7034D0C20B7
:1090D0000626DEE7B4AA0508B0AA0508BCAA05085A
:1090E0000C4AD2F8903730B41C68D2F888575D60CB
:1090F00019810025611C19609D812070D2F890377C
:10910000D2F888171A685A604FF6F67230BC1960A8
:109110009A817047582C0020144B30B4D3F89447F0
:1091200014B300220F2583F89A17090A83F89907C8
:1091300083F89B17C3F89C27C3F8A027C3F8A4277C
:1091400083F8985703F5F360012110F8015F0131AE
:109150002A440E29D2B2F8D183F8A6272046044922
:1091600030BC102237F0C2BA30BC7047582C0020F7
:10917000F0330020034B002183F8A817C3F8AC1785
:10918000CAE700BF582C00202DE9F04FCF4ED04D3C
:1091900086468C4617460FCE05F5F6642DED068BF8
:1091A0000FC40FCE0FC496E8070089B095F8563764
:1091B000039784E80700CDE904EC042B00F2488112
:1091C000DFE813F0B401460141010500C4019FED41
:1091D000C18ADFEDC18AC149C5F8CC17C049C14B6E
:1091E000C14AC5F8C8170399002918BF134638EEBD
:1091F000887AF5EE006AC6EE879ABC4EC5F8D43779
:10920000A6F17E0B06F1C0080027DFEDB97A9FEDCD
:10921000B99A28EE278AB0EE67AA059BBB4200F0F8
:109220000C811BF8013BEA1892F85B47002C00F018
:109230001481002202E0152A00F00F8102EB4201A6
:109240004FEA420918F80100A04202F10102F2D1EE
:10925000294491F8A518002900F066812046029360
:1092600035F01EFF029B82465046029335F05EFFAA
:109270000178002940F0F180029BA9440133DBB260
:10928000032289F8E53889F8E428BAF1000F00F0E4
:10929000E4804FEA141909F1FF39B9F1030F04F022
:1092A0000F0000F20881944C04EB4901B1F840C072
:1092B0004CFA00F111F0010100F0FD80012101FAEA
:1092C00000F0013800EA0C00A14402934EF0BEFE0B
:1092D00099F848C0DFF838E2029B60440EEBC00CFE
:1092E00003228CF807308CF806205EF83000C6F8B0
:1092F00014C000F13F4303F57E0304EB93240121E6
:1093000094F84C309AF8082003F01F045B09032BF3
:1093100001FA04F100F00381042B00F0FB80022B22
:1093200000F0CF80BCF804300693B3FA83F3C3F1A6
:109330001F03C3F3CC0100EB810103F007030C6AA8
:109340009B004FF00F0C0CFA03FC24EA0C040C6297
:109350000C6A02FA03F323430B62022306A9079364
:10936000FEF74EFE039B002B00F08380B5F85437C8
:10937000D5F8981A07EE903AF8EEE77AFCEEE77A1D
:1093800017EE900AB1FBF0F202F57F42FF32120CA9
:10939000B1FBF2F295F85617B2FBF0F0042983B254
:1093A0007ED007EE902AF8EE676A66EE887A29EE9C
:1093B000677A95F8570704990091A6EEA87A01906C
:1093C00051463046C6ED027A86ED037A2EF05AF801
:1093D000002F72DD7368D5F8E82793426FD0012F14
:1093E0006BD0D5F80028934269D0022F65D0D5F80C
:1093F0001828934263D0032F5FD0D5F830289342CA
:109400005DD0042F59D0D5F84828934257D0052F66
:1094100053D0D5F86028934251D0062F4DD0D5F8BF
:109420007828D31A18BF012301370122082F33747B
:10943000727406F118067FF4F0AE304809B0BDEC46
:10944000068BBDE8F08F9FED2E8AF0EE488AC2E6CB
:109450009FED2C8AF0EE488ABDE62B4A224BC5F8D8
:10946000CC270020C5F8D43709B0BDEC068BBDE889
:10947000F08FB0EE690A4FF07DFDFCEEC07A4FF63A
:10948000FF7317EE902AD5F8981AB1FBF2F21A443E
:10949000120CB1FBF2F295F856170429184680D148
:1094A00007EE900A07EE102AF8EE677AF8EE476AA0
:1094B00067EE8A7A7BE7716154E70123B4E7002302
:1094C000B2E7124B5C6C214359642BE7C4AA050830
:1094D000582C0020ACC5A737ACC5A736E96B0308EC
:1094E00095DB0308ED67030889DB03083C340020A3
:1094F0006F12833A00007A44B0AA050808340020AD
:10950000282930386F1203393D69030800380240BA
:10951000683500200F4B1C6B2143196302E70D4B8C
:109520001C6C21431964FDE68A469DE69FED0A8A7C
:109530000A4A0B4BC5F8CC27C5F8C83700220123CF
:10954000CDE90332F0EE488A064B50E69FED068ADD
:10955000EEE700BF003802406F12833AE96B030860
:1095600095DB030889DB030800000000F8B5054619
:10957000262026F023F8124C0146E8B9D4F89C0ABC
:1095800090F838301E3B012B01D937F0E3F80D4F2E
:109590000026AE4208DBB4F8C03A0133A4F8C03A62
:1095A000236BC4F8D03AF8BD17F8011BD4F89C0A15
:1095B00037F0D0F80136ECE7002384F8CE3AEFE735
:1095C000582C0020F836002038B5144C94F8C130DF
:1095D00094F8C0209A421AD004EBC303D3E9312097
:1095E00004F52A610023984212DC9378C4F8D40A67
:1095F0005B0884F8CE3AFFF7B9FF94F8C130062132
:109600000133B3FBF1F201FB123384F8C13038BDF2
:10961000D55C01F8015B0133E5E700BF582C002061
:1096200013B504462620019125F0C8FF019920B901
:10963000204602B0BDE810406EE502B010BD2DE935
:10964000F84F1B4C05461E2094F8D8AA94F8D9BAB6
:1096500094F8DA6AB4F8DC9AB4F8DE8A94F8E07A1E
:1096600025F0ACFF30B1B8F1000F03D0C1460126A0
:109670004FF0000A94F8E23ADA070AD494F8E72A9D
:109680003AB9012F12D0022F03D113F0020F08BFF5
:10969000012685F800A085F801B0AE70A5F8049009
:1096A000A5F806802F722846BDE8F88F3E46F0E701
:1096B000582C002007B50DF1060213F0C7FD70B15C
:1096C000084BBDF80620B3F80C1BA3F8A420914268
:1096D00005D00549A3F80C2B142081F8D80003B05D
:1096E0005DF804FB582C00209801002013B50446B7
:1096F000FFF7ECFA08B300230DF106022046ADF89F
:10970000063013F0A3FDC0B10D4C9DF8062094F96E
:10971000DA1084F8EF20032908BF62F07F024FF0CF
:109720000501084808BF84F8EF20FFF737FB062142
:1097300084F8F0000348FFF719FB02B010BD00BF2A
:1097400098010020830200202DE9F743C54CD4F88E
:1097500094370D464BB14FF0020800274FF0010936
:10976000D4F8940736F0F2FF60B9002694F89E30E2
:10977000042B00F27281DFE813F09700F6000A0173
:1097800057016001D4F8940736F0D8FFD4F8AC370D
:109790005A1C2344C4F8AC2783F80E0B94F8A8375E
:1097A000012B0AD0022B11D0002B78D10F280CBF2F
:1097B00084F8A897C4F8AC37D2E7A0F17203012B64
:1097C00001D976286BD184F8A887C9E7102AC7D1B8
:1097D000A5490023012211F8010F013203440E2A8A
:1097E000DBB2F8D194F81C2B84F8A8779A42C4F81D
:1097F000AC77B5D194F81D3B002BB1D194F80F6B29
:10980000732E3FD0762E0FD0722EA9D194F8112B43
:1098100094F8103B53EA0223A2D0C4F88C30B4F879
:10982000123BC4F89030A1E794F8112B94F8103B48
:1098300053EA022394D094F8131B94F8122B94F853
:10984000170BC4F8A03042EA012294F8141B84F8E4
:109850009F1094F8151B84F8201B94F8161BA4F88D
:109860001E2B41EA0021A4F8221BD4F8941009B958
:10987000C4F89430B4F8A430002B7FF477AFA4F888
:10988000A42073E794F8152B94F8143B43EA0223C1
:109890001AB2002B3FF464AFA4F8242B66E784F8D7
:1098A000A877C4F8AC775BE7722E4ED1012384F819
:1098B0009E30002294F8C836402B36D1B4F8A4006C
:1098C000A4F8CE6694F8206B94F89E30B4F81ECBC2
:1098D000A4F8CC360502330394F89C10D4F8A07099
:1098E00005F4706503F440532B434FEA0C1543EA2B
:1098F0008133EDB22B43D4F894501BB2BD4214BF58
:10990000082500251343604514BF042000202B4385
:109910000343B14214BF022100211943534BA4F861
:10992000D01693F8D830A4F8D236D4F8F43023B156
:10993000D4F8A830002B40F0A3804D494D481F2299
:1099400003B0BDE8F04351F0A0B8D4F8283B4A4A30
:10995000EB1A934201DC0022ACE77220FFF70AFC0D
:10996000C4F8285BF7E7762E04D1022384F89E30F2
:1099700000229FE7D4F8283B3F4AEB1A9342EADDE6
:109980007620FFF7F7FBC4F8285B002292E7374FF9
:10999000D4F8283B97F8D820EB1AB2B3364A934252
:1099A00036DD94F89F20D2071FD4D4F89410D4F851
:1099B000A02091420FD089B24620FFF731FE97F8E0
:1099C000D830C4F8285B013B87F8D830042384F8EA
:1099D0009E3001226EE7B4F8A410B4F81E2B8A4220
:1099E00003D05020FFF71CFEE9E794F89C1094F890
:1099F000202B8A4206D0B1FA81F149094920FFF7AC
:109A00000FFEDCE7142287F8D8201C4A9342B7DC0B
:109A1000762EA0D17320FFF7ADFB032384F89E3090
:109A2000C4F8285B002245E7732E94D0D4F8281B95
:109A3000114B691A994298DC8DE7D4F8283B0E4AFD
:109A4000EB1A934287DD7620FFF794FB022384F81C
:109A50009E30C4F8285B00222CE7002384F89E3057
:109A60001A4627E7582C002066370020980100206E
:109A7000B7220608890200203F0D03003F420F0075
:109A8000334DD4F82C6B2A2385F8F1300DF1020206
:109A900020230DF10101304685F8F23013F06DFC02
:109AA00030B19DF801109DF8027051EA070339D1D9
:109AB000552385F8F330462385F8F430202301A997
:109AC000304685F8F53013F052FC0346214813B1B7
:109AD000BDF804209ABB204949F03CFBB4F8227B36
:109AE0001E4D87B30DF10301304613F043FC50B314
:109AF0009DF803100DF10602304613F0A7FB10B3DA
:109B0000BDF8062016493B46BA420CBF20222A2245
:109B1000284649F01FFBB4F8243BA4F8303B03B0BF
:109B2000BDE8F083304613F00DFC394685F8F300AC
:109B3000304613F0F3FB037885F8F430BEE70949AB
:109B400049F008FBCAE70849284649F003FBE2E769
:109B5000980100208E020020D922060892020020DF
:109B6000D1220608575C0608D822060838B50B68CB
:109B70000E4D5A1C0A6005221A700B6895F8DA20FF
:109B80000C46591C21601A70236895F8DD20591C79
:109B900021601A70B5F8E010204649F08DF923686D
:109BA00095F8E220591C21601A7038BD98010020F8
:109BB0002DE9F84F2DED028BFFF788F8002844D0EF
:109BC000254B93F9DA0001283FDD93F81041DFF8C7
:109BD00090809FED228A0FF2780BDBE900AB1546EF
:109BE0008E1E02EB44094D4504D1BDEC028B20468C
:109BF000BDE8F88F38F8027B26F8027F07EE907AEE
:109C0000F8EEE77A67EE887A17EE900A4DF044FE98
:109C100052465B464DF098FE41EC100B50F058FC5C
:109C200051EC100B4EF052F90E2F80B20AD91930B8
:109C30003223B0FBF3F080B200EB800000EB800039
:109C4000400080B225F8020BCDE70024CDE700BF2D
:109C50001655B5BBB16B024098010020CDCCCC3D70
:109C60008A37002038B50D46FFF730F8044638B182
:109C70000C4890F8DD30DB0704D5B0F8DE00288012
:109C8000204638BD084A90F9DB3092F8BC2093FB9F
:109C9000F2F102FB11320132013100F58A7013F04A
:109CA000E9FAECE798010020582C00202DE9F04F4C
:109CB000A94D95F8423B8BB08146002B40F0B58012
:109CC000D5F82C6B002E00F0B080A44AD2F81841D1
:109CD00004F0F021B1F1E02F6ED1C2F81831D5F8BF
:109CE000442B944268D004930593ADF81830B5F82E
:109CF000DC3A95F8D8EAADF8143095F8D9CA95F859
:109D0000E03A95F8DAAA8DF818300DF110088DF8C0
:109D100010E08DF811C08DF812A098E8070007AB8D
:109D200003C38F4F1A80C4F342533B44C4F303422E
:109D300093F85210C5F8444B8E4502F1010201D14F
:109D4000944508D030468DF81C108DF81D2013F076
:109D500091FAADF82000304613F0DFFC032804F040
:109D6000070B34D0042836D000239A4501A9304689
:109D700018BF8DF81E3013F0F7FA48B1019BC4F3F9
:109D8000001103F001038B4202D0304613F09CFB1C
:109D90000A2207A9404650F012FE68B19DF81E3015
:109DA000BDF81C2085F8DA3ABDF82030A5F8D82A8D
:109DB000A5F8DC3A49F004FE95F848AB04AF95F8F5
:109DC000483B032B7BD8DFE803F00A3376A35F44DC
:109DD00097F85730C9E75F4497F85F30C5E73946D1
:109DE000304613F0C7FA044658B107A8FFF727FC1E
:109DF0009DF81E109DF810308B4260D0304613F055
:109E0000EFFB95F8483B013303F0030385F8483B2B
:109E10000CB99A45D3D195F8E23ADB0700D524B1C5
:109E2000336849461B68304698470BB0BDE8F08F51
:109E300001A8FFF704FC95F8E28A9DF8044008F0B9
:109E40000108ECB1B8F1000F39D13A460DF1030128
:109E5000304613F092FA044688B307A8FFF7EFFBE9
:109E60009DF81C109DF803309DF81D208B4203D1F6
:109E70009DF81030934222D0304613F0BBFBC0E770
:109E8000B8F1000FBDD13946304613F070FA0446E0
:109E9000A8B107A8FFF7D3FBBDF82010BDF810301C
:109EA0008B420CD085F8498B85F84A8B3368304655
:109EB0009B699847A5E795F8E23AD80701D50024B1
:109EC0009FE707A9304613F04FFA04460028F6D062
:109ED0001E2025F073FB95F84B3B83428046EED065
:109EE00085F84B0B60B1B5F8DE3A002BE7D1079B44
:109EF000D907E4D40121304613F0E6FA444680E75E
:109F0000079BDA07DBD50146304613F0DDFA78E728
:109F10003846FFF794FB97E8070007AB03C31A80A6
:109F20009DF810309BB10DF11D0207A9304613F0CA
:109F300024FA0DF11E01304613F01CFA0A2207A97B
:109F4000384650F03CFD041E18BF012459E708A90B
:109F5000304613F00CFAECE7582C00209801002052
:109F6000B0AA05082DE9F041FD2984B0044669D066
:109F7000F02949D0EF2900F0BF804AB10346861886
:109F800003AD002003F8010B9E4205F8010BF9D147
:109F9000BA4B0B2003F1090501E013F8010F8142D0
:109FA00055D0AB42F9D14B1E152B21D8DFE813F069
:109FB000C500D000DA00E700EE00F400160004014E
:109FC00000012000200023012301230110011001C2
:109FD00010010001200020001B01AD00A84D95F8E4
:109FE000E23ADE0700F16D81B5F8B83BADF80C3010
:109FF0003AB1224403AB13F8011B04F8011BA2423F
:10A00000F9D104B0BDE8F0819E4F03214FF005085F
:10A01000B844002501370CE0FFF72EF8064660191A
:10A020003246FFF79FFF70194745C5B2E9D017F8D0
:10A03000011B412981F08003084601D0042BEBD895
:10A040000426ECE7904F0B214FF00408E0E78C4B1F
:10A05000D3F83C0C80060CD4002AD2D0224403ABA7
:10A0600013F8011B04F8011B9442F9D104B0BDE8B8
:10A07000F08193F84C0B10F0020F93F8640B40D072
:10A08000052834BF02250325142917D97C39C8B205
:10A090000628E1D80629DFD801A050F821F000BF3A
:10A0A00071A2000871A2000859A2000859A0000876
:10A0B00051A2000849A2000841A200080929CBD9F1
:10A0C0000A390A29C8D801A656F821F02DA200089D
:10A0D000A5A2000859A0000859A0000859A000082E
:10A0E00059A0000859A0000859A0000859A000086C
:10A0F00023A2000871A20008644F0C214FF006084B
:10A1000086E70B29A8D10125CDE05D4BB3F8D81B1C
:10A11000CD055ABFCB4303F00103032311F0440FD5
:10A1200018BF042311F0020F18BF072311F4806F2A
:10A1300018BF0923ADF80C305AE7514BB3F8983BE0
:10A1400003EB83035B0003F5C873ADF80C304FE7F6
:10A150004F4BD3ED037AFDEEE77A17EE903AADF868
:10A160000C3045E7464B93F8771B002900F0A080A0
:10A1700001922DF0E7FB019AADF80C0038E701924F
:10A180002DF0E0FB019AADF80C0031E73C4BD3F821
:10A19000C83BADF80C302BE7394BB3F8B81B00299E
:10A1A00000F0898001922DF0D9FB019A80B2E3E79B
:10A1B000334BB3F83A3C19E7314B3649B3F9383CE5
:10A1C00081FB0301DB17C3EBA103ADF80C300FE7F4
:10A1D0002B4B03EB4101B1F8163C03EB83035B000F
:10A1E000ADF80C3004E7264B93F8E23A03F0010394
:10A1F000ADF80C30FCE6284BDFED286AD3ED007A91
:10A200000C39C9B203EB810393ED127A67EEA67A9B
:10A2100067EE877AFDEEE77A17EE903AADF80C30EC
:10A22000E6E6B3F85E3BADF80C3015E7B3F8603BFB
:10A2300003EB830303EB83039B00ADF80C300BE7C8
:10A24000D3F8583B039307E7D3F8543B039303E752
:10A25000D3F8503B0393FFE6B3F85E3B104903EBA2
:10A26000C3039B00A1FB03135B09ADF80C30F3E6BD
:10A27000B3F8683BADF80C30EEE600BF18AB05084C
:10A28000582C0020B4AA0508B0AA0508BCAA0508E5
:10A29000F4370020676666663438002000007A4490
:10A2A0001F85EB51EDB28DF80C508DF80D00D3E603
:10A2B000B3F8900B60E7D3F8D00B80F3100080B2B6
:10A2C0005AE7019225F0DEF905F69C33D3ED037AC7
:10A2D000019AFCEEE77A17EE903A9BB200287FF4E1
:10A2E00085AED5F8D41B11F0100F18BF00237DE602
:10A2F00000F01F0240090123032803FA02F304D0EF
:10A3000004280CD0022805D07047074A116C0B4373
:10A3100013647047044A516C0B4353647047024AFC
:10A32000116B0B43136370470038024000487047BD
:10A33000C83500200E4B30B4DB68427801780D4CF4
:10A34000DB43C3F30223C3F10403DBB202FA03F3DA
:10A3500060181B0101F01F050122490903F0F003F9
:10A36000AA4080F8003344F8212030BC704700BF79
:10A3700000ED00E000E100E0002800F087802DE91A
:10A38000F0411C468388B3FA83F3202B8C4682B0BD
:10A3900011468046C3F11F026ED03D4E3D4DB318AD
:10A3A00005EB820293F87470C2F840CC35F0F0F8F7
:10A3B000B8F804E0D8F80000374ABEFA8EFECEF1B5
:10A3C0001F0101F0FC0303F1804303F59C3301F00E
:10A3D00003014FEA810C4FF00F0800F13F419868EC
:10A3E00008FA0CF820EA080001F57E019860C1F334
:10A3F000872101FA0CF1D3F808C04FF0004020FA91
:10A400000EF041EA0C0199605061136823EA0003E1
:10A410001360536823EA0003536013680343136017
:10A42000936806EB840423EA00039360D36894F8EE
:10A43000841023EA00031029D36020D001F1804169
:10A4400001F59E310B68184308603D4495F8803C47
:10A45000F02B11D93E44F02196F890308DF804305D
:10A4600003224FF4807301A885F8801C8DF8052025
:10A47000ADF80630FFF75EFF02B0BDE8F0819368EB
:10A4800003439360D3681843D060DEE7704700BF92
:10A49000B0AA0508582C0020003C0140464B5B68E0
:10A4A000C3F308032DE9F041002B62D1EFF31183D0
:10A4B000002B5ED1414A424C116BA068136B99424C
:10A4C000FAD1D2F8903C9842F6D8D2F88C5C4FF48E
:10A4D0007A7404FB05F3181AB0FBF5F004FB0101D4
:10A4E000354D374810264FF47A7401276B68C3F353
:10A4F0000803EBB9EFF31183D3B9136BD0F808E07D
:10A50000D2F830C06345F8D1D2F890CCE645F4D803
:10A51000D2F88C8C04FB08FCACEB0E0CBCFBF8FCFA
:10A5200004FB03C35B1AB3F57A7FDFD3BDE8F08188
:10A53000EFF3118E86F31288D0F808800368DB03EE
:10A5400044BFC2F8887CD0F80880D2F830C0D2F876
:10A55000883C5FFA8EFE8EF31188D2F88CEC63444F
:10A5600004FB0EFCACEB080CBCFBFEFC04FB03C3C1
:10A57000D8E7EFF31180102383F3128810490F4AB4
:10A580008D680B68DC0342BF0123C2F8883C8D68EC
:10A59000136BD2F8881CC0B280F31188D2F88C4CAF
:10A5A0004FF47A70194400FB04F35B1BB3FBF4F324
:10A5B00000FB013194E700BF00ED00E0582C0020C3
:10A5C00010E000E02DE9F84FB34C94F8941C0546D8
:10A5D000C1F34001D4F89C0C39F024FB94F8941C8E
:10A5E000D4F8980CC94301F0010139F01BFB002D90
:10A5F00000F0C3806E1EA94FA94D5FFA86FB4FF095
:10A600001008D4F89C0C39F0F1FAD4F8980C39F011
:10A61000EDFAB4F8A43C002B40F0358194F8A61C68
:10A62000D4F8A80C39F0FEFA4FF0FA094FF47A701A
:10A630004FF0010C7B68C3F30803002B40F0FB8054
:10A64000EFF31183002B40F0F680226BA968236B97
:10A650009A42FAD1D4F8903C9942F6D8D4F88C6C4E
:10A6600000FB06F35B1AB3FBF6F300FB02327B68D8
:10A67000C3F30803002B40F09F80EFF31183002BFE
:10A6800040F09A80236BD5F808A0216B8B42F9D15A
:10A69000D4F8901C8A45F5D8D4F88C6C00FB06F1F0
:10A6A000A1EB0A01B1FBF6F100FB03139B1AB3F512
:10A6B0007A7FDCD3B9F10109BCD1D4F89C0C39F014
:10A6C00095FAD4F8980C39F091FAB4F8A43C002B20
:10A6D00040F0CD8094F8A61CD4F8A80C81F00101BC
:10A6E00039F0A0FA4FF0FA0C4FF47A704FF0010EE7
:10A6F0007B68C3F30803002B7ED1EFF31183002B9B
:10A700007AD1226BA968236B9A42FAD1D4F8903C93
:10A710009942F6D8D4F88C9C00FB09F35B1AB3FB82
:10A72000F9F300FB02327B68C3F308033BBBEFF392
:10A73000118323BB236BD5F808A0216B8B42F9D181
:10A74000D4F8901C8A45F5D8D4F88C9C00FB09F10C
:10A75000A1EB0A01B1FBF9F100FB03139B1AB3F55E
:10A760007A7FE0D3BCF1010CC2D10BF1FF365FFA66
:10A7700086FBBBF1FF0F7FF444AFBDE8F88FEFF32A
:10A78000118988F31288AE682B68DB0344BFC4F8D4
:10A7900088ECAE68236BD4F8881C5FFA89F989F3DA
:10A7A0001188D4F88C9C0B4400FB09F1891BB1FB88
:10A7B000F9F100FB0313D1E7EFF3118E88F3128850
:10A7C000D5F808A02B68D90344BFC4F888CCD5F8C5
:10A7D00008A0236BD4F8881C5FFA8EFE8EF31188D4
:10A7E000D4F88C6C0B4400FB06F1A1EB0A01B1FB21
:10A7F000F6F100FB031359E7EFF3118188F3128898
:10A80000D5F808902B68DA0344BFC4F888ECD5F873
:10A810000890236BD4F8882CC9B281F31188D4F83E
:10A820008C1C1A4400FB01F3A3EB0903B3FBF1F307
:10A8300000FB023277E7EFF3118188F31288AE68EC
:10A840002B68DB0344BFC4F888CCAE68236BD4F814
:10A85000882CC9B281F31188D4F88C1C1A4400FBEF
:10A8600001F39B1BB3FBF1F300FB0232FFE6D4F8CC
:10A87000C03C002B3FF436AFD4F8AC3CC3F800909A
:10A8800084F8BD9C2EE7D4F8C03C002B3FF4CCAE3E
:10A8900035F090FCC8E600BF582C002000ED00E029
:10A8A00010E000E02DE9F84FB04CB14F94F8941C43
:10A8B000D4F89C0CAF4DC1F3400139F0B3F994F8D2
:10A8C000941CD4F8980CC94301F0010139F0AAF99D
:10A8D0004FF0050B4FF01008D4F89C0C39F086F9B6
:10A8E000D4F8980C39F082F9B4F8A43C002B40F06D
:10A8F000358194F8A61CD4F8A80C39F093F93226C7
:10A900004FF47A704FF0010C7B68C3F30803002BFF
:10A9100040F0FA80EFF31183002B40F0F580226BBA
:10A92000A968236B9A42FAD1D4F8903C9942F6D8A0
:10A93000D4F88CEC00FB0EF35B1AB3FBFEF300FBC8
:10A9400002327B68C3F30803002B40F09E80EFF3D4
:10A950001183002B40F09980236BD5F808A0216B60
:10A960008B42F9D1D4F8901C8A45F5D8D4F88CECF8
:10A9700000FB0EF1A1EB0A01B1FBFEF100FB03139A
:10A980009B1AB3F57A7FDCD3013EBDD1D4F89C0C81
:10A9900039F02CF9D4F8980C39F028F9B4F8A43C23
:10A9A000002B40F0D08094F8A61CD4F8A80C81F0BD
:10A9B000010139F037F94FF0320C4FF47A7001266B
:10A9C0007B68C3F30803002B7FD1EFF31183002BC7
:10A9D0007BD1226BA968236B9A42FAD1D4F8903CC0
:10A9E0009942F6D8D4F88C9C00FB09F35B1AB3FBB0
:10A9F000F9F300FB02327B68C3F308032BBBEFF3D0
:10AA0000118313BB236BD5F808A0216B8B42F9D1BE
:10AA1000D4F8901C8A45F5D8D4F88C9C00FB09F139
:10AA2000A1EB0A01B1FBF9F100FB03139B1AB3F58B
:10AA30007A7FE0D3BCF1010CC2D10BF1FF3616F0E6
:10AA4000FF0B7FF449AFBDE8F88FEFF3118988F36E
:10AA50001288D5F808A02B68DB0344BFC4F8886CC3
:10AA6000D5F808A0236BD4F8881C5FFA89F989F31C
:10AA70001188D4F88C9C0B4400FB09F1A1EB0A016E
:10AA8000B1FBF9F100FB0313D0E7EFF3118E88F36C
:10AA90001288D5F808A02B68D90344BFC4F888CC25
:10AAA000D5F808A0236BD4F8881C5FFA8EFE8EF3CD
:10AAB0001188D4F88CEC0B4400FB0EF1A1EB0A01D9
:10AAC000B1FBFEF100FB03135AE7EFF3118188F3AA
:10AAD0001288D5F808902B68DA0344BFC4F8886C54
:10AAE000D5F80890236BD4F8882CC9B281F311886B
:10AAF000D4F88C1C1A4400FB01F3A3EB0903B3FB4D
:10AB0000F1F300FB023276E7EFF3118188F312884C
:10AB1000D5F808E02B68DB0344BFC4F888CCD5F82F
:10AB200008E0236BD4F8882CC9B281F31188D4F8DB
:10AB30008C1C1A4400FB01F3A3EB0E03B3FBF1F3EF
:10AB400000FB0232FDE6D4F8C03C002B3FF433AFEB
:10AB5000D4F8AC3C1E6084F8BD6C2CE7D4F8C03C43
:10AB6000002B3FF4CCAE35F025FBC8E6582C002076
:10AB700000ED00E010E000E010B4B8B10D4CD4F8E6
:10AB8000C43C102B05D15DF8044B0521002034F0A6
:10AB9000E7BF03EB4302224482F8C91C01210B44A6
:10ABA00082F8C80C82F8CA1CC4F8C43C5DF8044B97
:10ABB000704700BF582C002000285FD00368374A38
:10ABC0002DE9F04103F13F4404F57E0402EB9422A9
:10ABD000012492F84C2002F01F055209032A04FABE
:10ABE00005F456D0042A4FD0022A48D08588B5FAF9
:10ABF00085F0C0F11F00C0F3CC0603EB860600F021
:10AC0000070082000F24306A944020EA040030627A
:10AC1000306A01FA02F20243002132624FF0010E63
:10AC20000A464FF0030C02270EFA02F838EA050034
:10AC300002F101021CD118680CFA01F420EA0400A8
:10AC40001860186807FA01F606431E609E6826EA37
:10AC500004069E6098689860586820EA080058606A
:10AC600058685860D86820EA0400D860D868D8606E
:10AC7000102A01F10201D7D1BDE8F0817047084ADE
:10AC8000556C2C435464B1E7054A156B2C4314638F
:10AC9000ACE7034A156C2C431464A7E7B0AA050877
:10ACA0000038024070B5464E96F8F84C04EB440369
:10ACB00006EBC303650093F8FC3C032B6ED8DFE87A
:10ACC00003F059291E02254406EBC505D5F8000DF1
:10ACD000002870D196F85C3D9C425FD0013404F0AE
:10ACE0000302934286F8F82C58D002EB420406EB9C
:10ACF000C4040223C4F8000D84F8FC3C70BD2B1979
:10AD000006EBC303D3F8002D72B1013AC3F8002D4E
:10AD1000002070BD2B1906EBC303D3F8002D002AC9
:10AD2000F3D1022283F8FC2C254406EBC50595F8E7
:10AD3000083D013BDBB285F8083D8BBB214B96F803
:10AD40005C6DD3F81C11D5F8040D621C02F00302EF
:10AD50004B1E0324B242034485F8FC4CB3FBF1F0D4
:10AD6000C5F8000D1AD0994218D80138C5F8000D61
:10AD7000012070BD3DF082FA80B1124B2C44D3F813
:10AD80001C2106EBC404012102F51C5384F8FC1CB1
:10AD90000F33B3FBF2F3C4F8003D70BD012070BD6A
:10ADA000084BD3F81C21012002F2E733B3FBF2F386
:10ADB000C5F8003D70BD0138C5F8000D002070BD1C
:10ADC000582C00209801002070B503688CB0FF2239
:10ADD0000446587B8DF80720012100220DF107055C
:10ADE000CDE90252CDE90622CDE908220B92049169
:10ADF0008DF814108DF8281050B310250426EFF3A9
:10AE0000118385F312882268116AD8B2002931D0E3
:10AE100080F3118823681A6A042AF0D1EFF31181B4
:10AE2000102282F312881A6A042A04D02268126A55
:10AE30000AB11B6AA3B9C9B281F3118802A92046DD
:10AE40004BF03AFC2268136A002BFCD10CB070BDA9
:10AE50001A6A002AE2D01A6A002AF9D1DEE714330E
:10AE60009A68002AFBD102AA1C60C9B25A6081F319
:10AE70001188E7E7166280F3118823681A6A042AAA
:10AE8000BDD1CBE72DE9F04F854C95B000230E46A0
:10AE90004FF4F0722021054604F55660019684F8BF
:10AEA0005D3D84F85E3D4FF0B2FD202104F57460F5
:10AEB0004FF4F0724FF0ABFDDFF8F0C17949322763
:10AEC0004FF0100E4FF47A700126DCF80430C3F313
:10AED0000803002B40F0C380EFF31183002B40F0F8
:10AEE000BE80226BD1F80890236B9A42F9D1D4F836
:10AEF000903C9945F5D8D4F88CAC00FB0AF3A3EB51
:10AF00000903B3FBFAF300FB0232DCF80430C3F3AD
:10AF10000803002B40F08380EFF31183002B7ED1D8
:10AF2000236BD1F808B0D4F830904B45F8D1D4F861
:10AF3000909CCB45F4D8D4F88CAC00FB0AF9A9EB73
:10AF40000B09B9FBFAF900FB03939B1AB3F57A7F5F
:10AF5000DBD3013FB9D1DFF8588198F82920002AC6
:10AF600058D098F82A30032B54D8013B03EB830CBC
:10AF700008EBCC0108F1C40091F8C4E000EBCC0070
:10AF8000BEF1020F4FF0010CC8F82C0088F8B4C0D5
:10AF900000F0F3815BB2581C00F0FD8108EB031355
:10AFA000D3F83C31C1F8C830A3B308F13C0008F134
:10AFB0007803C1E937034FF0020EA1F8D07081F891
:10AFC000D2C081F8C4E01709013F032F02F00F023D
:10AFD00000F27181DFF8DC9009EB4703B3F8400021
:10AFE00040FA02F3DB0740F16681012303FA02F223
:10AFF000013A10404F444DF029F897F848202A4B69
:10B00000104403EBC000C8F834008379002B53D000
:10B01000412B51D06FF0010015B0BDE8F08FEFF378
:10B02000118A8EF31288D1F808B00B68DB0344BF95
:10B03000C4F8886CD1F808B0236BD4F8889C5FFA08
:10B040008AFA8AF31188D4F88CAC4B4400FB0AF9D5
:10B05000A9EB0B09B9FBFAF900FB039375E7EFF3D2
:10B0600011898EF31288D1F808A00B68DA0344BF67
:10B07000C4F8886CD1F808A0236BD4F8882C5FFA48
:10B0800089F989F31188D4F88C9C1A4400FB09F3E0
:10B09000A3EB0A03B3FBF9F300FB023235E700BF71
:10B0A000582C002010E000E06835002000ED00E0A2
:10B0B000503D0020B0AA05082323C380092134F0A5
:10B0C00067FAD8F8343013B11A689B881383D4F820
:10B0D000982AC14BB3EB920F80F05581B3EBD20F9E
:10B0E00080F06081B3EB121F80F05E81B3EB521FE2
:10B0F00080F05C81B3EB921F80F05A81B3EBD21FDA
:10B1000080F05881B3EB122F80F056814FF480739A
:10B11000B248A8F83030FFF757FEB0488C213CF019
:10B120007DFE1B2840F05081D8F83430012284F88D
:10B130005D2D0BB12322DA804022A8480A213CF081
:10B140003DFFA6488A213CF069FE98F82830C0F3FC
:10B150008012012B88F86C2100F0400000F0AF80D5
:10B16000022B00F0EC80002B00F0CB80B8F86E31A1
:10B1700094F8C816182906D10199A4F8CC16A4F899
:10B18000CE26A4F8D0369548A8F830300222002107
:10B190003CF014FF642034F02BFEDFF840B2D8F806
:10B1A0002C300DF10E090DF10F04002600274FF091
:10B1B000100A587BCDF81090002201214FF0800C2E
:10B1C000CDE90E67CDE908220A948DF80EC00592EC
:10B1D0008DF81C200D921092129206910B918DF811
:10B1E00030108DF84410002847D00421EFF311836C
:10B1F0008AF31288D8F82C20D2F820C0D8B2BCF13B
:10B20000000F41D080F31188D8F82C301A6A042A34
:10B21000ECD1EFF311818AF312881A6A042A42D022
:10B22000D8F82C20126A002A3DD01A6A0AB93AE0EE
:10B2300014329368002BFBD104AB5360C2F800B00A
:10B24000CBB283F31188D8F82C301A6A002AFCD1CB
:10B250009DF80F0010F00200ABD16A78AB78297826
:10B2600088F87011C2F12002C3F1100388F871212F
:10B2700088F8723115B0BDE8F08F1A6A002AC8D07C
:10B280001A6A002AF9D1C4E7116280F31188D8F84C
:10B290002C301A6A042AA9D1EFF311818AF312889B
:10B2A0001A6A042ABCD1CBB283F3118804A9584688
:10B2B0004BF002FAC7E70020C8F83400FEE6019B15
:10B2C000D4F8981A0BB100285FD0454BB3EB910F1F
:10B2D0005FD2B3EBD10F71D2B3EB111F5ED2B3EBE0
:10B2E000511F6DD2B3EB911F6CD2B3EBD11F57D26C
:10B2F000B3EB112F34BF4FF480738023A8F86E3165
:10B3000036E7D4F8981A344BB3EB910F41D2B3EB34
:10B31000D10F53D2B3EB111F40D2B3EB511F4FD219
:10B32000B3EB911F4ED2B3EBD11F39D2B3EB112F38
:10B3300034BF4FF480738023A8F86E3118E7D4F837
:10B34000980A2749B1EB900FD8D2B1EBD00F35D284
:10B35000B1EB101F22D2B1EB501F31D2B1EB901FD5
:10B3600030D2B1EBD01F1BD2B1EB102F34BF4FF452
:10B3700080738023A8F86E31FAE691F8D2306344E6
:10B3800081F8D2301FE60223C2E6134BB3EB910FD4
:10B39000BDD30223B2E7C1F8C8703BE60823ADE78E
:10B3A0004023ABE70423B3E60823B1E61023AFE65E
:10B3B0002023ADE64023ABE68023A9E604239DE7E6
:10B3C00010239BE7202399E7D8F83400202134F09C
:10B3D000DFF84FF0FF301FE6404B4C007C3D002073
:10B3E0008096980010B582B00A88ADF80620002338
:10B3F0000C468DF805308DF8040049F0BDF90421A4
:10B400000DEB01002CF012F8BDF80630238002B0DD
:10B4100010BD00BF10B582B00A788DF80720182340
:10B42000040A8DF804308DF806008DF8054049F0C7
:10B43000A3F904210DEB01002BF0F8FF02B010BDC1
:10B4400010B582B019220023040A8DF803308DF85C
:10B4500001408DF800200C468DF8020049F08CF96F
:10B46000052168462BF0E2FF9DF80430237002B0FE
:10B4700010BD00BF38B50C4C0546A11CD52248F0C4
:10B4800023F92B68A342C5E90043A3EB04000AD0CB
:10B4900004F14002611C2960237802F8013BD5E9E0
:10B4A0000041A142F6D138BDC43E0020F0B40D6881
:10B4B00000240CE0BCF1050F18D8A0F137030A2BCB
:10B4C00014D104EB840415F8010B03EB4404A0F140
:10B4D0003003DEB2092EA0F16107A0F1410CF0D9D2
:10B4E000052FE7D8A0F157030A2BEAD00D601460AE
:10B4F000F0BC7047094B93F85637042B08D9053B2D
:10B50000032B08D801231A4600B103701046704778
:10B5100000230122F8E700231A46F5E7582C002003
:10B520009FED727A07EE901A20EE070AF8EE677A1E
:10B5300027EE800AFDEEC07A17EE903A2033402BBA
:10B5400000F2C480DFED6A7AB4EEE70AF1EE10FA99
:10B55000F0EE407A0CDD9FED676ADFED676AB0EED2
:10B56000677AB4EEE67AF1EE10FA77EEC67AF6DC98
:10B570009FED627AF4EEC77AF1EE10FA0CD59FEDEA
:10B580005D6ADFED5F6AB0EE677AB4EEE67AF1EEFF
:10B5900010FA77EE867AF6D49FED5A7AF4EEC77AEF
:10B5A000F1EE10FA00F38A809FED577AF4EEC77A35
:10B5B000F1EE10FA44BF9FED517A77EE677A27EEED
:10B5C000A76ADFED525A9FED527ADFED526AA6EE7E
:10B5D000257A67EE865AE6EE076AB6EE007AE5EE61
:10B5E000A67A27EE877ADFED476A70EE267ABDEEFF
:10B5F000E76A16EE103A2033402B64D8B4EEE60A20
:10B60000F1EE10FA0CDDDFED3B5A9FED3B6AF0EEF8
:10B61000676AF4EEC66AF1EE10FA77EEE57AF6DCC8
:10B62000DFED366AF4EEE67AF1EE10FA0CD5DFEDD6
:10B63000315A9FED336AF0EE676AF4EEC66AF1EEB6
:10B6400010FA77EEA57AF6D4DFED2E6AF4EEE67AFC
:10B65000F1EE10FA3DDDDFED266A76EEE77A67EE71
:10B66000A75A9FED2A5A9FED2A6ADFED2A6AA5EEB6
:10B67000856A27EEA55AE5EE866AB8EE006AE5EE21
:10B68000267A67EE867AC7EE206AB7EE006A76EE13
:10B69000865A76EE666A86EE257A80ED091A67EE9E
:10B6A000277A66EE876AC0ED017AC0ED037A80EDF5
:10B6B000007A80ED027AC0ED046A70479FED0C7A43
:10B6C00077EE677A7BE7DFED147ADCE79FED127A9D
:10B6D00089E7DFED0D6AF4EEE67AF1EE10FA44BF89
:10B6E000DFED066A76EEE77AB9E700BF27D4D236F7
:10B6F000DB0F4940DB0FC940E4CB1641DB0F49C0EB
:10B70000E4CB16C1DB0FC93FDB0FC9BF92E741B9DC
:10B710009730083C15A82ABE000000002DE9F84328
:10B72000E14FD7ED7E7A97F86847F8EE670A07F29F
:10B7300064732DED028BC3ED000A002C70D1DFF88D
:10B74000C4E3DFF8C4C39EF8FC60C7F874479CF8F4
:10B750000040002E39D0B7F86E379FEDD46A9FEDC8
:10B76000D47A07EE903AF8EE677A20EE877AC6EE42
:10B77000276AD04B0022012E1A6076EE876AC7EE48
:10B78000267AC3ED017A20D0022E9A60C3ED037AA7
:10B790001BD0032E1A61C3ED057A16D0042E9A61D0
:10B7A000C3ED077A11D0052E1A62C3ED097A0CD0C9
:10B7B000062E9A62C3ED0B7A07D0072E1A63C3EDEB
:10B7C0000D7A02D09A63C3ED0F7A9EF876379FED1B
:10B7D000BA6A9FEDBA7A9FEDBA0ABA4A07EE903A72
:10B7E000F8EEE77A9CF8583BC6EE276A1C4414FB37
:10B7F00006F6F6B207EE906A60EE870AF8EEE77A90
:10B80000C2ED006AA7EEA00A4DF078FCBDEC028BF9
